:020000040800F2
:100000008006002029020008B1040008E50300086A
:10001000AD040008E302000891060008000000009B
:10002000000000000000000000000000D5040008EF
:10003000E702000800000000B3040008ED05000816
:10004000430200084302000843020008430200087C
:10005000430200084302000843020008430200086C
:10006000430200084302000843020008430200085C
:10007000430200084302000843020008430200084C
:10008000430200084302000843020008430200083C
:10009000430200084302000843020008430200082C
:1000A000430200084302000843020008430200081C
:1000B000430200084302000843020008430200080C
:1000C00043020008430200084302000843020008FC
:1000D00043020008430200084302000843020008EC
:1000E00043020008430200084302000843020008DC
:1000F00043020008430200084302000843020008CC
:1001000043020008430200084302000843020008BB
:1001100043020008430200084302000843020008AB
:10012000430200084302000843020008430200089B
:10013000430200084302000843020008430200088B
:10014000430200084302000843020008430200087B
:10015000430200084302000843020008430200086B
:10016000430200084302000843020008430200085B
:10017000430200084302000843020008430200084B
:10018000430200084302000800F002F800F03CF8C7
:100190000AA090E8000C82448344AAF10107DA45E2
:1001A00001D100F031F8AFF2090EBAE80F0013F0F8
:1001B000010F18BFFB1A43F0010318472005000088
:1001C00040050000103A24BF78C878C1FAD8520719
:1001D00024BF30C830C144BF04680C6070470000C1
:1001E0000023002400250026103A28BF78C1FBD840
:1001F000520728BF30C148BF0B6070471FB500F0E1
:1002000067FA1FBD10B510BD00F031F81146FFF7B9
:10021000F5FF00F03FFA00F04FF803B4FFF7F2FFEC
:1002200003BC00F057F80000094880470948004720
:10023000FEE7FEE7FEE7FEE7FEE7FEE7FEE7FEE796
:10024000FEE7FEE704480549054A064B70470000F3
:10025000F1050008890100088000002080060020C8
:10026000800200208002002070477047704775466A
:1002700000F02CF8AE4605006946534620F0070012
:10028000854618B020B5FFF7DDFFBDE820404FF0F0
:1002900000064FF000074FF000084FF0000B21F070
:1002A0000701AC46ACE8C009ACE8C009ACE8C0093D
:1002B000ACE8C0098D46704710B50446AFF3008026
:1002C0002046BDE81040FFF7A8BF00000048704777
:1002D0001C00002001491820ABBEFEE726000200EA
:1002E000704700BFFEE7704710B5044603E04FF4C7
:1002F0007A7000F005F8201EA4F10104F7D110BDBA
:100300000146114A12884A434FF0E0235A61002205
:100310009A611A46126942F001021A6100BF4FF059
:10032000E022106900F001021AB100F48032002AC4
:10033000F5D04FF0E022126922F001024FF0E023E5
:100340001A6100229A61704714000020F0B50A4635
:1003500000210023002400BF3DE0012505FA01F340
:10036000156805EA03049C4234D105684F00032652
:10037000BE40B543056015794E00B540066835436B
:1003800005601579012D02D01579022D16D18568E9
:100390004F000326BE40B543856055794E00B540F9
:1003A000866835438560456801268E40B5434560C3
:1003B000456896798E40B6B235434560C5684F00B2
:1003C0000326BE40B543C560D5794E00B540C6682A
:1003D0003543C560491C1029BFD3F0BD4183704728
:1003E0000183704700BFFEE74CF6CC40014908602E
:1003F00070470000003000404AF6AA20014908601A
:10040000704700000030004001494860704700001C
:100410000030004001498860704700000030004013
:100420000149086070470000003000401CB5012100
:10043000202000F03FF84FF4F040009001208DF8AC
:10044000040002208DF8050069460C48FFF77EFF86
:100450004FF400610948FFF7C3FF4FF4805107488C
:10046000FFF7BEFF4FF400510448FFF7B9FF4FF408
:1004700080410248FFF7B4FF1CBD00000014024099
:1004800010B5FFF7B9FF10BD70B505460C4645F233
:100490005550FFF7C5FF2846FFF7B6FF2046FFF788
:1004A000B9FFFFF7A9FFFFF79FFF70BD00BFFEE791
:1004B0007047704729B1064A12680243044B1A601C
:1004C00004E0034A12688243014B1A60704700003F
:1004D00030380240704700000CB5002001900090B9
:1004E0003448006840F480303249086000BF314829
:1004F000006800F4003000900198401C01900098C2
:1005000018B90198B0F5A04FF1D12A48006800F45D
:10051000003010B10120009001E000200090009810
:10052000012846D123484030006840F080502149DE
:10053000403108602048006840F440401E4908608F
:100540001C48083000681B490831086008460068EC
:1005500040F4004008600846006840F4A05008607D
:100560001648091F0860081F006840F08070091FC6
:10057000086000BF0F48006800F000700028F9D044
:1005800040F205700E4908600A480830006820F003
:1005900003000849083108600846006840F002007E
:1005A000086000BF03480830006800F00C0008280D
:1005B000F8D10CBD003802400070004019544007CB
:1005C000003C0240042808D14FF0E021096941F0C5
:1005D00004014FF0E022116107E04FF0E0210969CA
:1005E00021F004014FF0E0221161704770470000D4
:1005F00010B51548006840F47000134908601348AE
:10060000006840F001001149086000200F490831DE
:1006100008600E4800680E4908400C4908600D4803
:10062000091D0860081F006820F48020091F086069
:10063000002006490C310860FFF74EFF4FF00060C4
:1006400001498039086010BD88ED00E000380240A3
:10065000FFFFF6FE1030002410B50420FFF7B2FFB4
:10066000074800680749B0FBF1F0074908800846D1
:1006700000884FF47A7148430449086010BD0000B7
:100680000000002040420F0014000020180000204D
:1006900000BFFEE7FFF7E0FFFFF7C8FE41F6FE717F
:1006A0000420FFF7F1FE4FF400610848FFF796FEC3
:1006B0000AE04FF4FA50FFF717FEFFF7E1FE4FF4A0
:1006C00000610248FFF78CFEF3E7000000140240CF
:1006D0004FF04070E1EE100A70470000FC06000881
:1006E000000000201C000000C401000818070008DA
:1006F0001C00002064060000E0010008007A030AE4
:1007000000000000000000000102030406070809C1
:080710000000000000000000E1
:040000050800018965
:00000001FF
