:020000040800F2
:1000000098040020DD0100081D050008CB0400084D
:100010001905000851020008D9100008000000006E
:10002000000000000000000000000000F9060008C9
:100030008D03000800000000AD050008C10700089E
:10004000F7010008F7010008F7010008F7010008B0
:10005000F7010008F7010008F7010008F7010008A0
:10006000F7010008F7010008F7010008F701000890
:10007000F7010008F7010008F7010008F701000880
:10008000F701000855020008F70100080000000011
:10009000000000000000000000000000F701000860
:1000A000F7010008F7010008F701000889090008B6
:1000B000000000000000000000000000F701000840
:1000C000F7010008F7010008F7010008F701000830
:1000D000F7010008A50D0008D10D00080000000080
:1000E000F7010008F7010008000000000000000010
:1000F000000000000000000000000000F701000800
:100100000000000000000000F701000800000000EF
:100110000000000000000000F701000800000000DF
:10012000F7010008F7010008F7010008F7010008CF
:10013000F7010008000000000000000000000000BF
:1001400000000000000000000000000000000000AF
:10015000F7010008F7010008F7010008F70100089F
:10016000000000000000000000000000000000008F
:10017000000000000000000000000000000000007F
:10018000F7010008F701000800000000000000006F
:1001900000000000F701000800000000000000005F
:1001A000000000000000000000000000000000004F
:1001B000000000000000000000000000F70100083F
:1001C000F7010008F7010008DFF80CD000F02EF866
:1001D0000048004795120008980400200648804710
:1001E00006480047FEE7FEE7FEE7FEE7FEE7FEE71C
:1001F000FEE7FEE7FEE7FEE7C5070008C9010008C5
:1002000030B50B46014600202022012409E021FAE6
:1002100002F59D4205D303FA02F5491B04FA02F5E3
:100220002844151EA2F10102F1DC30BD064C074D39
:1002300006E0E06840F0010394E8070098471034B6
:10024000AC42F6D3FFF7C4FF2C1300084C13000890
:1002500000BFFEE710B51049104800F065F801280E
:1002600018D10F490D4800F01FF840210D4800F04B
:10027000C5FD002280210B4800F05AFE00210748EE
:1002800000F046F80449054800F028F80121034829
:1002900000F03EF810BD000000802020A060024069
:1002A00000003D20004400400246094B9A4201D222
:1002B000084801E00648103801F000531BB1064B16
:1002C0000B40C36002E0044B0B40836070470000AA
:1002D00010640240006002407D0F7D0F0246094B12
:1002E0009A4201D2084801E00648103801F0005354
:1002F0001BB1064B0B40C36002E0044B0B40836014
:100300007047000010640240006002407D0F7D0FC6
:1003100021B1026842F00102026003E0026822F0AB
:10032000010202607047000070B502460020002400
:100330000025124EB24201D2114B01E00F4B103B8F
:10034000104E0E4036B11E2606EAD124166806EA83
:10035000040502E0566906F0800501F000560EB172
:100360005C6800E01C68084E344004EA010616B1DF
:100370000DB1012000E0002070BD000010640240BB
:10038000006002403C0F3C0F7D0F7D0F704710B5A1
:10039000044603E04FF47A7000F006F8201EA4F142
:1003A0000104F7D110BD00000146114A12884A43EA
:1003B0004FF0E0235A6100229A611A46126942F016
:1003C00001021A6100BF4FF0E022106900F0010243
:1003D0001AB100F48032002AF5D04FF0E022126901
:1003E00022F001024FF0E0231A6100229A61704767
:1003F00024000020F0B50A4600210023002400BF9D
:100400003DE0012505FA01F3156805EA03049C4265
:1004100034D105684F000326BE40B5430560157909
:100420004E00B5400668354305601579012D02D0B0
:100430001579022D16D185684F000326BE40B543BD
:10044000856055794E00B5408668354385604568BE
:1004500001268E40B5434560456896798E40B6B218
:1004600035434560C5684F000326BE40B543C560AF
:10047000D5794E00B540C6683543C560491C102982
:10048000BFD3F0BDF0B5002300244D07ED0E02FAF6
:1004900005F3CE1000F1200555F826504E07F70E53
:1004A0000F26BE40B543CF1000F1200646F8275076
:1004B000CE1000F1200555F8265045EA0304CE1071
:1004C00000F1200545F82640F0BD00BFFEE7000022
:1004D0001CB50121042000F06BF84FF4007000906F
:1004E00001208DF8040002208DF8050069460848B7
:1004F000FFF780FF2020009001208DF804000220EB
:100500008DF8050069460348FFF774FF1CBD000025
:10051000000802400000024000BFFEE770470000F4
:1005200070B5002100230F22C4781CB3174C246837
:1005300004F4E064C4F5E064C4F30721C1F10404E9
:10054000E3B20A4144789C40E1B2847814402143EC
:100550000C07210E0E4C05786155047804F01F0538
:100560000124AC4005786D11AD0005F1E025C5F81A
:10057000004109E0047804F01F050124AC40054D5A
:100580000678761145F8264070BD00000CED00E0BD
:1005900000E400E080E100E002490143024A11600A
:1005A000704700000000FA050CED00E07047000005
:1005B00029B1064A12680243044B1A6004E0034A58
:1005C00012688243014B1A607047000030380240C5
:1005D00029B1064A12680243044B1A6004E0034A38
:1005E00012688243014B1A60704700004038024095
:1005F00029B1064A12680243044B1A6004E0034A18
:1006000012688243014B1A60704700004438024070
:10061000F0B5002100220024022500260223324FDB
:100620003F6807F00C0121B1042905D0082937D112
:1006300005E02E4F076036E02D4F076033E02A4F6C
:100640003F1F3F68C7F38056274F3F1F3F6807F0A3
:100650003F036EB1264FB7FBF3F7DFF88CC0ACF168
:10066000040CDCF800C0CCF3881C07FB0CF40CE095
:100670001E4FB7FBF3F7DFF870C0ACF1040CDCF8E9
:1006800000C0CCF3881C07FB0CF4174F3F1F3F68DA
:10069000C7F301477F1C7D00B4FBF5F7076002E05C
:1006A000124F076000BF00BF0F4F3F6807F0F00117
:1006B0000909104F7A5C0768D74047600A4F3F68C6
:1006C00007F4E051890A0B4F7A5C4768D74087608E
:1006D000054F3F6807F46041490B064F7A5C476855
:1006E000D740C760F0BD0000083802400024F40085
:1006F00040787D0114000020704700002248006807
:1007000040F08050204908602048006840F4404094
:100710001E4908601C48383800681B493839086091
:100720000846006808600846006840F48050086089
:100730001748091F0860081F006840F08070091FF3
:10074000086000BF10484038006800F000700028C2
:10075000F8D040F202700F4908600B483838006842
:1007600020F003000849383908600846006840F066
:100770000200086000BF04483838006800F00C0030
:100780000828F8D17047000040380240007000404F
:1007900010640107003C0240042808D14FF0E0211A
:1007A000096941F004014FF0E022116107E04FF0C8
:1007B000E021096921F004014FF0E0221161704746
:1007C0007047000010B51548006840F470001349E8
:1007D00008601348006840F00100114908600020DB
:1007E0000F49083108600E4800680E4908400C495E
:1007F00008600D48091D0860081F006820F480206B
:10080000091F0860002006490C310860FFF776FFD9
:100810004FF0006001498039086010BD88ED00E0AC
:1008200000380240FFFFF6FE1030002410B504200F
:10083000FFF7B2FF074800680749B0FBF1F007492E
:100840000880084600884FF47A71484304490860DC
:1008500010BD00000000002040420F0024000020D6
:1008600028000020F0B50C46154600210022068C19
:100870004FF6FE773E400684018B028C4FF60C76D5
:1008800031407E1C06EA03162E4331434FF6F576BF
:10089000324044F00106324301830284F0BDF0B5DA
:1008A0000C461546002100220026078C4FF6EF7CEF
:1008B00007EA0C070784018B028C4FF6FF7707EAE3
:1008C000041640F6FF4739404FF6FF7707EA033733
:1008D00039434FF6FF7707EA052739434FF65F772D
:1008E0003A4046F010073A4301830284F0BDF0B568
:1008F0000C461546002100220026078C4FF6FF6C9F
:1009000007EA0C070784818B028C4FF6FF7707EA12
:1009100004264FF60C7739404FF6FF7707EA0317A6
:100920002F4339434FF2FF573A4046F480773A431A
:1009300081830284F0BDF0B50C46154600210022EB
:100940000026078C4EF6FF7C07EA0C070784818B94
:10095000028C4FF6FF7707EA043640F6FF4739402E
:100960004FF6FF7707EA052739434FF6FF7707EA87
:100970000337394345F6FF773A4046F480573A4308
:1009800081830284F0BD000010B50221254800F0EB
:100990009CF8002844D00221224800F051F8224857
:1009A000006840B90120204908601E4800F08AF81C
:1009B0001E49086034E01C480068012830D100203E
:1009C00019490860174800F07DF819490860084681
:1009D000006816490968884207D915480068134914
:1009E0000968401A1349086013E0114800680F496C
:1009F000096888420AD20D4800684FF6FF71081A4C
:100A00000B49096808440B49086002E000200949C5
:100A10000860084800680849B1FBF0F00749086021
:100A200010BD000000000140400000203800002000
:100A30003C0000204400002040420F0048000020FD
:100A4000CA430282704721B1028842F0010202804B
:100A500004E002884FF6FE731A40028070470000DF
:100A60000EB501210846FFF7C3FD01211020FFF755
:100A70009FFD4FF48070019002208DF80800032044
:100A80008DF8090000208DF80A008DF80B0001A9EF
:100A90000B48FFF7AFFC012208210948FFF7F2FCE1
:100AA0001B208DF8000000208DF8010001208DF83A
:100AB00002008DF803006846FFF732FD0EBD00000E
:100AC000000002400146486B704730B502460020E6
:100AD00000230024158A05EA0103958905EA01042B
:100AE00013B10CB1012000E0002030BD70B5054607
:100AF0000C46208850B92389A28861882846FFF7D0
:100B0000B1FEE188284600F064F825E0208804283A
:100B10000AD12389A28861882846FFF7C0FEE188B0
:100B2000284600F05FF817E0208808280AD12389BA
:100B3000A28861882846FFF7DAFEE188284600F09F
:100B40005EF809E02389A28861882846FFF7F3FE52
:100B5000E188284600F05CF870BD000000B587B061
:100B6000FFF77EFF6320ADF804000020ADF806001B
:100B70004FF6FF7002900020ADF80C0001A90F485D
:100B800000F054F80020ADF81000ADF8120001207C
:100B9000ADF814000020ADF81600ADF8180004A957
:100BA0000648FFF7A3FF01210448FFF74CFF01228D
:100BB0000221024800F004F807B000BD0000014027
:100BC0001AB183890B43838102E083898B4383813C
:100BD0007047028B4FF6F3731A400283028B0A436D
:100BE00002837047028B4FF2FF331A400283028B5D
:100BF0004FF6FF7303EA01231A4302837047828B87
:100C00004FF6F3731A408283828B0A4382837047C4
:100C1000828B4FF2FF331A408283828B4FF6FF7331
:100C200003EA01231A4382837047000000220288EE
:100C3000184B98420ED0184B98420BD0B0F1804F11
:100C400008D0164B984205D0154B984202D0154B50
:100C5000984204D14FF68F731A404B881A43124BB7
:100C6000984207D0114B984204D04FF6FF431A40E8
:100C70000B891A4302804B68C3620B880385054BBE
:100C8000984202D0044B984201D18B7A038601230B
:100C900083827047000001400004014000040040CE
:100CA00000080040000C004000100040001400400C
:100CB00000B589B02A482B4908604FF4E1304860FC
:100CC000294888604FF4C060C86001200861102086
:100CD000486125208DF81C0002208DF81D000120A0
:100CE0008DF81E0040F22550ADF820001F48204925
:100CF00008604FF4E13048601B4888600C20C860F1
:100D0000012008614004486126208DF8140001206C
:100D10008DF815008DF8160040F22550ADF818003A
:100D200005980290BDF81800ADF80C00D1E9040157
:100D3000CDE900010E480FC800F076F80798029040
:100D4000BDF82000ADF80C000649D1E90401CDE959
:100D5000000104480FC800F067F809B000BD0000AA
:100D600000100140500000200000024000440040FC
:100D700068000020F8B506460C4615464FF4A06002
:100D8000FFF70AFCF0B28DF800008DF801408DF8F5
:100D9000025001208DF803006846FFF7C1FBF8BD43
:100DA0007047000010B540F22551054800F0D6F814
:100DB00028B104480449086004480968884710BD00
:100DC00000100140A10D00082C0000205000002060
:100DD00010B540F22551054800F0C0F828B104488C
:100DE0000449086004480968884710BD0044004071
:100DF000A10D0008300000206800002001F40072FE
:100E0000B2F5007F00D100BFCA430280704721B114
:100E1000828942F40052828104E082894DF6FF7398
:100E20001A408281704700000FB470B586B00D98EB
:100E300085B201210E98FFF7BBFB3A490A98884218
:100E400004D101210F98FFF7D3FB0BE036490A9834
:100E5000884203D035490A98884203D101210F986E
:100E6000FFF7B6FB2F490A98884207D02E490A9807
:100E7000884203D02D490A98884200D107260024D1
:100E800010E045FA04F000F0010020B1324621469E
:100E90000C98FFF7F7FA601C45FA00F000B903E080
:100EA000601CC4B2102CECDB00BF049502208DF84E
:100EB00014008DF8150000208DF8160001208DF823
:100EC000170004A90C98FFF795FA0B9800900020E2
:100ED000ADF80400ADF80600ADF80800ADF80C0060
:100EE0000C20ADF80A0069460A9800F087F89DF8D2
:100EF00042209DF841109DF94000FFF73BFFBDF8EF
:100F0000441001220A9800F053F801210A98FFF7D3
:100F10007EFF40210A98FFF771FF06B070BC5DF8B4
:100F200014FB000000100140004400400048004055
:100F30001AB1838A0B43838202E0838A8B438382C4
:100F4000704702460020B1F5007F00D100BF138832
:100F50000B400BB1012000E00020704770B5024645
:100F6000002400230025002040F66A16B14200D17B
:100F700000BFC1F3421501F01F03012606FA03F377
:100F8000012D02D19689334006E0022D02D1168A46
:100F9000334001E0968A33400C12012606FA04F42D
:100FA0001688344013B10CB1012000E0002070BD60
:100FB000F0B50346002400260025002040F66A17FD
:100FC000B94200D100BF1846C1F3421401F01F0618
:100FD000012707FA06F5012C01D10C3004E0022CA0
:100FE00001D1103000E014301AB107682F430760B8
:100FF00002E00768AF430760F0BD00002DE9FF473E
:1010000005460E460024A14600BFA046B08900B1A7
:1010100000BF2C8A24F44054F08804432C82AC890D
:1010200041F20C608443B0883189084371890843D8
:101030000443AC81AC8A24F44074B0890443AC828C
:101040006846FFF7E5FA2048854202D01F488542EE
:1010500002D1DDF80C9001E0DDF80890A88900F4D9
:10106000004040B109EBC90000EB091031684900AC
:10107000B0FBF1F707E009EBC90000EB091031689C
:101080008900B0FBF1F76420B7FBF0F00401200900
:10109000642101FB1078A88900F4004040B132209F
:1010A00000EBC800B0FBF1F000F00700044308E0DB
:1010B000322000EB08106421B0FBF1F000F00F00CB
:1010C00004432C81BDE8FF8700100140001401405B
:1010D000C1F308028280704700BFFEE70FB4054BE2
:1010E00010B503A9044A029800F018F810BC5DF886
:1010F00014FB0000711200084C00002002E008C838
:10110000121F08C1002AFAD170477047002001E081
:1011100001C1121F002AFBD1704700002DE9FF4FCB
:1011200089B09B460446002506E025280BD05A4688
:101130000B999047641C6D1C20780028F5D10DB0E8
:101140002846BDE8F08F0027B8460122474900E055
:10115000074314F8013F203B02FA03F00842F7D19D
:1011600020782E2819D114F8010F47F004072A28F7
:101170000ED06FF02F022078A0F1300109290CD891
:1011800008EB880102EB410100EB0108641CF2E767
:101190000A98641C50F8048B0A9020780028CED05E
:1011A000642808D0692806D075281ED05A460B99A5
:1011B00090476D1C58E00A994FF00A0901C90A913D
:1011C000002802DA40422D2102E0390504D52B2106
:1011D0008DF82010012103E0F90704D02021F7E762
:1011E0008A4608AE0DE00021FAE70A994FF00A0995
:1011F00001C90A91F7E74946FFF702F8303106F8CE
:10120000011D0028F7D1ADEB060000F12009780799
:1012100001D44FF00108C84502DDA8EB090000E049
:1012200000208046002706E008A85A46C05D0B99BA
:1012300090476D1C7F1C5745F6DB04E030205A4672
:101240000B9990476D1CB8F10001A8F10108F5DC7D
:1012500005E016F8010B5A460B9990476D1CB9F141
:101260000001A9F10109F4DC641C65E7092801000B
:1012700070B504460D46E1B20548FFF729FF00BFEF
:1012800080210348FFF75DFE0028F9D0204670BD9D
:10129000004400400124FFF7C9FAFFF719F9FFF7EE
:1012A00007FDFFF75BFC4FF4FA70FFF770F814A02E
:1012B000FFF714FF22E01648006808B9012000E09B
:1012C0000020134908601348D0F8A40208B901208F
:1012D00000E00020104908602046FFF758F8701C15
:1012E00086B24FF47A7090FBF4F085B2AE4205DD21
:1012F00000260A4801680AA0FFF7F0FEDBE70000BD
:1013000068656C6C6F2C776F726C640D0A0000005E
:101310009402404200004142A402414248000020A1
:101320006672653A25640D0A000000004C1300083F
:101330000000002050000000FC1000089C13000872
:1013400050000020480400000C11000800E1F505E1
:101350000000000000000000010203040607080965
:10136000000000000102030401020304060708094B
:10137000000000000000000000000000000000006D
:10138000000000000000000000000000000000005D
:0C13900000000000000000000000000051
:04000005080001C925
:00000001FF
