:020000040800F2
:1000000020040020DD010008AD0300087D03000886
:10001000A90300084902000861050008000000006B
:10002000000000000000000000000000F5030008D0
:100030004D02000800000000AF030008BD040008E6
:10004000F7010008F7010008F7010008F7010008B0
:10005000F7010008F7010008F7010008F7010008A0
:10006000F7010008F7010008F7010008F701000890
:10007000F7010008F7010008F7010008F701000880
:10008000F7010008F7010008F70100080000000070
:10009000000000000000000000000000F701000860
:1000A000F7010008F7010008F7010008F701000850
:1000B000000000000000000000000000F701000840
:1000C000F7010008F7010008F7010008F701000830
:1000D000F7010008F7010008F70100080000000020
:1000E000F7010008F7010008000000000000000010
:1000F000000000000000000000000000F701000800
:100100000000000000000000F701000800000000EF
:100110000000000000000000F701000800000000DF
:10012000F7010008F7010008F7010008F7010008CF
:10013000F7010008000000000000000000000000BF
:1001400000000000000000000000000000000000AF
:10015000F7010008F7010008F7010008F70100089F
:10016000000000000000000000000000000000008F
:10017000000000000000000000000000000000007F
:10018000F7010008F701000800000000000000006F
:1001900000000000F701000800000000000000005F
:1001A000000000000000000000000000000000004F
:1001B000000000000000000000000000F70100083F
:1001C000F7010008F7010008DFF80CD000F02AF86A
:1001D00000480047850500082004002006488047A5
:1001E00006480047FEE7FEE7FEE7FEE7FEE7FEE71C
:1001F000FEE7FEE7FEE7FEE7C1040008C9010008CC
:1002000040EA01039B0703D009E008C9121F08C098
:10021000042AFAD203E011F8013B00F8013B521E18
:10022000F9D27047064C074D06E0E06840F0010344
:1002300094E8070098471034AC42F6D3FFF7C8FFA4
:10024000C4050008E405000800BFFEE7704710B5CC
:10025000044603E04FF47A7000F006F8201EA4F183
:100260000104F7D110BD00000146114A12884A432B
:100270004FF0E0235A6100229A611A46126942F057
:1002800001021A6100BF4FF0E022106900F0010284
:100290001AB100F48032002AF5D04FF0E022126942
:1002A00022F001024FF0E0231A6100229A617047A8
:1002B00014000020F0B50A4600210023002400BFEE
:1002C0003DE0012505FA01F3156805EA03049C42A7
:1002D00034D105684F000326BE40B543056015794B
:1002E0004E00B5400668354305601579012D02D0F2
:1002F0001579022D16D185684F000326BE40B543FF
:10030000856055794E00B5408668354385604568FF
:1003100001268E40B5434560456896798E40B6B259
:1003200035434560C5684F000326BE40B543C560F0
:10033000D5794E00B540C6683543C560491C1029C3
:10034000BFD3F0BD70B58AB005460E46002400BF8D
:100350000BE000BF012000F03BF80028FAD000F0CD
:1003600043F84DF82400601CC4B2AC42F1DB2822F3
:1003700069463046FFF744FF0AB070BD00BFFEE794
:100380001CB50121084600F013F820200090012040
:100390008DF8040002208DF8050069460148FFF73A
:1003A00089FF1CBD0000024000BFFEE77047704798
:1003B00029B1064A12680243044B1A6004E0034A5A
:1003C00012688243014B1A607047000030380240C7
:1003D00001460020034A12680A400AB1012000E0E9
:1003E000002070470408065001480068704700006C
:1003F00008080650704700002248006840F080500E
:10040000204908602048006840F440401E490860C8
:100410001C48383800681B493839086008460068AD
:1004200008600846006840F4805008601748091FBB
:100430000860081F006840F08070091F086000BF56
:1004400010484038006800F000700028F8D040F2F2
:1004500002700F4908600B483838006820F003002C
:100460000849383908600846006840F00200086012
:1004700000BF04483838006800F00C000828F8D1A4
:1004800070470000403802400070004010640107CF
:10049000003C0240042808D14FF0E021096941F0F6
:1004A00004014FF0E022116107E04FF0E0210969FB
:1004B00021F004014FF0E022116170477047000005
:1004C00010B51548006840F47000134908601348DF
:1004D000006840F001001149086000200F49083110
:1004E00008600E4800680E4908400C4908600D4835
:1004F000091D0860081F006820F48020091F08609B
:10050000002006490C310860FFF776FF4FF00060CD
:1005100001498039086010BD88ED00E000380240D4
:10052000FFFFF6FE1030002410B50420FFF7B2FFE5
:10053000074800680749B0FBF1F007490880084602
:1005400000884FF47A7148430449086010BD0000E8
:100550000000002040420F0014000020180000207E
:1005600000BFFEE702E008C8121F08C1002AFAD146
:1005700070477047002001E001C1121F002AFBD123
:10058000704700008AB0FFF7CFFFFFF7F9FE13E0D6
:1005900000200A4908604FF4FA70FFF758FE4FF048
:1005A000FF300749C1F894024FF4FA70FFF74FFE8D
:1005B00069460A20FFF7C6FEEAE7000094024042BF
:1005C00000004042E4050008000000201C0000007C
:1005D00064050008000600081C0000200404000058
:1005E0007405000800E1F5050000000000000000AF
:1005F00001020304060708090000000000000000D3
:04000005080001C925
:00000001FF
