:020000040800F2
:1000000080060020690200084D0400081D04000855
:100010004904000823030008DD0500080000000073
:100020000000000000000000000000007104000853
:1000300027030008000000004F04000839050008ED
:10004000830200088302000883020008830200087C
:10005000830200088302000883020008830200086C
:10006000830200088302000883020008830200085C
:10007000830200088302000883020008830200084C
:1000800083020008830200088302000800000000C9
:1000900000000000000000000000000083020008D3
:1000A000830200088302000883020008830200081C
:1000B00000000000000000000000000083020008B3
:1000C00083020008830200088302000883020008FC
:1000D0008302000883020008830200080000000079
:1000E00083020008830200080000000000000000F6
:1000F0000000000000000000000000008302000873
:100100000000000000000000830200080000000062
:100110000000000000000000830200080000000052
:10012000830200088302000883020008830200089B
:100130008302000800000000000000000000000032
:1001400000000000000000000000000000000000AF
:10015000830200088302000883020008830200086B
:10016000000000000000000000000000000000008F
:10017000000000000000000000000000000000007F
:100180008302000883020008000000000000000055
:1001900000000000830200080000000000000000D2
:1001A000000000000000000000000000000000004F
:1001B00000000000000000000000000083020008B2
:1001C000830200088302000800F002F800F03CF807
:1001D0000AA090E8000C82448344AAF10107DA45A2
:1001E00001D100F031F8AFF2090EBAE80F0013F0B8
:1001F000010F18BFFB1A43F0010318472404000045
:1002000044040000103A24BF78C878C1FAD85207D5
:1002100024BF30C830C144BF04680C607047000080
:100220000023002400250026103A28BF78C1FBD8FF
:10023000520728BF30C148BF0B6070471FB500F0A0
:10024000E9F91FBD10B510BD00F031F81146FFF7F8
:10025000F5FF00F0C5F900F04FF803B4FFF7F2FF27
:1002600003BC00F057F800000948804709480047E0
:10027000FEE7FEE7FEE7FEE7FEE7FEE7FEE7FEE756
:10028000FEE7FEE704480549054A064B70470000B3
:100290003D050008C90100088000002080060020FC
:1002A000800200208002002070477047704775462A
:1002B00000F02CF8AE4605006946534620F00700D2
:1002C000854618B020B5FFF7DDFFBDE820404FF0B0
:1002D00000064FF000074FF000084FF0000B21F030
:1002E0000701AC46ACE8C009ACE8C009ACE8C009FD
:1002F000ACE8C0098D46704710B50446AFF30080E6
:100300002046BDE81040FFF7A8BF00000048704736
:100310001C00002001491820ABBEFEE726000200A9
:10032000704700BFFEE7704710B5044603E04FF486
:100330007A7000F005F8201EA4F10104F7D110BD79
:100340000146114A12884A434FF0E0235A610022C5
:100350009A611A46126942F001021A6100BF4FF019
:10036000E022106900F001021AB100F48032002A84
:10037000F5D04FF0E022126922F001024FF0E023A5
:100380001A6100229A61704714000020F0B50A46F5
:1003900000210023002400BF3DE0012505FA01F300
:1003A000156805EA03049C4234D105684F00032612
:1003B000BE40B543056015794E00B540066835432B
:1003C00005601579012D02D01579022D16D18568A9
:1003D0004F000326BE40B543856055794E00B540B9
:1003E000866835438560456801268E40B543456083
:1003F000456896798E40B6B235434560C5684F0072
:100400000326BE40B543C560D5794E00B540C668E9
:100410003543C560491C1029BFD3F0BD00BFFEE7BE
:100420001CB50121084600F013F82020009001209F
:100430008DF8040002208DF8050069460148FFF799
:10044000A5FF1CBD0000024000BFFEE770477047DB
:1004500029B1064A12680243044B1A6004E0034AB9
:1004600012688243014B1A60704700003038024026
:10047000704700002248006840F080502049086022
:100480002048006840F440401E4908601C48383845
:1004900000681B493839086008460068086008464B
:1004A000006840F4805008601748091F0860081F62
:1004B000006840F08070091F086000BF1048403895
:1004C000006800F000700028F8D040F202700F4978
:1004D00008600B483838006820F0030008493839B4
:1004E00008600846006840F00200086000BF044849
:1004F0003838006800F00C000828F8D17047000078
:10050000403802400070004010640107003C024087
:10051000042808D14FF0E021096941F004014FF0AF
:10052000E022116107E04FF0E021096921F00401A8
:100530004FF0E022116170477047000010B5154878
:10054000006840F47000134908601348006840F0E8
:1005500001001149086000200F49083108600E4869
:1005600000680E4908400C4908600D48091D0860E4
:10057000081F006820F48020091F08600020064939
:100580000C310860FFF776FF4FF0006001498039B9
:10059000086010BD88ED00E000380240FFFFF6FE65
:1005A0001030002410B50420FFF7B2FF07480068A0
:1005B0000749B0FBF1F007490880084600884FF46E
:1005C0007A7148430449086010BD00000000002013
:1005D00040420F00140000201800002000BFFEE77A
:1005E000FFF7E0FFFFF71CFF0FE00020074908605E
:1005F0004FF4FA70FFF798FE4FF0FF300449C1F84E
:1006000094024FF4FA70FFF78FFEEEE79402404237
:10061000000040424FF04070E1EE100A70470000C9
:1006200040060008000000201C0000000402000832
:100630005C0600081C000020640600002002000880
:1006400000E1F505000000000000000001020304C5
:0C06500006070809000000000000000080
:04000005080001C925
:00000001FF
