:020000040800F2
:10000000F01400209D0100087F1D0008FD19000864
:100010007D1D000823030008E53F000800000000E4
:100020000000000000000000000000000D28000893
:100030002503000800000000FB1E00081928000826
:10004000B7010008B7010008B7010008B7010008B0
:10005000B7010008B7010008B7010008B7010008A0
:10006000B7010008B7010008B7010008B701000890
:10007000B7010008B7010008B7010008B701000880
:10008000B7010008B7010008B7010008B701000870
:10009000B7010008B7010008B7010008B701000860
:1000A000B7010008B7010008B7010008B701000850
:1000B000B7010008B7010008B7010008B701000840
:1000C000B7010008B7010008B7010008B701000830
:1000D000B7010008B7010008B7010008B701000820
:1000E000B7010008B7010008B7010008B701000810
:1000F000B7010008B7010008B7010008B701000800
:10010000B7010008B7010008B7010008B7010008EF
:10011000B7010008B7010008B7010008B7010008DF
:10012000B7010008B7010008B7010008B7010008CF
:10013000B7010008B7010008B7010008B7010008BF
:10014000B7010008B7010008B7010008811D0008C9
:10015000B7010008B7010008B7010008B70100089F
:10016000B7010008B7010008B7010008B70100088F
:10017000B7010008B7010008B7010008000000003F
:10018000B7010008B7010008DFF80CD000F08CF8C8
:100190000048004775400008F014002006488047DA
:1001A00006480047FEE7FEE7FEE7FEE7FEE7FEE75C
:1001B000FEE7FEE7FEE7FEE7B12800088901000838
:1001C0002DE9F05F0546002092469B46884606468C
:1001D000814640241BE0284641464746224600F01F
:1001E00053F853465A46C01A914110D31146184647
:1001F000224600F03AF82D1A67EB01084F462246D6
:100200000120002100F031F817EB00094E41201EBB
:10021000A4F10104DFDC484631462A464346BDE8E6
:10022000F09F40EA01039B0703D009E008C9121FB1
:1002300008C0042AFAD203E011F8013B00F8013BA0
:10024000521EF9D27047D2B201E000F8012B491ECC
:10025000FBD270470022F6E710B513460A46044663
:100260001946FFF7F0FF204610BD202A04DB203A94
:1002700000FA02F1002070479140C2F1200320FAF9
:1002800003F3194390407047202A04DB203A21FAF7
:1002900002F00021704721FA02F3D040C2F120029F
:1002A0009140084319467047064C074D06E0E06848
:1002B00040F0010394E8070098471034AC42F6D3AD
:1002C000FFF766FF344100085441000870B58C18F0
:1002D00010F8015B15F0070301D110F8013B2A115A
:1002E00006D110F8012B03E010F8016B01F8016B47
:1002F0005B1EF9D12B0705D40023521E0DD401F843
:10030000013BFAE710F8013BCB1A921C03E013F80B
:10031000015B01F8015B521EF9D5A142D8D3002040
:1003200070BDFEE7704772B6FEE700002DE9F843A6
:1003300088460746002500F035F90446002607EBFD
:100340000800401E009600F02DF90D4F001B401CC8
:10035000F86000F0F7F90B49F32008600A480660DE
:100360008460F968C16002210161694600F056F9B4
:1003700000B9012500F09EF92846BDE8F883000089
:10038000000000200C3C0240D0010020002229B1D6
:1003900001291AD002291BD04FF440720E490B6874
:1003A00023F440730B600B6813430B600A6822F060
:1003B000F8020A600A68022303EBC00002430A60E5
:1003C000086840F48030086070474FF48072E5E7B9
:1003D0004FF40072E2E70000103C0240134801684D
:1003E00089050FD5016821F400710160016841F4AD
:1003F00000610160016821F400610160016841F45D
:1004000000710160016849050FD5016821F4806120
:100410000160016841F480510160016821F480515C
:100420000160016841F4806101607047003C024056
:1004300008490A6822F440720A600A6842F004021D
:100440000A600A684FF4803343EA002002430A60DE
:1004500070470000103C0240064A136823F44073C2
:10046000136013681360136843F001031360017095
:1004700070470000103C0240094910B50C6824F494
:1004800040740C600C6844F440740C600C6844F0D8
:1004900001040C600260BFF36F8F436010BD000069
:1004A000103C0240074A136823F44073136013683A
:1004B00043F480731360136843F0010313600180F9
:1004C00070470000103C0240074A136823F4407351
:1004D0001360136843F400731360136843F001035F
:1004E0001360016070470000103C02401749086823
:1004F000C206174805D5C26942F01002C261102237
:100500000A600A68920605D5C26942F00802C26113
:1005100020220A600A68520605D5C26942F0040228
:10052000C26140220A600A68120605D5C26942F01B
:100530000202C26180220A600A68920705D5C26978
:1005400042F02002C2610220086070470C3C024069
:10055000D00A002070B5114904460020C86100F09F
:10056000E3F906460E4D09E0601C07D024B100F007
:10057000DBF9801BA04201D9032070BD2868C003AD
:10058000F2D42868C00701D001202860286810F044
:10059000F200F2D0FFF7AAFF012070BDD00A0020C0
:1005A0000C3C02400021A0F100634FF480429342D2
:1005B00017D30D4B0344934201D2012111E00B4BA1
:1005C0000344934201D202210BE0094B03449342BE
:1005D00001D2032105E0074A1044B0F5803F00D264
:1005E000042108467047000000C0FFF70080FFF7B5
:1005F0000040FFF70000FFF770B5044600F094F9E3
:100600000546601C02D004480078044400F08CF9D0
:10061000401BA042FAD370BD900000202DE9F047A6
:10062000044622480F46017E01290AD00121804656
:1006300001764CF250394846FFF78CFF020003D098
:100640002FE00220BDE8F0874FF0FF3038602068CF
:10065000174D012801D0A6681CE0207C6168FFF7D7
:10066000E7FE4846FFF776FF0246286820F00400C0
:10067000286014E0217C3046FFF788FE4846FFF7EB
:1006800069FF0200286820F0FA00286001D03E606F
:1006900005E0761CD4E902100844B042EAD8FFF71E
:1006A0009DFE002188F818101046CBE7D00A0020E4
:1006B000103C02400348016841F000410160002005
:1006C00070470000103C02402DE9F0471B4E0546E4
:1006D0001446307E1F468946012808D00120307616
:1006E0004CF250384046FFF735FF18B114E00220B5
:1006F000BDE8F0879DB1012D16D0022D19D02246FC
:100700003B464846FFF7B8FE4046FFF723FF0C493B
:100710000A6822F001020A6000213176E8E7E1B2BE
:100720004846FFF799FEEFE7A1B24846FFF7BAFE49
:10073000EAE721464846FFF7C7FEE5E7D00A002072
:10074000103C0240074900200A68002A09DA054ADD
:10075000054B0C3A1360054B13600968002900DA59
:1007600001207047103C024023016745AB89EFCD63
:100770002DE9F84F00224FF0010803254FF00F0E2E
:100780000B6808FA02F42340A3426ED14E68012E92
:1007900005D0022E03D0112E01D0122E12D1866860
:1007A0004FEA420C05FA0CF7BE43CF6807FA0CF784
:1007B000374387604668A6430C79C4F3001494401D
:1007C00034434460C668570005FA07FC8C6826EA83
:1007D0000C06BC403443C4604C68022C01D0122C7F
:1007E00013D1D40800EB8404A346D4F82090540716
:1007F0004FEAD46A0EFA0AF629EA06090E6906FAE1
:100800000AF646EA0906CBF8206006680C7926EA63
:100810000C0604F00304BC40344304604C68E4005C
:1008200065D5364C266846F480462660246822F05A
:10083000030604F480440094314C3444A446D4F8B4
:1008400008489607370F0EFA07F6B4432D4EB0420C
:1008500001D1002624E02C4EB04201D101261FE038
:100860002A4EB04202D102261AE040E0284EB042A1
:1008700001D1032614E0274EB04201D104260FE037
:10088000254EB04201D105260AE0244EB04201D1E6
:10089000062605E0224EB04201D1072600E00826D8
:1008A000BE402643CCF808681E4E34684F689C430F
:1008B000FF0300D51C4334601A4C241D26684F6882
:1008C0009E43BF0300D51E432660164E083634688B
:1008D0004F689C43FF0200D51C433460114E0C3618
:1008E00034684F689C43BF0200D51C433460521CDF
:1008F000102AFFF445AFBDE8F88F000044380240ED
:1009000000300140000002400004024000080240A4
:10091000000C024000100240001402400018024087
:10092000001C0240003C0140014880687047000004
:10093000900000200248816802781144816070476D
:10094000900000200B4810B5016841F4007101606F
:10095000016841F480610160016841F480710160C7
:10096000032000F06FF8002000F006F800F024F8F3
:10097000002010BD003C024070B50D4D04464FF400
:100980007A712878B1FBF0F00A490968B1FBF0F000
:1009900000F0BAFF48B9102C07D200222146501EA1
:1009A00000F030F800206C6070BD012070BD0000C8
:1009B000900000209C0000200A4808B5016841F41E
:1009C00080410160006800F4804000900548001FED
:1009D000016841F080510160006800F08050009093
:1009E00008BD000044380240002809DB00F01F0267
:1009F000012191404009800000F1E020C0F8001181
:100A000070470000F0B40E4B1B680C46C3F3022382
:100A1000C3F10705042D00D90425191D072901D2AA
:100A2000002300E0DB1E012606FA05F1491E2140E5
:100A300099409E40761E16403143F0BC03F0D3BA75
:100A40000CED00E0064900F0070208684FF6FF03CE
:100A5000184040EA0220034A104308607047000033
:100A60000CED00E00000FA057047006841620020CC
:100A70007047F0B50368586A39B19C6A4FF48276C2
:100A800000EB144400204D1E0AE040EA0240986248
:100A90000FE006EB8007DF59401C04EB1744C0B29F
:100AA000A842F6D344EA02404FF4807202EB81017F
:100AB00058500020F0BDD0F8040402F0AEB9C1EBEC
:100AC000C10200EB8202D0F80404926C02F019B962
:100AD000C1EBC10200EB8202D0F80404D2F8082274
:100AE00002F064B9D0F8040402F099B970B5044674
:100AF0000B0601F00F00C0EBC00104EB81014FF0C9
:100B000001024FF0000503D581F83D203C3103E0A0
:100B100081F8FD5101F5FE71087094F8BC030128BD
:100B200008D084F8BC23206802F0F4FD84F8BC539C
:100B3000002070BD022070BD70B5044601F00F00AA
:100B40006268904201D9012070BD0B0601F00F01CF
:100B5000C1EBC10104EB81014FF001024FF0000530
:100B600003D581F83D203C3103E081F8FD5101F5CA
:100B7000FE718D70087094F8BC03012808D084F8C9
:100B8000BC23206802F0C0FF84F8BC53002070BD75
:100B9000022070BD10B5044690F8BC0301280AD0AD
:100BA000012084F8BC03080607D501F00F01206876
:100BB00003F00CF904E0022010BD206803F0F6F801
:100BC000002084F8BC0310BD01F00F01C1EBC1018E
:100BD00000EB8100D0F8140270472DE9F041044683
:100BE0000F0601F00F00C0EBC00104EB81014FF0D4
:100BF00001064FF0000503D581F83D603C3103E06C
:100C000081F8FD5101F5FE7108708A60CB704A7859
:100C100002B1C880022B00D10D7194F8BC030128E9
:100C200009D084F8BC63206802F0D0FC284684F820
:100C3000BC53BDE8F0810220FBE770B50C4601F023
:100C40000F05C5EBC50100EB8101C1F81032C1F8F9
:100C500008220023C1F8143281F8FD3181F8FC51DB
:100C6000036901F5FE71012B00D10A612207027CA4
:100C7000006803D002F0A0FF002070BD02F08CFEDF
:100C8000FAE770B504460D4601F00F00616888422E
:100C900001D9012070BD29064FF000064FF0010276
:100CA00007D5C0EBC00104EB810181F83D203C3148
:100CB00007E0C5EBC50104EB810181F8FD6101F599
:100CC000FE718A70087094F8BC03012807D084F87C
:100CD000BC23206802F044FF280702D007E002206E
:100CE00070BD217C04F57172206802F0E1FE84F889
:100CF000BC63002070BD70B50C4601F00F05C5EB5C
:100D0000C50100EB81010B658A6400234B6501235B
:100D100081F83D3001F83C5F0369012B00D10A6185
:100D20002207027C006803D002F046FF002070BD5D
:100D300002F032FEFAE700002DE9FC5F0568044688
:100D4000284603F062F800287ED1206803F089F875
:100D5000002879D0206803F084F8800704D5216842
:100D6000486900F002004861206803F07AF8C10683
:100D700004F57170009034D52068816921F010016C
:100D800081612F6A07F00F00C0EBC00004EB800602
:100D9000C7F3434006F5FE76022802D0062811D09C
:100DA0001AE047F6F070074216D0C7F30A1217464A
:100DB0002846F16803F059F8F0683844F060B069EB
:100DC000384408E008222846009903F04EF8B0693C
:100DD000C7F30A110844B0612068816941F010012D
:100DE0008161206803F03DF800034FF0010A4FF0E5
:100DF000080B5BD50026206803F012F80746DFF8E1
:100E0000689351E0F8074DD0F1B2206803F021F863
:100E10008046C00707D005EB4611C1F808AB314644
:100E2000204600F0B3FF5FEA087022D505EB4611BB
:100E3000C1F808BB2068016C00EB46100191D0F8A6
:100E4000082B494507D900E08BE1110403D54FF485
:100E50000041C0F8081B204600F076FA019848458A
:100E600007D92069012804D120680121009A02F0E5
:100E70001FFE5FEAC86004D505EB46111020C1F8DB
:100E8000080B5FEA886004D505EB46112020C1F805
:100E9000080B5FEA884005D505EB46104FF400517A
:100EA000C0F8081B7F08761C002FABD1206802F029
:100EB000D8FF40034FF000095CD5206802F0A9FF7D
:100EC0000746002654E0F80750D0F1B2206802F03F
:100ED000AEFF8046C00723D006F00F020AFA02F0E8
:100EE000D5F834288243C5F8342805EB4610C0F8FD
:100EF00008A9206901280FD1C6EBC60004EB8000C9
:100F0000D0E911211144816436B9206D20B92068DF
:100F10000121009A02F0CCFDF1B22046FFF7CFFD8F
:100F20005FEA087003D505EB4611C1F808B95FEA1E
:100F3000C86004D505EB46111020C1F808095FEA26
:100F4000486004D505EB46114020C1F808095FEA66
:100F5000887004D505EB46110220C1F808095FEA44
:100F6000086003D53146204600F076FF7F08761CE6
:100F7000002FA8D1206802F074FF002811DAD5F8FC
:100F8000040820F00100C5F8040894F8F4030128CF
:100F900029D0204600F0BCF92068416901F00041E9
:100FA0004161206802F05DFF00050BD5D5F8080807
:100FB000C00702D0204600F0EFF92068416901F433
:100FC00000614161206802F04CFFC00468D5D5F88B
:100FD000040820F00100C5F804081021206802F080
:100FE000F5FE002127E084F8F49300212046FFF766
:100FF0003BFDD1E705EB41104FF67F32C0F80829E1
:10100000D0F8003923F40013C0F80039D0F80039C3
:1010100043F00063C0F80039C0F8082BD0F8002B6B
:1010200022F40012C0F8002BD0F8002B42F000622E
:10103000C0F8002B491C60688842DBD8D5F81C0832
:1010400040F00110C5F81C08206B60B1D5F8840889
:1010500040F00B00C5F88408D5F8440840F00B00B8
:10106000C5F844080CE0D5F8141842F22B000143EF
:10107000C5F81418D5F8100840F00B00C5F8100892
:10108000D5F8000820F4FE60C5F80008217C20682F
:10109000009A02F00DFD2068416901F48051416120
:1010A000206802F0DEFE800415D5206802F0CEFA3A
:1010B000206802F09DFEE06000F020FA0146227BED
:1010C000206802F009FF204600F00CF92068416911
:1010D00001F400514161206802F0C3FE000707D50A
:1010E000204600F019F92068416901F008014161CA
:1010F000206802F0B6FEC00208D50021204600F0AC
:1011000035F82068416901F480114161206802F0DE
:10111000A8FE800208D50021204600F02BF82068A8
:10112000416901F400114161206802F09AFE40001B
:1011300007D52046FFF7BFFC2068416901F08041D8
:101140004161206802F08DFE40070AD5206845689D
:10115000680702D52046FFF7C5FC2068416829438F
:101160004160BDE8FC9F00000A30544FD0F80404F1
:1011700001F0AEBED0F8040401F0ACBE2DE9F041A0
:101180008AB0040005D094F8BD032668002520B17C
:1011900008E001200AB0BDE8F08184F8BC53204685
:1011A00000F05EF8032084F8BD03F06BC00500D4A6
:1011B0002561206802F0EAFB04F11001282288462C
:1011C0006846FFF72EF894E80F0002F04DFA022669
:1011D000C8BB0021206802F056FE002001270EE067
:1011E000C0EBC00104EB810181F83D7001F83C0FB8
:1011F000C880CD708D60CD60401CC0B24D6161680B
:101200008142EDD8002011E0C0EBC00104EB810168
:1012100081F8FD5181F8FC0181F8FF51C1F80452B9
:10122000C1F80852401CC0B2C1F810526168814236
:10123000EAD8282241466846FEF7F3FF94E80F00FB
:1012400002F0EAFA10B184F8BD63A2E784F83850DE
:1012500084F8BD73206802F0D1FA00209AE70000FC
:1012600010B586B0044614216846FEF7F3FF2068E7
:10127000B0F1A04F2FD119480021026842F00102BD
:101280000260006800F0010005904FF4C05000902B
:101290000220CDE90101032003900A200490694651
:1012A0000F48FFF765FA0D48001D016841F0800105
:1012B00001600A481430016841F48041016000680F
:1012C000002200F48040059011464320FFF79AFB6E
:1012D0004320FFF789FB06B010BD00003038024004
:1012E0000000024070B50446C068012570B10228B4
:1012F00001D0FFF718F82946D4F8040401F040FEA5
:10130000D4F80404BDE8704001F0FBBD0025F2E70D
:10131000D0F8040401F01EBED0F8040401F024BE8D
:1013200010B5044690F8BC0301280BD0012084F8C6
:10133000BC0384F83810206802F0BCFD002084F85B
:10134000BC0310BD022010BDD0F8042400F571715B
:10135000104601F021BE10B50446006894F8BC1395
:10136000012906D0012184F8BC13A16A012902D009
:1013700008E0022010BDA169012903D0816B41F46E
:1013800080318163206802F00BFD206802F028FAAA
:10139000002084F8BC0310BD10B50446D0F8040446
:1013A00001F03CFE2068D0F8001E41F00101C0F8B9
:1013B000001E206A002804D00248016841F006019E
:1013C000016010BD10ED00E02DE9F0470E4605006C
:1013D00065D0DFF81481D8F80000F7B200F00F00F4
:1013E000B04207D288F80070D8F8000000F00F0073
:1013F000B04254D128683D4C810712D5400703D52F
:10140000206840F4E05020602878000703D5206869
:1014100040F4604020602068A96820F0F000084394
:1014200020602878C0072DD0304968680839012825
:1014300012D0022813D0032811D009688907002987
:101440002DDA216821F0030101432160FFF76CFAD6
:10145000814641F2883A0EE009688903EFE709689E
:101460008901ECE7FFF760FAA0EB0901514502D9C9
:101470000320BDE8F0872068696800F00C00B0EB3D
:10148000810FEFD1D8F80010404601F00F01B142B2
:1014900007D90770006800F00F00B04201D00120AA
:1014A000E7E72878400705D52068E96820F4E05090
:1014B000084320602878000706D52068296920F4B1
:1014C000604040EAC100206000F03EF82168084A10
:1014D000C1F30311515CC840064908600648006822
:1014E000FFF74AFA0020C4E7003C024008380240F7
:1014F0001C4100089C000020940000200148006866
:10150000704700009C0000200448054900680968F5
:10151000044AC1F38221515CC84070479C000020FE
:10152000083802402C410008044805490068096851
:10153000044AC1F34231515CC84070479C0000200E
:10154000083802402C410008154810B5006810F01A
:101550000C02144813D01449042A0FD0082A0ED1C3
:101560000F4C241F2268236802F03F025B0207D55C
:101570002068C0F38810A0FB010106E0084610BDFA
:101580002168C1F38811A1FB00010023FEF718FEBA
:101590002168C1F30141491C4900B0FBF1F010BDC5
:1015A000083802400024F40040787D012DE9F84F0E
:1015B00004006ED02078DFF83C93C007A9F1040541
:1015C0004AD009F104000168C1F38101012908D062
:1015D0000068C0F3810002280AD1D9F80000400257
:1015E00006D52868800337D560680028E1D033E04D
:1015F0006068B0F5803F10D0B0F5A02F286810D0FB
:1016000020F480302860286820F4802028606068FA
:10161000A8B1FFF789F906460DE0286840F480304C
:10162000F4E740F480202860F7E700BFFFF77CF97B
:10163000801B642873D828688003F7D50CE0FFF777
:1016400073F9064605E000BFFFF76EF9801B6428BA
:10165000F0D828688003F7D42078DFF89C828007D0
:101660004FF0000A3ED5A348001D016811F00C0F91
:1016700008D00068C0F3810002280BD1D9F800001F
:10168000400207D42868800716D5E068012800D1F9
:1016900012E02BE1E068B8B10120C8F80000FFF7C4
:1016A00043F9064605E000BFFFF73EF9801B02281C
:1016B000C0D828688007F7D52868216920F0F8008D
:1016C00040EAC10028600DE0C8F800A0FFF72CF93F
:1016D000064604E0FFF728F9801B02281FD8286877
:1016E0008007F7D42078000722D5824E83486169AD
:1016F000703671B101210160FFF716F9074604E069
:10170000FFF712F9C01B022809D830688007F7D507
:101710000EE0C0F800A0FFF707F9074605E082E0F9
:10172000FFF702F9C01B02287DD830688007F7D484
:101730002078400768D5DFF8BCB100270BF13C0BDF
:10174000DBF80000C0000BD4DBF8001041F0805142
:10175000CBF80010DBF80000012700F0805000906B
:10176000674E3068C00510D4306840F48070306037
:10177000FFF7DAF8009005E0FFF7D6F80099401A75
:10178000022850D83068C005F6D55A4EA0686C368D
:1017900001280FD00528306810D020F001003060FB
:1017A000306820F004003060A068B8B1FFF7BCF8E2
:1017B00000900FE0306840F00100F4E740F00400D2
:1017C0003060F7E7FFF7B0F80099411A41F288302E
:1017D000814266D830688007F4D50EE0FFF7A4F8A0
:1017E000009007E0FFF7A0F80099411A41F2883015
:1017F000814256D830688007F4D42FB1DBF800104E
:1018000021F08051CBF80010A069C8B33949091DF7
:101810000968C1F3810102294AD00228504607D045
:10182000C8F8600000E03CE0FFF77EF804463BE0CB
:101830004746C8F86000FFF777F8064605E000BFA6
:10184000FFF772F8801B02282BD828688001F7D494
:10185000D4E907010843A16A2A4A490802EB014179
:10186000626A41EA8211084394F82C1040EA01614F
:10187000C9F8001001203866FFF756F8044606E064
:1018800036E000BFFFF750F8001B022809D828688F
:101890008001F7D52CE000BFFFF746F8001B0228B7
:1018A00002D90320BDE8F88F28688001F4D41FE036
:1018B0000128F7D0D9F80000E26900F480019142D4
:1018C00014D1226A00F03F0191420FD147F6C07156
:1018D000626A0140914209D1A26A00F4403191420A
:1018E00004D1E16A00F07060884201D00120D9E79C
:1018F0000020D7E70438024000004742800E4742EC
:10190000007000400000FFFF10B5401EB0F1807F66
:1019100001D3012010BD4FF0E02460610F2160175A
:1019200002F061FB0020A06107202061002010BDB3
:1019300070B5040004D094F83900002510B106E019
:10194000012070BD84F83850204600F023F8242090
:1019500084F839002068C16821F40051C160204634
:1019600000F0B4FF2068016921F490410161206812
:10197000416921F02A0141612068C16841F40051A8
:10198000C160E563202084F8390084F83A00002023
:1019900070BD000010B586B0044614216846FEF7FD
:1019A00059FC13492068884220D11248002102685E
:1019B00042F400320260006800F4003005900D48E7
:1019C0001038026842F008020260006800F0080067
:1019D0000590602000900220CDE9010103200390D2
:1019E0000720049069460448FEF7C2FE06B010BD09
:1019F0000044004040380240000C0240FEE7000076
:101A0000F0B500230A24302537261F4611E000BF19
:101A1000B4EB107F02D905EB107C01E006EB107CE3
:101A200001F813C001EB430C00015B1C8CF8017042
:101A3000DBB29342ECD3F0BD70B5D0F8BC420546A2
:101A400094F81C0240B9D4F8180228B1607A18B989
:101A50000121284601F0D0FA8121284601F0CCFA74
:101A6000607A022809D18121284601F0C5FA28466A
:101A7000BDE87040012101F0BFBA70BD70B5D0F86B
:101A8000BC4205460121D4F81402C4F83402D4F84B
:101A90001802C4F83802284601F0D6F91F280DD1E3
:101AA0002849D4F81002884208D194F81D1201295F
:101AB00004D894F81E0208B1102809D994F81D1210
:101AC00020230522284600F068FD0220607209E00C
:101AD00004F21F22284600F05DFA0028207A08DA76
:101AE000052804D02846BDE87040FFF7A5BF0121B6
:101AF00021E0022824D0012822D0032820D0E66843
:101B0000C6B1D5F8BC12284604F11002D1F818323B
:101B1000B34200D33346D1F83842A41BC1F838424F
:101B2000002481F83C4204240C72BDE870408121FD
:101B300001F07DBA00212846BDE8704000F09CB855
:101B400070BD00005553424310B50446D0F8BC02A6
:101B5000407A022809D0090611D501280FD0204665
:101B6000BDE81040012100F087B88121204601F036
:101B700043FA2046BDE81040012101F03DBA10BDF6
:101B800010B5D0F8BC220446107A022805D00328EC
:101B900001D0042810D1002109E092F81D1220463E
:101BA00002F21F2200F0F6F9002805DA0121204692
:101BB000BDE8104000F060B810BD10B5D0F8BC22F0
:101BC0000446107A80B1012813D192F81D122046E4
:101BD00002F21F2200F0DEF900280ADA2046BDE8F2
:101BE0001040012100F048B82046BDE81040FFF742
:101BF00045BF10BDD0F8BC0200210172704770B51E
:101C0000D0F8BC42002105462172617284F861124D
:101C100084F8601284F86212D0F8C00201680020D3
:101C200088470121284601F006F98121284601F064
:101C300002F904F504722846BDE870401F23012113
:101C400001F056B970B5D0F8BC42054600202072AC
:101C5000012060728121284601F041F801212846C7
:101C600001F03DF804F504722846BDE870401F23DA
:101C7000012101F03DB9000070B5D0F8BC42054625
:101C80000B48C4F8300284F83C12002020720D2367
:101C900004F50C728121284601F0C9F904F504729B
:101CA0002846BDE870401F23012101F021B9000042
:101CB000555342530D4808B5016841F08001016059
:101CC000016801F080010091016841F001010160AB
:101CD000016801F001010091016841F00801016013
:101CE000006800F00800009008BD00003038024095
:101CF0000C4810B50A4901604FF4E1314160002100
:101D000081600C22C160C0E904128161C161FFF7EA
:101D10000FFE002803D0BDE81040FEF704BB10BD45
:101D2000004400409001002010B500220F491048E7
:101D300000F0BBFF08B1FEF7F6FA0E490C4801F0BF
:101D40006FFA08B1FEF7EFFA0B49094801F0E5F91F
:101D500008B1FEF7E8FA064801F0DCFA002803D0E3
:101D6000BDE81040FEF7DFBA10BD000020000020E3
:101D7000F8010020A400002070000020FEE7FEE72C
:101D80000148FEF7D9BF0000C80600202DE9F04148
:101D900003680D4604461E6C03EB4511D1F8080B91
:101DA000D4F810E04FF400474FF0200C04F57172A6
:101DB000BEF1010F09D0DFF898E0764539D1020471
:101DC00032D500BFC1F8087B3FE0224B5FEA007EBE
:101DD00004D59E4239D90004F4D436E05FEA806E1F
:101DE00002D5C1F808CB30E010F0280F2DD19E426B
:101DF00001D90004E6D4C5EBC50004EB8000D1F89E
:101E0000101BD0F80432C1F31201591AC0F8141291
:101E1000D0F808121944C0F8081295B9D4F8100285
:101E200078B9012120680AE080060AD5C1F808CBFC
:101E300007E035B9D4F8100218B90021184601F0AE
:101E400037FEE9B22046FEF743FE0020BDE8F081F0
:101E50000A31544F0A30544F2DE9F84F0E46C1EB6A
:101E6000C60100EB810481460568D4E914103C34B6
:101E7000884202D90120BDE8F88F081AA168814282
:101E800000D20846C01C870805EB46181BE000BFBF
:101E9000A0EB010AA068504500D282460AF1030077
:101EA000870899F8100000901FFA8AF3F2B22846CA
:101EB000E16802F085F8E16801EB0A00E060A169E1
:101EC00001EB0A00A061D8F8180980B2B84205D326
:101ED000D4E90501814201D20028D9D1D4E9050114
:101EE000884208D806F00F0101208840D5F8341840
:101EF0008143C5F834180020BDE7704710B5D0F80D
:101F0000BC421A44D4F868329A4206D921230522E9
:101F100000F043FB4FF0FF3010BD002010BD00006B
:101F200070B50446D0F8BC0213464FF0FF35D0F828
:101F300018227AB15A78D20716D0997871B18029CF
:101F40000FD090F81D1224230522204600F025FB17
:101F5000284670BD90F81D122023F5E706220B4994
:101F60000FE008220A490CE0D4F8C02201EBC101BD
:101F70001B79D26902EB81010A79521D934200D884
:101F80001A4600F02AFB002070BD00004601002028
:101F90004C0100202DE9F04713780025D0F8BC4211
:101FA0004FF0FF364FF00208252B72D00FDC1A2BB2
:101FB00074D005DC13B3032B45D0122B17D146E0A8
:101FC0001B2B48D01E2B5ED0232B10D180E05A2B28
:101FD0006DD006DC282B76D02A2B75D02F2B06D17E
:101FE00092E09E2B7CD0A82B70D0AA2B6FD0202300
:101FF000052200F0D2FA84F809801EE00746D4F8E2
:102000001802884628B1202394F81D12052238466C
:102010007FE094F862024FF00509022810D0D7F84B
:10202000C00281684046884740B33A2302224146B5
:10203000384600F0B2FA84F808903046BDE8F087E0
:102040003A230222F4E7BDE8F04700F069BABDE8A0
:10205000F047FFF765BF94F86232012B04D1137982
:1020600003F00303022B52D0117901F00300012881
:1020700011D0022804D0C84380070CD0E56020E0CE
:1020800084F86282FAE7107928B1012084F86202AC
:10209000F4E721E002E084F86252EFE712791721B9
:1020A0002046172A00D811460A46204907E0117A2F
:1020B0001B2320461B2900D80B461A461C4900F05A
:1020C0008CFA2846BAE70FE016E009E010E017E0C6
:1020D000BDE8F04700F0EDB9BDE8F04700F071B998
:1020E000BDE8F04700F09CB9BDE8F04700F0BEB88D
:1020F000BDE8F04700F00EB9BDE8F04700F079BA4E
:10210000BDE8F04700F0D7BA5278920704D52423EF
:10211000052200F042FA90E7D4E99B23FFF7EEFE98
:1021200000288ADB2846E56088E70000540100208B
:102130006B0100202DE9F041D0F8BC4206460F4665
:10214000B4F86402D4F870524FF4007145438D42E4
:1021500000D30D46B5FBF0F083B2D6F8C00204F10F
:102160001001D4F86C22D0F810C088463846E047F9
:10217000002809DA112304223946304600F00DFA0E
:102180004FF0FF30BDE8F0812B46424681213046BA
:1021900000F04DFFB4F86402D4F86C22B5FBF0F106
:1021A000B5FBF0F01144C4F86C12D4F87012081AA0
:1021B000C4F87002D4F83812A1EB0501C4F8381243
:1021C00001D1032020720020DCE72DE9F047D0F890
:1021D000BC4207464FF40075B4F86402D4F870624C
:1021E00088464643AE4200D32E46B6FBF0F083B29B
:1021F000D7F8C00204F11001D4F86C22D0F814C052
:1022000089464046E047002809DA03230422414674
:10221000384600F0C2F94FF0FF30BDE8F087B4F85F
:102220006402D4F86C22B6FBF0F11144C4F86C12CD
:10223000B6FBF0F1D4F87022531AC4F87032D4F817
:102240003812A1EB0601C4F838120AD04343AB425E
:1022500000D32B464A460121384600F049FE0020B3
:10226000DBE700213846FFF707FDF8E72DE9F041ED
:10227000D0F8BC4206461546207A884680BB94F8C2
:102280001C024FF0FF37000634D594F86202022892
:1022900009D0D6F8C00281684046884748B13A2341
:1022A0000222414601E03A230222304600F075F94D
:1022B00013E0D5F80200414600BA20F0FF02687929
:1022C0000243C4F86C22B5F8070043BA3046C4F89C
:1022D0007032FFF713FE002803DA3846BDE8F081BC
:1022E0000FE0B4F86412D4F870024843D4F818121E
:1022F000884204D0202394F81D120522D5E702203D
:1023000020724FF40070E06041463046BDE8F04175
:10231000FFF710BF2DE9F041D0F8BC420646154644
:10232000207A884698BB94F81C024FF0FF370006CD
:1023300037D594F86202022809D0D6F8C002816825
:102340004046884748B13A230222414601E03A23F9
:102350000222304600F021F916E055F8020F4146FE
:1023600000BA20F0FF02E8780243C4F86C226868E3
:1023700000BA20F0FF03E87903433046C4F8703216
:10238000FFF7BCFD002803DA3846BDE8F0810FE016
:10239000B4F86412D4F870024843D4F81812884292
:1023A00004D0202394F81D120522D2E702202072C7
:1023B0004FF40070E06041463046BDE8F041FFF761
:1023C000B9BE70B505460E46D5E9AF4004F51972A1
:1023D0004368111D30469847C8B994F86202022834
:1023E00015D0D4F86802401E010E2174010C6174EE
:1023F000010AA174E074002020756075B4F86402CD
:10240000010AA175E0750820E060002070BD3A2344
:1024100002223146284600F0C0F84FF0FF3070BD70
:102420002DE9F04106461546D6E9AF400F4604F5C2
:1024300019724368111D3846984770B994F86202C2
:1024400002280AD0D5F80A00697B00BA20F0FF0004
:102450000843E060002001460DE03A23022239469D
:10246000304600F09AF84FF0FF30BDE8F0812218B6
:10247000401C1174C0B2E2688242F8D8D4F86802F5
:10248000401E020E2275020C6275020AA275E075EA
:1024900021766176B4F86402010AA176E076D5F877
:1024A0000A00697B00BA20F0FF000843E0600020CA
:1024B000DBE77CB505460E46D5E9AF406A46436882
:1024C00001A93046984710BB94F8620202281ED03A
:1024D000002001462218401C80B211740C28F9D348
:1024E0000820E0740198401E020E2275020C6275ED
:1024F000020AA275E075022020766176BDF8000020
:10250000010AA176E0760C20E06000207CBD3A2331
:1025100002223146284600F040F84FF0FF307CBDE3
:1025200030B5D0F8BC12D1F818321BB300200446E5
:102530000B18401CC0B21C741228F9D37020087408
:102540000C20C87591F8600291F8613298421CD055
:1025500001EBC003401C93F840528D7493F8445231
:102560000D7793F84532C0B24B7781F860020428AA
:1025700009D00AE091F81D122023052200F00DF881
:102580004FF0FF3030BD81F860421220C8601079F2
:10259000122800D8C860002030BDD0F8BC0290F8E6
:1025A000611200EBC10181F8402290F8611200EB4A
:1025B000C10181F8443290F86122002100EBC2028F
:1025C00082F8451290F86122521CD2B280F8612242
:1025D000042A01D180F86112704710B5C26004E08E
:1025E000521E92B284188B5C2374002AF8D100200A
:1025F00010BD2DE9F041D0F8BC4205461746207ABF
:10260000884620B12846BDE8F041FFF7DEBDD4F88A
:1026100018024FF0FF3680B394F81C02000636D43F
:10262000D5F8C00281684046884728B13A230AE0BD
:102630002846FFF7B2FF1DE0D5F8C002C16840464A
:10264000884718B1272302224146F1E7D7F8020054
:10265000414600BA20F0FF0278790243C4F86C22A8
:10266000B7F8070043BA2846C4F87032FFF746FCB3
:10267000002803DA3046BDE8F08108E0B4F86402CF
:10268000D4F870324343D4F81802984204D020237F
:1026900094F81D120522CBE74FF40070834200D35B
:1026A000034601202072014604F11002284600F082
:1026B0001FFC0020DFE72DE9F047D0F8BC420646BA
:1026C0001546207A894620B13046BDE8F047FFF72D
:1026D0007CBDD4F818024FF0FF3818B194F81C02F2
:1026E000000607D594F81D12202305223046FFF777
:1026F00054FF2DE0D6F8C002816848468847052778
:1027000008B13A2306E0D6F8C002C16848468847B7
:1027100038B12723022249463046FFF73EFF277291
:1027200016E055F8020F494600BA20F0FF02E8789B
:102730000243C4F86C22686800BA20F0FF03E8790D
:1027400003433046C4F87032FFF7D8FB002802DAA2
:102750004046BDE8F087B4F86402D4F870324343D1
:10276000D4F818029842BDD14FF40070834200D3D0
:10277000034601202072014604F11002304600F0A9
:10278000B7FB0020E5E74FF480300860C0111080EF
:1027900000207047002070470020704700207047DD
:1027A0000020704710B50C4638B90549580401EBB4
:1027B000424102462046FDF734FD002010BD0000D6
:1027C000000002082DE9F0410F4D88461E461746CD
:1027D0004FF400312846FDF7A9FD00240BE000BFAF
:1027E00004EB4740411958F8042000230220FDF76C
:1027F0006BFF241DA4B2B4EB464FF1DBFDF75AFF8B
:102800000020BDE8F0810000000002087047017858
:10281000407841EA00207047FEF78CB830B593B09D
:1028200030216846FDF716FD14210CA8FDF712FDB6
:102830001D480024016841F080510160006800F0EB
:10284000805011901948016841F48041016000688E
:1028500006AA00F480401190032000904FF48030CD
:1028600001900120039010200490022041050F25C3
:1028700082E823009021CDE9091005200B906846DD
:10288000FEF794FE08B172B6FEE7CDE90C540E9443
:102890000F9400210CA81094FEF796FD002801D09B
:1028A00072B6FEE713B030BD403802400070004001
:1028B0000548016841F47001016003494FF0006070
:1028C000803908607047000088ED00E02DE9F04194
:1028D000044600680169E26821F440511143016136
:1028E0002169A068E26908436169114308432168CE
:1028F000CA6849F20C639A430243CA60206841697E
:10290000A26921F4407111434161E06919276425EE
:102910003226B0F5004F354A354920684FF000089F
:1029200006D0884201D0904236D1FEF7FDFD35E059
:10293000884201D0904202D1FEF7F6FD01E0FEF799
:10294000E3FD61684A18A0FB070148EB0803FDF7A7
:1029500037FC0146B0FBF5F00201B1FBF5F06FF07A
:102960001803584301EB800006EBC000B0FBF5F004
:1029700000F0F80002EB4002B1FBF5F0584301EB28
:10298000800006EBC000B0FBF5F000F00700216806
:1029900010448860BDE8F081FEF7B6FD61688B0FDA
:1029A0008A00A0FB0701FDF70BFC0146B0FBF5F028
:1029B0006FF01802504301EB800006EB0010B0FBF3
:1029C000F5F000F0F002B1FBF5F002EB0012B1FB04
:1029D000F5F06FF01803584301EB800006EB001090
:1029E000B0FBF5F000F00F00D1E70000001401404B
:1029F0000010014010B5D0F8B8220AB152689047D3
:102A0000002010BD134610B50A46002100F070FAF0
:102A1000002010BD134610B50A46002100F007FB48
:102A2000002010BD10B50446802100F0E5FA2046D4
:102A3000BDE81040002100F0DFBA10B505210023E9
:102A4000C0F894121A46194600F052FA002010BD40
:102A500010B502238261C0F89432C26113460A465F
:102A6000002100F0E4FA002010BD10B5042100237D
:102A7000C0F894121A46194600F0D9FA002010BD89
:102A800010B50A46024903A000F0DFF8004810BD67
:102A9000C80400204D534320436F6E6669670000F1
:102AA00012200880004870474000002010B50A46F8
:102AB000024903A000F0C9F8004810BDC804002076
:102AC0004D534320496E7465726661636500000072
:102AD00004200880004870473C00002010B50A46DA
:102AE000024903A000F0B1F8004810BDC80400205E
:102AF00053544D6963726F656C656374726F6E6970
:102B00006373000010B50A46024903A000F09DF867
:102B1000004810BDC804002053544D3332204D618D
:102B200073732053746F72616765000010B51A20CB
:102B300008800A480168001D0468001D0068081824
:102B400009D008220649FEF75BFF0549042210312F
:102B50002046FEF755FF0248801E10BD107AFF1F69
:102B600056000020F8B504460020ADF80000488863
:102B70000D46010A08295FD2DFE801F05E0409175B
:102B80005E5E3C45D4F8B412207C0A6819E0207CD3
:102B900002260028D4F8B80205D0C16A68468847E2
:102BA0000146467039E0816AF8E7C0B2062843D290
:102BB000DFE800F0030A1014181CD4F8B4024268CD
:102BC00005E0694690471CE0D4F8B402826892B3ED
:102BD000207CF6E7D4F8B402C268F8E7D4F8B4026F
:102BE0000269F4E7D4F8B4024269F0E7D4F8B40219
:102BF0008269ECE7207CF0B9D4F8B802416B6846F2
:102C00008847014609E0207CA8B9D4F8B802016BD6
:102C100068468847014607204870EA888AB1BDF8AF
:102C2000000040B1824200D90246ADF800202046A3
:102C3000FFF70EFFF8BDFFE729462046FFF7F2FE3B
:102C4000F8E72046FFF711FFF4E770B500230028EE
:102C50001ED00025044602E06D1CEDB2641C2678EF
:102C6000002EF9D1022404EB450414801278CA54D2
:102C70005B1C0322CA5400245B1C06E0CA545B1C84
:102C8000DAB28C54521CD3B2401C0278002AF5D11F
:102C900070BD01004FF0000004D0012901D00229CD
:102CA00001D0032070470120704730B4A0B1D0F8A4
:102CB000B84200230CB1C0F8B832D0F8CC420CB105
:102CC000C0F8CC3209B1C0F8B412012180F89C12CE
:102CD000027030BC00F0BCB830BC0320704710B5A7
:102CE000D0F8C402FDF728FFBDE81040FFF7D1BFC0
:102CF00010B5D0F8C402FDF7F9FEBDE81040FFF7AB
:102D0000C8BF70B51646044649B1D4F8B802426946
:102D10001AB194F89C02032842D0032070BDD4F865
:102D20009412002504F11400022932D1D0E90231B5
:102D30008B4206D95A1A826031462046FFF76AFE56
:102D40000FE0994214D14068884211D3D4F8981208
:102D500088420DD2002211462046FFF75BFEC4F8E0
:102D6000985200231A461946204600F0C1F810E098
:102D7000D4F8B802C16829B194F89C02032801D1A3
:102D8000204688478021204600F036F92046FFF78C
:102D900054FE94F8A002012806D184F8A05203E062
:102DA000204690470028B9D1002070BD10B51346C9
:102DB000044649B1D4F8B80282691AB194F89C0269
:102DC000032824D0032010BDD4F8941204F5AA706F
:102DD000032920D1D0E9021291420AD98A1A8260CD
:102DE000C068824200D3024619462046FFF70AFE19
:102DF00011E0D4F8B802016929B194F89C020328C3
:102E000001D1204688472046FFF72FFE03E02046E9
:102E100090470028D7D1002010BD0020704710B582
:102E2000012180F89C12D0F8B82212B152680179C1
:102E30009047002010BD10B5D0F8C402FDF7AAFEDF
:102E4000BDE81040FFF725BFD0F8C402FDF7BCBEB7
:102E500010B5017839BB15490222C1F80404C0F845
:102E6000C4124FF0A0400860042048600020C1E96F
:102E70000320C1E9062008624862C8620863084668
:102E8000FEF77CF908B1FDF74EFA80210748FDF7FF
:102E9000ECFD402200210548FDF7EBFD80220121D9
:102EA0000248FDF7E6FD002010BD0000C806002026
:102EB0000A0601F07F01D0F8C402C1EBC10100EBAA
:102EC000810002D590F83E00704790F8FE017047EF
:102ED000002070470020704710B51C461346D0F8FC
:102EE000C4022246FDF779FEBDE81040FFF7D1BECF
:102EF00010B5D0F8C402FDF7A0FEBDE81040FFF702
:102F0000C8BE70B50125044680F89C520020C4F864
:102F100094026060C4F8A402D4F8BC0228B1D4F8CA
:102F2000B802002142682046904700224023114603
:102F30002046FFF7D1FF4026A4F864513346002213
:102F400080212046C4F86061FFF7C6FFA5840020F9
:102F5000266270BD90F89C12042903D190F89D124E
:102F600080F89C120020704710B590F89C1203293D
:102F700004D1D0F8B812C96901B18847002010BD4A
:102F800001740020704710B5D0F8C402FEF7C8F9EC
:102F9000BDE81040FFF77DBE70B5044600F2AA20E0
:102FA000054600F027F90120C4F89402B4F8B002F5
:102FB000C4F8980294F8AA0210F01F010AD001295F
:102FC0000ED0022912D000F080012046BDE87040EA
:102FD00000F012B829462046BDE8704000F09CB9C8
:102FE00029462046BDE8704000F0C6BA2946204672
:102FF000BDE8704000F01ABA10B5D0F8C402FDF771
:1030000040FEBDE81040FFF744BE10B5D0F8C40242
:10301000FEF7A1F9BDE81040FFF73BBE90F89C1207
:1030200080F89D12042180F89C120020704710B592
:10303000D0F8C402FDF75FFEBDE81040FFF729BEDF
:1030400010B5FEF79DFD002010BD10B5FEF7B5FDD3
:10305000002010BD70B504460121FFF749FE002590
:10306000A4F8785181212046FFF742FE25872046AB
:10307000FEF7C0FDD4F8BC0218B100F0D3FFC4F8CD
:10308000BC52002070BD00000A210180004870473A
:103090003C0100202021018000487047FC000020F6
:1030A0002021018000487047DC00002020210180A1
:1030B000004870471C01002070B504464FF41D7095
:1030C00000F0E4FFC0B1C4F8BC02207C0125C0B10F
:1030D0004023022201212046FFF7FEFEA4F878518A
:1030E0004023022281212046FFF7F6FE2587204655
:1030F000FEF785FD002070BD0020C4F8BC02022050
:1031000070BD4FF400763346022201212046FFF7BE
:10311000E3FEA4F878513346E3E719B1C0F8C012D2
:103120000020704703207047F8B50025D0F8BC7226
:103130000646ADF8005008780C4610F0600120D02B
:1031400020293DD16178FE2902D0FF2938D10EE037
:10315000618881BBE188012932D1000630D5D6F8DB
:10316000C002806980470122394638601FE06188CB
:1031700009BBE188F9B9000622D43046FEF762FDAA
:1031800023E0607830B1012824D00A2809D00B2828
:1031900016D111E096F89C02032811D1022269464B
:1031A00005E096F89C0203280AD10122391D304619
:1031B000FFF74EFC09E003E096F89C02032806D0D6
:1031C00021463046FFF72EFC03252846F8BDA0789F
:1031D0007860FAE796F89C020328F6D16088002808
:1031E000F3D121793046FFF726FE21793046FEF7EC
:1031F000ABFCEAE770B5054611F8010B28700878BA
:1032000068704C1C2046FFF702FB6880A41C204617
:10321000FFF7FDFAA880A01CFFF7F9FAE88070BD5F
:1032200038B504460020ADF8000041B1C4F8B8122A
:10323000896A68468847C4F8CC02002038BD03205C
:1032400038BD02460320D2F8B832002B02D01B68EA
:1032500010461847704700002DE9F0410F462C4EEC
:103260008978002504463170022906D9394620465E
:10327000FFF7D8FB0320BDE8F08194F89C020228F8
:103280000CD003281DD039462046FFF7CBFB317800
:103290002046FFF7AFFB03252846ECE799B320460D
:1032A0006160FFF7CEFF050004D039462046FFF7E6
:1032B000B9FBF1E72046FFF7D8FB032084F89C0216
:1032C000EAE74FF00208C1B1606888421BD0C1B282
:1032D0002046FFF78FFB317820466160FFF7B1FF92
:1032E000050010D039462046FFF79CFB2179204687
:1032F000FFF780FB84F89C82CEE784F89C8220460E
:103300006160FFF777FB2046FFF7AFFBC4E70000E3
:10331000A0000020FFF779BE2DE9F0410A780025D2
:1033200012F0600208D0202A01D0402A71D1D0F8D2
:10333000B8229268904731E04B78002201260A2B90
:1033400067D2DFE803F0415E6658660805662D29FE
:10335000FFF708FC5FE004468888D8B9C888C8B978
:103360004888802816D200F07F0794F89C02032832
:1033700010D084F89E7239462046FFF704FE20469E
:10338000FFF773FB1FB1022084F89C0243E084F82E
:103390009C6240E020463CE0FFF75EFF05463AE0D5
:1033A000CB88012B35D190F89C32012B04D0022B15
:1033B00002D0032B2DD104E08260012200F108012C
:1033C00016E00122011D13E090F89C22012A03D08F
:1033D000022A01D0032A1CD1CA88022A19D1C66048
:1033E000D0F8A41209B10321C160022200F10C013E
:1033F000FFF72EFB0FE0498801290CD1C0F8A46229
:1034000011E090F89C32012B08D0022B06D0032B40
:1034100004D0FFF707FB2846BDE8F0814988012961
:10342000F9D1C0F8A422FFF720FBF4E72DE9F04121
:103430000D46044628780027097910F060000BD06B
:10344000202801D0402873D1D4F8B80229468268D8
:103450002046904707468CE06878D8B3012822D0F0
:10346000032865D194F89C02022802D003287CD15D
:103470000BE0002979D0802977D02046FFF7BCFDEA
:1034800080212046FFF7B8FD73E0688838B931B174
:10349000802904D0E88810B92046FFF7ADFD20460A
:1034A000FFF7E3FA65E094F89C020228E1D00328D4
:1034B0005BD16888D8BB480602D02046FFF70FFCD6
:1034C0002046FFF7D2FAD4F8B8022946826820468F
:1034D00090474EE0FFE794F89C020026022802D0B5
:1034E000032842D111E009B180293ED1080601F03C
:1034F0007F0000EB800004EB800101D5143101E076
:1035000001F5AA7102220E602BE0080601F00F00FF
:1035100000EB800004EB80000BD5808C40B101F003
:103520007F0000EB800004EB800514350CE020E008
:103530001BE0B0F86401C0B101F07F0000EB800037
:1035400004EB800505F5AA7541B1802906D0204617
:10355000FFF7AEFC10B10120286000E02E600222CF
:1035600029462046FFF774FA03E029462046FFF774
:1035700059FA3846BDE8F08170B50646087800244F
:103580000D4610F0600003D0202801D0402817D14C
:1035900096F89C02012803D0022801D003280FD1FD
:1035A000287901280CD8D6F8B802826830469047AE
:1035B0000446E888204306D13046FFF756FA02E079
:1035C0003046FFF72FFA204670BD000070B50A782C
:1035D000012302F00F054E78AB401B4CD0F81C586D
:1035E000012E17D045EA0343C0F81C3800EB421007
:1035F000D0F8002B12040BD4D0F8002B0B89C9781B
:10360000C3F30A031A4344EA81410A43C0F8002B7A
:10361000002070BD9BB21D43C0F81C5800EB421047
:10362000D0F800391B04F3D4D0F800390D89C978DB
:10363000C5F30A0589042B4341EA82510B43234316
:10364000C0F80039E4E7000000800010D0F800194D
:103650006FF30A01C0F80019D0F8041841F4807122
:10366000C0F804180020704770B5044606990A9EF9
:10367000049D0D98012916D0E06840F04000E060FC
:10368000204600F02BF8A16B1EB321F48031A1631A
:10369000012D07D1A16841F00601A160A16841F0A8
:1036A0002001A16070BDA16B21F48031A163E168AC
:1036B000094A1140E160E16821F44011E16001280C
:1036C00003D1E06840F48010E060204600F006F886
:1036D000DEE741F48031DAE7BFFFBDFF01220C498C
:1036E00002E0521C8A420BD80369002BF9DA026906
:1036F00042F001020261012204E0521C8A4201D917
:10370000032070470369DB07F7D1002070470000F2
:10371000400D030030B54C780A78012300EB4212CB
:10372000012C2CD0D2F8004B002C0BDAD2F8004B35
:1037300044F00064C2F8004BD2F8004B44F08044DF
:10374000C2F8004BD0F83C580C7804F00F0403FA90
:1037500004F425EA0444C0F83C48D0F81C48097831
:1037600001F00F018B4024EA0341C0F81C18D2F885
:10377000000B19490840C2F8000B002030BDD2F8F8
:103780000049002C0BDAD2F8004944F00064C2F87A
:103790000049D2F8004944F08044C2F80049D0F80A
:1037A0003C480D7805F00F0503FA05F5ADB2AC43C2
:1037B000C0F83C48D0F81C48097801F00F018B4054
:1037C00099B28C43C0F81C48D2F80009034908405C
:1037D000C2F80009D1E700000078F3EF007833EC7D
:1037E000D0F8001E21F00301C0F8001ED0F8041824
:1037F00021F00201C0F8041800207047D0F8001E24
:1038000021F00301C0F8001ED0F8041841F00201B5
:10381000C0F80418002070472DE9F04F00250E462F
:103820000446DDF82CC0DDF824B0109F2846294658
:1038300004EB8002C2F80411401C0F28F8D3204684
:10384000C7B1806B20F40012A263A06B40F4002289
:10385000A26308468846C4F8000ED4F80018204633
:10386000C4F80018BCF1010F16D0D0F8001841F0D0
:10387000030116E0D0F8040840F00202C4F804285E
:10388000A06B40F40012A263A06B20F40022A2639C
:10389000A06B20F48022DBE7D0F800180BB141F0D8
:1038A0000101C0F80018102100F090FA00B10125C4
:1038B000204600F07BFA00B101254046C4F810888C
:1038C000C4F81488C4F81C8800214FF000694FF038
:1038D000904A4FF67F3314E004EB4112D2F800C94E
:1038E000BCF1000F06DA11B1C2F800A904E0C4F877
:1038F000009901E0C2F80009C2F81009C2F80839BD
:10390000491C8E42E8D8002115E000BF04EB4112AB
:10391000D2F800CBBCF1000F06DA11B1C2F800AB4F
:1039200004E0C4F8009B01E0C2F8000BC2F8100BE1
:10393000C2F8083B491C8E42E8D8D4F8101821F48C
:103940008072C4F81028A0616FF080406061BBF104
:10395000000F03D1A06940F01000A061A0690949DF
:103960000843A0610C9818B1A06940F00800A0615C
:10397000012F03D1A06904490843A0612846BDE88E
:10398000F08F000000383C8004000040816821F086
:10399000010181600020704770B50D784E78434C6E
:1039A000EBB200EB4313012E1FD0D3F8100B6FF3D3
:1039B0001200C3F8100BD3F8100B2040C3F8100B03
:1039C000486908B188684861D3F8100B40F40020BA
:1039D000C3F8100BD3F8100B8C68C4F31204204307
:1039E000C3F8100B012A55D058E04E69002ED3F8C9
:1039F000106932D06FF31206C3F81069D3F810695A
:103A00002640C3F810694E698C68A64200D94C6103
:103A1000D3F8104944F40024C3F81049D3F81049EE
:103A20004E69C6F312063443C3F81049012A22D066
:103A300000EB4512D2F8003943F00443C2F80039D4
:103A40004A6932B3D0F83428097801F00F03012114
:103A500099400A43C0F8342826E02640C3F810698C
:103A6000D3F8104944F40024C3F81049D3F810499E
:103A70006FF31204D8E7096919B100EB4512C2F8D7
:103A8000141900EB4510D0F8001941F00441C0F8BA
:103A9000001909E0C86808B1C3F8140BD3F8000B8B
:103AA00040F00440C3F8000B002070BDFFFF07E0AA
:103AB00010B5036C134CA34203D9D0F8003B002B84
:103AC0001EDB0023C0F8103BD0F8103B43F400236A
:103AD000C0F8103BD0F8103B43F01803C0F8103B7F
:103AE000D0F8103B43F0C043C0F8103B012907D188
:103AF000C0F8142BD0F8001B41F08021C0F8001B47
:103B0000002010BD0A30544F4A780B78012A00EB90
:103B100043100BD0D0F8002B22F40012C0F8002B79
:103B2000C978032914D0022912D017E0D0F800294F
:103B300022F40012C0F80029C978032901D0022913
:103B40000CD1D0F8001941F08051C0F8001905E0FF
:103B5000D0F8001B41F08051C0F8001B00207047D6
:103B60000A784B78D1B200EB4110012B12D0D0F87B
:103B7000001B002906DB2AB1D0F8001B21F0804190
:103B8000C0F8001BD0F8001B41F40011C0F8001B66
:103B900000207047D0F80019002906DB2AB1D0F8C0
:103BA000001921F08041C0F80019D0F8001941F443
:103BB0000011C0F80019EBE7F8B50C784F78774D95
:103BC000E3B26FF0604600EB4313012F26D0D3F829
:103BD000104B6FF31204C3F8104BD3F8104B2C406A
:103BE000C3F8104B4C69002C74D08D682C44641EB3
:103BF000B4FBF5F4D3F8105BA4B206EAC44635432F
:103C0000C3F8105BD3F8105B8E686643C6F31204EA
:103C10002543C3F8105B012A71D0A6E04F691FB39A
:103C2000D3F810796FF31207C3F81079D3F810792D
:103C30002F40C3F810794F698D682F447F1EB7FB62
:103C4000F5F506EAC545D3F810693543C3F81059B0
:103C5000D3F810594E69C6F312063543C3F810590C
:103C6000CD78012D10D01BE0D3F810692E40C3F899
:103C70001069D3F8105945F40025C3F81059D3F84A
:103C800010596FF3120509E0D3F8105925F0C0451B
:103C9000C3F81059D3F8105945F00055C3F810591E
:103CA000012A18D000EB4413D3F8004944F004442F
:103CB000C3F80049CC78012C2FD04A6962B3D0F800
:103CC0003428097801F00F03012199400A43C0F814
:103CD000342860E036E00A691AB100EB4413C3F8F7
:103CE0001429C97801290FD1D0F80818C90500EBAB
:103CF0004411D1F8002903D442F0005202E030E030
:103D000042F08052C1F8002900EB4410D0F80019AD
:103D100041F00441C0F800193DE0D0F80848E4053E
:103D2000D3F8004902D444F0005401E044F0805438
:103D3000C3F8004900928A8A93B20A78C96800F0F1
:103D40003FF928E0D3F8104B8D68C5F312052C43DA
:103D5000C3F8104BD3F8104B44F40024C3F8104BB5
:103D600059E7CA680AB1C3F8142BC97801290CD1E4
:103D7000D0F80808C005D3F8000B02D440F000507A
:103D800001E040F08050C3F8000BD3F8000B40F086
:103D90000440C3F8000B0020F8BD0000FFFF07E05F
:103DA000816841F0010181600020704700211022EC
:103DB0000261054A491C914201D9032070470369F9
:103DC000DB06F7D400207047400D030000222023BB
:103DD00043EA811101610549521C8A4201D903203D
:103DE000704703699B06F7D400207047400D03001D
:103DF000D0F8080810F0060004D0022803D00628E6
:103E000001D00F20704702207047406900F0010088
:103E10007047D0F81818D0F81C08084080B27047D6
:103E2000D0F81818D0F81C080840000C704710B5DE
:103E3000D0F81038D0F8342801F00F0400EB41100E
:103E4000E24002F00102D0F8080943EAC212104031
:103E500010BD00EB4111D1F8081BD0F81408084040
:103E600070474169806908407047D21C10B59308BB
:103E7000002200F5805002E00468521C10C19A42F2
:103E8000FAD3084610BD10B5C26822F0C042C26025
:103E9000012902D029B1012010BDC16841F00051B3
:103EA00002E0C16841F08041C1603220FCF7A4FB10
:103EB000002010BDD0F8002822F4FE62C0F80028CF
:103EC000D0F800284FF4FE6303EA01110A43C0F85A
:103ED0000028002070470000022A3ED1264A274BC6
:103EE0000A449A4201D20F2138E0254A254B0A4460
:103EF0009A4201D20E2131E0234A244B0A449A42CD
:103F000001D20D212AE0224A224B0A449A4201D2D0
:103F10000C2123E0204A214B0A449A4201D20B2172
:103F20001CE01F4A1F4B0A449A4201D20A2115E0A5
:103F30001D4A1E4B0A449A420FD31D4A1D4B0A4488
:103F40009A4201D2082109E01B4A11441B4A9142BE
:103F500001D2072102E0062100E00921C26822F413
:103F60007052C260C2684FF4705303EA81210A4361
:103F7000C260002070470000405327FF00350C004E
:103F8000401E1BFF40420F0000DC0BFF804F120061
:103F9000808CF9FE20D6130060B6E5FE60E31600C3
:103FA00000D3CEFE40771B00C05BB3FEC091210062
:103FB00000CA91FE20753800E05459FEE09C410093
:103FC00010B5029C64B9DB1C9C0800EB0230002396
:103FD00000F5805002E004C902605B1CA342FAD3E2
:103FE000002010BDFEE70907090E002804DB00F1E0
:103FF000E02080F80014704700F00F0000F1E0208E
:1040000080F8141D704702E008C8121F08C1002A7A
:10401000FAD170477047002001E001C1121F002A49
:10402000FBD1704710B5002821D0114B0022001F92
:10403000196803E0814203D80A4649680029F9D18A
:1040400052B11368841A9C4204D10068184410606D
:10405000104602E0506000E0186039B102680B1AA7
:10406000934203D10B681A4402604968416010BD55
:1040700088010020FCF766FCFEF7D0FBFDF71AFE76
:10408000FDF736FEFDF750FEFEE70000F0B50B3001
:10409000154D20F007010024144A0FE003688B42FD
:1040A0000BD38B4205D95E1A43184768C3E90067F2
:1040B00000E04368136002C004E0021D106800289D
:1040C000ECD12046002802D1286808B10020F0BDBC
:1040D000064A07481060074A121A22F00702C0E990
:1040E000002401202860D7E78C01002088010020EF
:1040F000F40A0020F0100020008002021F000000DF
:1041000053544D202020202050726F64756374201A
:104110002020202020202020302E303100000000E0
:104120000000000001020304060708090000000067
:104130000102030454410008000000209001000027
:10414000CC0200081042000890010020601300001B
:1041500016400008012013A12A1B08D1041ADD040F
:1041600013052B1B082D041A810C1AAD0417040328
:10417000090412013202164083042A571D0201026B
:10418000030E031A1A031399271B0887041A9D04A8
:104190001AA1041AA5041AC5041A950413F8403389
:1041A000080182105324F413B9301B085504132955
:1041B0003182081A41101A4B04B9AC19101A95042F
:1041C0001AAD041A8904140902202008010104C050
:1041D000320904180A020806500507058102B02CAE
:1041E000070501070914202240292019070B1C0983
:1041F00007204B0A06FC29B4190A1A80021B082062
:1042000001322203120812622609121B91000000DB
:040000050800018965
:00000001FF
