:020000040800F2
:100000008805002045010008471C0008651A000803
:10001000451C0008CD060008CD20000800000000A7
:10002000000000000000000000000000911D00081A
:10003000CF06000800000000B51C0008931D000852
:100040005F0100085F0100085F0100085F01000810
:100050005F0100085F0100085F0100085F01000800
:100060005F0100085F0100085F0100085F010008F0
:100070005F0100085F0100085F0100085F010008E0
:100080005F0100085F0100085F0100085F010008D0
:100090005F0100085F0100085F010008D106000849
:1000A0005F0100085F0100085F0100085F010008B0
:1000B000E91D00085F0100085F0100085F010008FA
:1000C0005F0100085F0100085F0100085F01000890
:1000D0005F010008C12000085F0100085F010008FF
:1000E0005F0100085F0100085F0100085F01000870
:1000F0005F0100085F0100085F0100085F01000860
:100100005F0100085F0100085F0100085F0100084F
:100110005F0100085F0100085F0100085F0100083F
:100120005F0100085F0100085F0100085F0100082F
:10013000DFF80CD000F03AFA00480047BD2B000869
:10014000880500200648804706480047FEE7FEE78E
:10015000FEE7FEE7FEE7FEE7FEE7FEE7FEE7FEE777
:10016000E51D000831010008202A04DB203A21FAAD
:1001700002F00021704721FA02F3D040C2F12002C0
:100180009140084319467047D2B201E000F8012BB4
:10019000491EFBD270470022F6E710B513460A4607
:1001A00004461946FFF7F0FF204610BD30B50B4658
:1001B000014600202022012409E021FA02F59D4297
:1001C00005D303FA02F5491B04FA02F52844151E6B
:1001D000A2F10102F1DC30BD2DE9F05F05460020FF
:1001E00092469B4688460646814640241BE02846A8
:1001F000414647462246FFF7B7FF53465A46C01AC4
:10020000914110D311461846224600F0E1F92D1A0B
:1002100067EB01084F4622460120002100F0D8F983
:1002200017EB00094E41201EA4F10104DFDC484613
:1002300031462A464346BDE8F09F2DE9FE4F8046F1
:1002400081EA0300C00F0C46009021F0004123F02A
:100250000045B8EB0200A94105D240462146904630
:100260001C460B46024623F00040104347D0270DA2
:10027000C7F30A00C3F30A510290401A01904028C4
:100280006BDAC3F3130040F4801B0098924620B150
:100290000023D2EB030A63EB0B0B01985946C0F124
:1002A0004002504600F094F906460D465046594625
:1002B000019A00F09CF910EB08006141002487EAE4
:1002C000115284EAE7731A4340D0009A62B3019A4C
:1002D000012A4FEA075215DC001B61EB02014FF0C7
:1002E000004202EA0752CDE90042001C41F58011AC
:1002F00032462B4600F09CF903B0BDE8F08F404633
:100300002146F9E7001B61EB0201001C41F5801357
:1003100000185B412018A2F5001747EB030140EAE3
:10032000D570B6196D4111E06D084FEA360645EA01
:10033000C0754FEA0752001B61EB0201001C41F53A
:10034000801149084FEA30000019514132462B46CE
:1003500003B0BDE8F04F00F05CB900980122400006
:100360000023D0EB020263EBE073009821464FEAD2
:10037000E074B8EB000061EB0401E9E783F00043AF
:100380005BE781F0004158E72DE9FE4F81EA030465
:1003900004F0004421F0004100944FF0000B23F0E2
:1003A000004350EA01045ED052EA03045BD0C3F379
:1003B0000A54C1F30A552C44A4F2F3340194A0FB6F
:1003C0000254C1F3130141F48011C3F3130343F446
:1003D000801301FB024400FB034E840A970A44EA9F
:1003E000815447EA8357A4FB076802958D0A05FBF1
:1003F00007854FEA932C04FB0C542705029D4FEA16
:10040000065847EA1637B5EB08056EEB070C870E62
:10041000920E47EA811742EA8312A7FB0201B6EB6C
:100420000B0164EB00042B0D43EA0C335E1844EB24
:100430001C50DA465146E7FB0201C5F313044FEAAC
:100440000B3343EA14534FEA0432019C43EA060398
:10045000A4F10C040294009CCDE900B400F0E8F88B
:1004600003B0BDE8F08F00200146F9E72DE9F04D1B
:1004700081EA030404F0004B21F0004514464FF0DC
:10048000000A23F0004150EA050220D054EA01029C
:100490001DD0C5F30A570246C5F31303C1F3130079
:1004A000C1F30A5640F4801543F48013A7EB060805
:1004B000101BD64608F2FD3873EB050002D308F195
:1004C000010801E092185B41B8F1000F03DA002047
:1004D0000146BDE8F08D00204FF4801106468446A9
:1004E0000EE0171B73EB050705D3121B63EB050327
:1004F00006434CEA010C49084FEA300092185B4170
:1005000050EA0107EDD152EA030012D082EA04005A
:1005100083EA0501084305D0101BAB4106D2012236
:10052000002306E000224FF0004302E06FF00102DA
:1005300053101AEB06004CEB085110EB0A0041EB8C
:100540000B01BDE8F04D00F064B8C1F30A52C1F3ED
:10055000130140F2FF3341F480119A4202DA002085
:100560000146704740F233439A42A2F2334202DC22
:100570005242FFF7F9BD00F02BB8000030B5041E61
:1005800071F1000404DB4FF00044404264EB0101D0
:10059000141E73F1000405DB1C464FF00043524269
:1005A00063EB0403994208BF904230BD064C074DEF
:1005B00006E0E06840F0010394E807009847103433
:1005C000AC42F6D3FFF7B8FDD0300008F030000899
:1005D000202A04DB203A00FA02F100207047914003
:1005E000C2F1200320FA03F3194390407047202AF8
:1005F00006DBCB17203A41FA02F043EAE07306E04B
:1006000041FA02F3D040C2F120029140084319465A
:10061000704710B5141E73F1000408DA401C41F154
:10062000000192185B411A4301D120F0010010BD76
:100630002DE9F04D92469B4611B1B1FA81F202E0EC
:10064000B0FA80F220329046FFF7C2FF04460F4610
:1006500040EA0A0041EA0B0153465A46084313D0C8
:10066000114653EA010019D0C8F140025046FFF785
:100670007BFD05460E46504659464246FFF7A8FF09
:10068000084305D0012004E020463946BDE8F08D3E
:100690000020054346EAE0762C4337430A98630579
:1006A000E40AA0EB08000022FD0A44EA47540A309D
:1006B00002D500200146E9E7010510196941DDE98D
:1006C000084500196941BDE8F04DA2E7FEE7704713
:1006D000024901200870802000F0B0B8800000209E
:1006E000704700002DE9F05F90F8211000240229E6
:1006F00003D004218163012485E001680A6822F0A7
:100700000E020A6001680A6822F001020A603F4E88
:100710003E4FB215DFF8F4C0DFF8F090DFF8ECA040
:10072000DFF8E8B0DFF8E4E00168783F1301150274
:10073000ACF1640CA9F15009AAF13C0AABF1280B09
:10074000AEF1140E4FF48018B14227D9B9420ED041
:10075000614512D049451DD0514518D0594518D092
:10076000714501D1424615E0294EB14201D1012225
:1007700010E0274E1436B14201D110220AE0244E77
:100780002836B14206D0224A3C32914201D11A4663
:1007900000E02A461E49091F0A602BE0B94213D027
:1007A000614517D0494522D051451DD059451DD02E
:1007B000714501D142461AE0B14202D14FF0807238
:1007C00015E0134EB14201D1012210E0104E143653
:1007D000B14201D110220AE00D4E2836B14206D0B6
:1007E0000B4A3C32914201D11A4600E02A460749A1
:1007F00080394A60012180F82110002180F8201002
:10080000416B01B188472046BDE8F09F800002405F
:100810000804024070B5044600F026F90546601C45
:1008200002D004480078044400F01EF9401BA042A6
:10083000FAD370BD0800002070470000044910B5CD
:100840000A68024202D00860FFF7F6FF10BD000000
:10085000140401402DE9F84FDFF8C891002409F194
:10086000040A0AF1040B23460F270BF1040ED1E012
:100870000125A54006EA0502AA4276D1DFF8A8C103
:100880004E68A6EB0C0866452BD00DDC032E34D049
:1008900005DC36B3012E19D0022E2FD11BE0112E0C
:1008A00016D0122E2AD119E0B8F5881F19D006DC0F
:1008B000B8F5803F15D0B8F5801F1FD111E0B8F50D
:1008C000001F0ED0B8F5041F18D10AE0CB6815E060
:1008D000CB681B1D12E0CB6808330FE0CB680C33EC
:1008E0000CE08B682BB1012B4FF0080303D045615E
:1008F00004E0042302E0056100E00023FF2A01D8A0
:10090000064601E000F104064FEA840501D9A5F18D
:100910002005D6F8008007FA05FC28EA0C0803FA3F
:1009200005F548EA0508C6F800804D68ED0070D569
:100930003E4DAE6946F00106AE61AD6924F0030696
:1009400005F0010500953A4D06EB050CDCF8085062
:10095000A607360F07FA06F825EA0805DFF8D4805F
:10096000404503D14FF0000825E052E0DFF8C88091
:10097000404502D14FF001081DE0DFF8C08040453E
:1009800002D14FF0020816E0DFF8B480404502D1F2
:100990004FF003080FE0DFF8AC80404502D14FF084
:1009A000040808E0DFF8A080404502D14FF00508B8
:1009B00001E04FF0060808FA06F848EA0508CCF806
:1009C00008804D68D9F80060ED034D4601D5164307
:1009D00000E096432E604D68DAF80060AD0355469E
:1009E00001D5164300E096432E604D68DBF80060A9
:1009F000ED025D4601D5164300E096432E604D683A
:100A0000DEF80060AD02754601D5164300E096435E
:100A10002E60641C0A681646E2407FF429AFBDE8E8
:100A2000F88F000000040140000011100010024087
:100A30000000014000080140000C0140001001408E
:100A40000014014000180140001C0140C26821EA66
:100A500002030A4043EA0241016170470AB10161A1
:100A600070470904FBE700000148806870470000F8
:100A700008000020024881680278114481607047B4
:100A800008000020074810B5016841F0100101601E
:100A9000032000F085F8002000F006F800F024F8AC
:100AA000002010BD0020024070B50D4D04464FF4EB
:100AB0007A712878B1FBF0F00A490968B1FBF0F0CF
:100AC00000F081FC48B9102C07D200222146501EAC
:100AD00000F046F800206C6070BD012070BD000081
:100AE00008000020140000200C4808B5816941F07E
:100AF00001018161816901F001010091C16941F049
:100B00008051C161C06900F0805000900448416884
:100B100021F0E06141F08061416008BD00100240B9
:100B20000000014000280DDB00F01F020121914070
:100B30004009800000F1E020C0F88011BFF34F8F22
:100B4000BFF36F8F7047002809DB00F01F020121FF
:100B500091404009800000F1E020C0F8001170478A
:100B6000F0B40E4B1B680C46C3F30223C3F1070518
:100B7000042D00D90425191D072901D2002300E006
:100B8000DB1E012606FA05F1491E214099409E40D0
:100B9000761E16403143F0BC01F030BB0CED00E096
:100BA000064900F0070208684FF6FF03184040EAC4
:100BB0000220034A10430860704700000CED00E07B
:100BC0000000FA052DE9F0470F46050061D0434EBD
:100BD000306800F00700B84209D2306820F0070002
:100BE00038433060306800F00700B84251D12868BF
:100BF0003B4C810712D5400703D5606840F4E060A4
:100C000060602878000703D5606840F46050606039
:100C10006068A96820F0F000084360602878C00789
:100C200028D06868012810D02168022810D08907D0
:100C300000292EDA616821F0030101436160FFF7AA
:100C400013FF804641F288390DE021688903EFE700
:100C50008901EDE7FFF708FFA0EB0801494502D93C
:100C60000320BDE8F0876068696800F00C00B0EB15
:100C7000810FEFD1306800F00700B8420BD930681F
:100C800020F0070038433060306800F00700B842B9
:100C900001D00120E5E72878400705D56068E968BC
:100CA00020F4E060084360602878000706D560689B
:100CB000296920F4605040EAC100606000F038F813
:100CC0006168084AC1F30311515CC84006490860D5
:100CD00006480068FFF7E8FE0020C2E70020024057
:100CE000001002401E300008140000200C000020FC
:100CF0000448054900684968044AC1F30221515C6F
:100D0000C840704714000020001002402E30000838
:100D10000448054900684968044AC1F3C221515C8E
:100D2000C840704714000020001002402E30000818
:100D300012A185B00FC98DE80F0014A0144A0068F5
:100D400004905168134801F00C03042B10D0082BB9
:100D50000ED1C1F38343C9031DF803000AD55168BE
:100D600004AAC1F34041515C0A4A5043B0FBF1F080
:100D700005B0704708494843FAE70000020304053C
:100D8000060708090A0B0C0D0E0F101001020000D7
:100D90000010024000127A0000093D002DE9F84FD2
:100DA000040070D02078C04DC00749D06868C0F3F7
:100DB0008100012807D06868C0F38100022809D1AA
:100DC0006868C00306D52868800339D560680028A4
:100DD000E7D035E06068B0F5803F0BD010B1B0F5DA
:100DE000A02F11D0286820F480302860286820F4D3
:100DF000802002E0286840F480302860606890B16C
:100E0000FFF732FE06460AE0286840F4802028609A
:100E1000F0E700BFFFF728FE801B642873D828681E
:100E20008003F7D50CE0FFF71FFE064605E000BF84
:100E3000FFF71AFE801B6428F0D828688003F7D4D7
:100E400020789A4E80074FF001094FF0000839D5FD
:100E5000686810F00C0F07D06868C0F381000228A2
:100E600009D16868C00306D42868800714D52069B2
:100E7000012808D110E02069B0B1C6F80090FFF752
:100E8000F3FD074605E00AE1FFF7EEFDC01B02286F
:100E9000C4D828688007F7D52868616920F0F80071
:100EA00040EAC10028600DE0C6F80080FFF7DCFDD5
:100EB000074604E0FFF7D8FDC01B022823D82868A6
:100EC0008007F7D4207800072CD57948A169D9B1DB
:100ED000C0F80090FFF7C8FD074604E0FFF7C4FD27
:100EE000C01B02280FD8686A8007F7D571484FF4F5
:100EF000FA510068B0FBF1F0009000BF0098411E6D
:100F00000091FAD20EE080E0C0F80080FFF7ACFD5F
:100F1000074604E0FFF7A8FDC01B022875D8686AE1
:100F20008007F7D42078400760D5E8690027C00023
:100F300008D4E86940F08050E861E869012700F0D2
:100F4000805000905C480168C90513D4016883464D
:100F500041F480710160FFF787FD824606E000BF23
:100F6000FFF782FDA0EB0A0064284ED8DBF80000F2
:100F7000C005F5D5E06801280AD008B1052813D0CE
:100F8000286A20F001002862286A20F0040002E0AC
:100F9000286A40F001002862E06841F2883B98B17D
:100FA000FFF762FD82460BE0286A40F004002862E9
:100FB000EEE700BFFFF758FDA0EB0A0159455AD8EC
:100FC000286A8007F6D50CE0FFF74EFD824605E063
:100FD000FFF74AFDA0EB0A0159454CD8286A800763
:100FE000F6D41FB1E86920F08050E861E06988B369
:100FF0006968C1F38101022944D00228C6F86080E3
:1010000004D0FFF731FD044638E034E0FFF72CFD53
:10101000074604E0FFF728FDC01B02282BD82868EC
:101020008001F7D4206AB0F5803F05D16868A168D7
:1010300020F4003008436860D4E908010843696877
:1010400021F4741108436860C6F86090FFF70CFD46
:10105000044606E025E000BFFFF706FD001B02285E
:1010600009D828688001F7D51BE000BFFFF7FCFC1A
:10107000001B022802D90320BDE8F88F28688001F0
:10108000F4D40EE00128F7D06868226A00F48031B9
:10109000914204D1616A00F47010884201D00120AD
:1010A000EAE70020E8E700000010024000004242AA
:1010B00080044242140000200070004070B504001B
:1010C00009D0606A002540B125616561A56294F888
:1010D000510040B10CE0012070BD6068B0F5827F26
:1010E000F4D0E561F2E784F85050204600F040F873
:1010F000022084F851002068016821F0400101605D
:10110000A088218900F4827001F404410843A18978
:1011100001F400610843217C01F002010843217DB4
:1011200001F001010843218B01F400710843217F84
:1011300001F03801084394F8201001F080010843C1
:10114000218D01F40051084321680860A069042141
:1011500001EA1040216848602068C16921F40061FB
:10116000C1616565012084F85100002070BD000058
:1011700030B585B000240094019402940394006873
:101180001549884225D11548C16941F48041C161A2
:10119000C16901F480410491816941F008018161D4
:1011A00080690F4D00F0080004904FF4204000903B
:1011B000022001900320039069462846FFF74AFB6E
:1011C0004FF48040CDE90004694628460294FFF7B9
:1011D00041FB05B030BD0000003800400010024067
:1011E000000C01402DE9F84F044690F8500000270C
:1011F0000A9E1D4692468B464FF0010901280ED0EB
:10120000012084F85000FFF72FFC804694F851002D
:10121000616801280CD0B1F5827F07D102E002207D
:10122000BDE8F88FA16809B9042801D00227C2E0FF
:10123000BBF1000F27D0BAF1000F24D01DB394F8F2
:101240005100042802D0052084F851000020606578
:10125000C4F838A0E587A587C4F830B0E586A58630
:101260002064606420680168490603D4016841F085
:1012700040010160E068B0F5006F606805D0E8B338
:10128000012D46D07FE0012795E008B1012D39D12D
:10129000206B21680088C860206B801C2063E08E72
:1012A000401EE0862EE02068816889070FD5E18E18
:1012B00069B1B9F1010F0AD1216B0988C160206BB6
:1012C000801C2063E08E401EE0864FF000092068FD
:1012D0008168C9070CD0E18F51B1C068A16B08804B
:1012E000A06B801CA063E08F401EE0874FF00109D7
:1012F000FFF7BAFBA0EB0800B04200E009E001D321
:10130000701C50D1E08E0028CDD1E08F0028CAD1CA
:101310003FE0206B216800780873206B401C20633D
:10132000E08E401EE0862EE02068816889070FD598
:10133000E18E69B1B9F1010F0AD1216B097801730E
:10134000206B401C2063E08E401EE0864FF00009B9
:1013500020688168C9070CD0E18F51B1C068A16BCA
:101360000870A06B401CA063E08F401EE0874FF028
:101370000109FFF779FBA0EB0800B04202D3701C13
:1013800001D010E07EB1E08E0028CDD1E08F0028A2
:10139000CAD142463146204600F08DFC28B10127D3
:1013A0002020606507E0032705E0A06818B92068E1
:1013B000C16880680090012084F85100002084F802
:1013C000500038462CE710B5401EB0F1807F01D3A5
:1013D000012010BD4FF0E02460610F21601700F084
:1013E0000DFF0020A06107202061002010BD704784
:1013F0007047000070B590F83C20012A2CD00124E1
:1014000080F83C40022280F83D2003685A689D68BD
:1014100022F070060A6832435A60104B02689A4202
:101420000ED00F4B9A420BD0B2F1804F08D00D4B2B
:101430009A4205D00C4B9A4202D00C4B9A4204D1EE
:10144000496825F080031943916080F83D400021F0
:1014500080F83C10084670BD022070BD002C014091
:10146000003401400004004000080040000C00402F
:1014700010B5040003D094F83D0010B107E001203E
:1014800010BD002084F83C00204600F02FF8022018
:1014900084F83D00211D206800F0ACFC012084F898
:1014A000460084F83E0084F83F0084F8400084F849
:1014B000410084F8420084F8430084F8440084F832
:1014C000450084F83D00002010BD00000068B0F128
:1014D000804F07D10448C16921F00101C1611C207E
:1014E000FFF720BB704700000010024008B50068FD
:1014F000B0F1804F12D10A48C16941F00101C161C8
:10150000C069002200F00100009002211C20FFF7BA
:1015100027FBBDE808401C20FFF715BB08BD0000F5
:101520000010024070B5044690F83C00012817D026
:10153000012584F83C50022084F83D002068826830
:1015400022F0770222F47F4282600868502830D06F
:101550000DDC20284DD005DC98B310283BD148E0A5
:10156000022070BD302844D0402834D139E06028B2
:1015700028D0702806D0B0F5805F2CD0B0F5005F81
:1015800029D10AE0CB68D1E90121206800F078FC7C
:101590002068816841F0770109E0CB68D1E9012139
:1015A000206800F06DFC2068816841F48041816012
:1015B00011E0CA684968206800F074FC5021206876
:1015C00007E016E0CA684968206800F07CFC6021EA
:1015D000206800F05FFC84F83D50002084F83C0057
:1015E00070BDCA684968206800F05CFC4021206832
:1015F000EFE7226801461046EBE7704770B50446F6
:10160000006801694FF00005C943890715D4C16816
:10161000C943890711D4E91E0161012020772068A0
:1016200080698007204602D0FFF7E7FF04E000F062
:1016300098F8204600F096F8257720680169C9439C
:10164000490717D4C168C943490713D46FF004018F
:101650000161022020772068806910F4407F2046D5
:1016600002D0FFF7CAFF04E000F07BF8204600F04C
:1016700079F8257720680169C943090716D4C1683C
:10168000C943090712D46FF00801016104202077D3
:101690002068C0698007204602D0FFF7AEFF04E053
:1016A00000F05FF8204600F05DF8257720680169BA
:1016B000C943C90617D4C168C943C90613D46FF01A
:1016C00010010161082020772068C06910F4407F74
:1016D000204602D0FFF791FF04E000F042F82046D8
:1016E00000F040F8257720680169C943C90708D18F
:1016F000C168C943C90704D1891E0161204600F0B1
:1017000032F820680169C943090609D4C168C94390
:10171000090605D46FF0800101612046FFF767FEDE
:1017200020680169C943490609D4C168C94349060B
:1017300005D46FF040010161204600F015F82068E3
:101740000169C94389060BD4C168C943890607D416
:101750006FF0200101612046BDE87040FFF748BEF0
:1017600070BD7047704770477047704770B502682A
:1017700004461068D168536910F00F0F52D003F07F
:10178000010501F490762E435FD0C20705D0CA054B
:1017900003D5E26B42F00102E263420705D5DA07A6
:1017A00003D0E26B42F00202E263820705D5DA075A
:1017B00003D0E26B42F00402E263020707D501F0B6
:1017C00020022A4303D0E26B42F00802E263E26B9C
:1017D000002A33D0800604D5880602D5204600F0C2
:1017E0009AFB20684069E16BC0F38010090700D4C0
:1017F00028B3204600F081FB2068416949061AD5CC
:10180000416921F040014161606BA0B12D49416304
:10181000606BFEF767FF002810D0606B416BBDE87E
:1018200070400847830610D58B060ED52046BDE8CC
:10183000704000F070BB2046FFF797FF70BD204658
:10184000FFF793FF0020E06370BD03062BD50B0666
:1018500029D594F839002128F6D1A068B0F5805F29
:1018600001D12069B0B1206A411C21622168007851
:101870004860E08C401E0004000CE084E4D1206845
:10188000C16821F08001C1602068C16841F0400159
:10189000C16070BD206A0088C0F308005060206AF3
:1018A000801C2062E5E74006F3D54806F1D5D168F3
:1018B000204621F04001D160202184F8391000F049
:1018C000D0F870BDEB1E000870B5040004D094F889
:1018D0003900002510B106E0012070BD84F83850B1
:1018E000204600F023F8242084F839002068C168DD
:1018F00021F40051C160204600F054FB20680169CA
:1019000021F4904101612068416921F02A0141617F
:101910002068C16841F40051C160E563202084F86B
:10192000390084F83A00002070BD000030B585B061
:10193000002400940194029403940068184988429A
:101940002CD11848816941F480418161816901F499
:1019500080410491816941F0040181618069124DE7
:1019600000F0040004904FF40070009002200190F9
:101970000320039069462846FEF76CFF2815CDE941
:101980000004694628460294FEF764FF00221146CF
:101990002520FFF7E5F82520FFF7D5F805B030BD85
:1019A000003801400010024000080140704700006C
:1019B0002DE9F843044690F839001F4616460D46B7
:1019C00020284CD1C5B1BEB194F83800012846D0CA
:1019D000012084F838004FF00008C4F83C80212032
:1019E00084F83900FFF740F8A6848146E684A068B1
:1019F000B0F5805F03D004E00120BDE8F8832069E2
:101A000028B12E465FF0000584F838800EE00026ED
:101A1000FAE78021204600F021FBA0B9AEB116F80C
:101A2000010B21684860E08C401EE084E08C4B464E
:101A30004FF0000200970028EBD14FF04001204604
:101A400000F00CFB30B10320D7E735F8020BC0F3F0
:101A50000800E6E7202084F839000020CDE70220C6
:101A6000CBE77047FEE700002DE9F04786B0002481
:101A700036480094019402940394816941F0200156
:101A80008161816901F020010491816941F00801BF
:101A90008161816901F008010491816941F01001BF
:101AA0008161816901F010010491816941F00401B3
:101AB00081618069DFF8988000F004004FF4805560
:101AC0000490002229464046FEF7C8FFDFF88490C4
:101AD0004FF4E866002231464846FEF7BFFFDFF8C4
:101AE00078A02F11002239465046FEF7B7FF009527
:101AF0000125CDE90154694640460395FEF7AAFE4B
:101B0000CDE900650226CDE9024669464846FEF762
:101B1000A1FE802000901148CDE9010469464846A5
:101B2000FEF798FE00970396CDE9015469465046AA
:101B3000FEF790FE002201211720FFF711F8172071
:101B4000FFF701F806B0BDE8F08700000010024082
:101B5000000C01400010014000080140000011107D
:101B6000104810B50E4901604FF4827141600021A8
:101B700002228160C0E90312012242615202C0E9DF
:101B800006210162416281620A21C162FFF796FA71
:101B9000002803D0BDE81040FEF7A2BD10BD000034
:101BA000003800408800002010B586B00024164898
:101BB000009401940294039404944FF0804105949E
:101BC00001604721C0E9011440F2E731C0E9031484
:101BD0008461FFF74DFC08B1FEF782FD4FF48050A1
:101BE000009069460848FFF79DFC08B1FEF778FDB4
:101BF000049404A904480594FFF7FCFB002801D0D5
:101C0000FEF76EFD06B010BDE00000200C4810B5D8
:101C10000A4901604FF4E1314160002181600C22EA
:101C2000C160C0E904128161C161FFF74DFE002867
:101C300003D0BDE81040FEF753BD10BD0038014091
:101C400028010020FEE7704770B500F0A5FF10F0F6
:101C500001041CD10EA000F0C1FA2046641CE4B2BD
:101C600000F046FF042CF8D34FF4FA7500F094FF0F
:101C700000F001040DA000F0B1FA2846FEF7CAFDFD
:101C8000002CF3D0BDE8704009A000F0A7BA70BDE9
:101C9000200D0A20C7EBBCECB2E9CDF8CFDFCAC7F4
:101CA000B7F1C1ACBDD33F0D0A000000202E0000EB
:101CB000200D0A00704738B50B46009204460022FA
:101CC000802100F009F8002804D0606D40F0200069
:101CD0006065032038BD00002DE9F8431E4691469B
:101CE00088460446089DFEF7BFFE401B351AFEF7E6
:101CF000BBFE074625480068C0F3CB30684338E098
:101D0000701C37D0FEF7B0FEC01BA84203D215B13D
:101D1000009860B32CE02068416821F0E001416048
:101D20006068B0F5827F0BD1A068B0F5004F02D09B
:101D3000B0F5806F04D12068016821F04001016096
:101D4000A06AB0F5005F09D12068016821F4005154
:101D500001602068016841F400510160012084F8AD
:101D60005100002084F850000320BDE8F8830025CE
:101D7000401E00902068816838EA010004D00021EC
:101D80004945BDD10020F0E70121F9E7140000200A
:101D90007047FEF76FBE30B58FB028216846FEF75A
:101DA000FAF914210AA8FEF7F6F901210804CDE991
:101DB00000100024029402250491CDE907504FF44D
:101DC000E01009906846FEF7E9FF0F20CDE90A050B
:101DD0006802CDE90C4002210AA80E94FEF7F2FE3B
:101DE0000FB030BD704700000148FFF707BC00008E
:101DF000E0000020F0B502681C4B1D4D1D4E1E4F2B
:101E00001E4C4FF0804C984209D0A04207D060454C
:101E100005D0A84203D0B04201D0B84204D122F08C
:101E2000700E4A6842EA0E02984209D0A04207D0DA
:101E3000604505D0A84203D0B04201D0B84203D1DA
:101E400022F44075CA682A434D6922F080022A4371
:101E500002608A68C2620A688262984201D0A04227
:101E600001D10969016301214161F0BD002C0140EC
:101E70000004004000080040000C00400034014015
:101E800010B5846842EA032224F47F440A432243C3
:101E9000826010BD826822F070020A4342F007019E
:101EA0008160704710B5036A046A24F0010404627B
:101EB000846924F0F00444EA021423F00A020A437D
:101EC0008461026210BD10B5036A23F0100303623F
:101ED0008369046A23F4704343EA023224F0A003C6
:101EE00043EA01118261016210BD10B5406A002110
:101EF000C185C184FFF739FC10BD0168CA6822F4AE
:101F00009072CA6001684A6922F001024A61202188
:101F100080F83A10704710B590F83A10222901D095
:101F2000022010BD82684FF480539A4201D10169AA
:101F300021B1816A9A421BD04AB10AE00268816AE3
:101F40005268C2F308020A80816A891C08E00269AB
:101F500072B10268526802F07F020A70816A491CFD
:101F60008162C18D491E0904090CC18503D016E0A8
:101F700002685268F1E70168CA6822F02002CA606C
:101F80000168CA6822F48072CA6001684A6922F056
:101F900001024A61202180F83A10FFF707FD002076
:101FA00010BD000070B5044600680169E26821F4C4
:101FB0004051114301612169A068084361690843E8
:101FC0002168CA6841F20C639A430243CA602068E0
:101FD0004169A26921F44071114341611E492068A1
:101FE000884202D1FEF794FE01E0FEF781FE00EB8D
:101FF000C00101EB0012606864218000B2FBF0F3C5
:10200000B3FBF1F36FF018067343B2FBF0F5B2FBCC
:10201000F0F605EB8305322303EB0515B5FBF1F56F
:10202000B6FBF1F605F0F00505EB0615B2FBF0F690
:10203000B2FBF0F0B0FBF1F06FF01802504306EB8A
:10204000800003EB0010B0FBF1F0216800F00F00FE
:102050002844886070BD0000003801402DE9F0413F
:10206000984617460E460446069D1DE0681C1BD088
:102070002DB1FEF7F9FCA0EB0800A84214D92068A6
:10208000C16821F4D071C1602068416921F001016B
:102090004161202084F8390084F83A00002084F857
:1020A00038000320BDE8F0812068006836EA0000AF
:1020B00004D00020B842D9D00020F3E70120F9E78E
:1020C0000148FFF753BB000028010020FEE7000095
:1020D00070B50C4C0546E068804760698047216A0E
:1020E0000F208847216AC5F307208847216AE8B294
:1020F0008847E06980470546A06980472069804796
:10210000284670BD200000202DE9F041104C064605
:102110001746E06888460025804760698047216A45
:102120000F208847216AC6F307208847216AF0B24A
:10213000884705E0E069804708F805006D1CADB2EE
:10214000BD42F7D3A06980472069BDE8F041004750
:102150002000002070B50D4C05460E46E068804713
:1021600060698047226AF0209047216AC5F3072002
:102170008847216AE8B28847216A30468847A069C3
:1021800080472069BDE87040004700002000002023
:102190002DE9F041104C06461746E06888460025B8
:1021A000804760698047216AF0208847216AC6F32A
:1021B00007208847216AF0B2884705E0216A18F8AD
:1021C000050088476D1CADB2BD42F7D3A0698047BA
:1021D0002069BDE8F0410047200000200FB4054B06
:1021E00010B503A9044A029800F0EAF810BC5DF8A3
:1021F00014FB0000812B0008840000200907090E51
:10220000002804DB00F1E02080F80014704700F0A3
:102210000F0000F1E02080F8141D704702E008C8AC
:10222000121F08C1002AFAD170477047002001E050
:1022300001C1121F002AFBD1704700002DE9FF5F8A
:1022400082B00021DDE90430020DDDF840B0034327
:1022500018D044F61050A2F2FF32424315141198E0
:1022600001281FD0A5EB0B00401C5FEA000A4FF0CD
:1022700000064E4FDFF83891B046504615D5CAF1EA
:10228000000413E0119801244AA3012801D16FEA48
:102290000B010298119AC0E90031C0E9024206B070
:1022A000BDE8F09FCBF10000DFE704460021404A83
:1022B000491842EB0450CDE9001012E0E00707D0C6
:1022C00032463B4640464946FEF75EF88046894620
:1022D00032463B4610461946FEF756F806460F466C
:1022E0006410002CEAD1DDE90401DDE90023BAF134
:1022F000000F06DAFEF748F842464B46FEF744F870
:1023000005E0FEF7B3F842464B46FEF7AFF8044649
:102310000E460022284BFEF731F903D84FF0FF306C
:10232000014607E00022254B20463146FDF785FF98
:10233000FEF70BF9102409E0002C0ADB0A22002327
:10234000FDF74AFF039B30321A55641E50EA010222
:10235000F2D1641C039AC4F111031444119A012AA6
:1023600003D0012208430DD10AE0084304D0002025
:102370004FF0110B119072E7A3EB0B056D1E0DE0F2
:102380005B4504DD4FF0000205F1010504E003DACE
:102390004FF00002A5F10105002AECD00298119936
:1023A000C0E90231C0E9004579E7000000001440AF
:1023B0000000F03F300000000000F0430000E03F6C
:1023C0002DE9FF4F95B09B468946064600250FE252
:1023D000252877D100242746F84A0121059400E0FA
:1023E000044316F8013F203B01FA03F01042F7D1F5
:1023F00030782A2811D06FF02F033078A0F1300206
:10240000092A16D8059A44F0020402EB820203EB73
:1024100042021044761C0590EFE759F8042B059210
:10242000002A03DA504244F40054059044F00204B8
:10243000761C30782E2816D116F8010F44F00404CB
:102440002A280DD06FF02F023078A0F13003092B2D
:1024500009D807EB870302EB4303C718761CF3E7A1
:1024600059F8047B761C30786C280FD006DC4C2899
:1024700017D068280DD06A2814D104E0742810D031
:102480007A280FD10DE044F400140AE044F48014DB
:1024900001E044F440147278824202D104F58014C1
:1024A000761C761C307866280BD013DC582877D041
:1024B00009DC002875D04528F6D04628F4D04728F6
:1024C0001AD19DE118E0632835D0642879D06528B9
:1024D00012D195E1702873D008DC6728F1D0692803
:1024E0006FD06E280DD06F2806D1B5E073282CD0A0
:1024F000752875D0782874D05A46179990476D1C66
:1025000075E1C4F30250022809D003280DD0D9F890
:10251000001004280DD00D6009F1040967E1D9F815
:102520000010EA17C1E90052F6E7D9F800100D8053
:10253000F2E70D70F0E719F8041B8DF80010002089
:102540008DF80100EA46012003E059F804AB4FF092
:10255000FF3061074FF0000102D40DE008F10101E6
:102560008846B9420FDA8045F8DB1AF808100029CE
:10257000F4D108E008F1010188468142FADB1AF83B
:1025800008100029F6D105985B46A0EB0807214604
:102590003846179A00F094FA284400EB080507E043
:1025A0004DE029E10DE01AF8010B5A4617999047C2
:1025B000B8F10108F7D25B4621463846179A13E175
:1025C00042E00A220092C4F302524FF0000A022AAB
:1025D00008D059F804CB032A4FEAEC710AD00DE079
:1025E00029E02AE009F1070121F00702F2E802C11F
:1025F000914609E00FFA8CFC4FEAEC71042A03D1F2
:102600004FFA8CFC4FEAEC71002907DA0A460021E8
:10261000DCF1000C61EB02012D2202E0220504D561
:102620002B228DF80420012203E0E20701D02022B2
:10263000F7E7904659E00A2102E010220DE0102150
:102640004FF0000A00910BE010224FF0000A44F016
:1026500004040827009203E008224FF0000A0092C9
:10266000C4F30252022A05D059F804CB0021032AF0
:1026700008D009E009F1070121F00702F2E802C1E0
:10268000914605E01FFA8CFC042A01D10CF0FF0CE6
:102690004FF00008220728D5702806D0009B83F051
:1026A000100353EA0A0305D00EE040228DF80420FF
:1026B000012208E05CEA010206D030228DF80420F5
:1026C0008DF8050002229046009B83F0080353EA30
:1026D0000A030AD15CEA010201D1620705D5302262
:1026E0008DF804204FF001087F1E582804D034A034
:1026F00003900EA802900DE036A0F9E7534660461D
:10270000009AFDF769FD84460398825C0298401E9A
:10271000029002705CEA0100F0D1029806A9081A42
:1027200000F1200A600702D524F4803400E001277C
:10273000574502DDA7EB0A0000E0002000EB0A018C
:10274000009005984144401A0590E00306D45B468A
:102750002146179A059800F0B3F90544002706E0D2
:1027600001A85A46C05D179990476D1C7F1C4745CC
:10277000F6DBE0030CD55B462146179A059800F07E
:102780009FF9054404E030205A46179990476D1C84
:102790000099481E00900029F5DC08E00298029993
:1027A0005A460078491C0291179990476D1CBAF15E
:1027B0000001AAF1010AF1DC65E10000092801002D
:1027C00030313233343536373839616263646566A7
:1027D0000000000030313233343536373839414269
:1027E000434445460000000000F058F90544761CBB
:1027F000307800287FF4ECAD19B02846BDE8F08FA2
:10280000620700D4062709F1070222F0070CFCE852
:102810000223E14603F000485FEA080C02D00FF201
:10282000702C0DE05FEA045C02D50FF2682C07E023
:102830005FEAC47C02D00FF2602C01E0AFF2700CB2
:102840004FF0FF3823F00043CDF850C065280CD07E
:1028500006DC452809D046281DD047283DD13DE05B
:10286000662818D067287ED138E00021112F01DBBF
:10287000112000E0781CCDE9000106A90EA8FFF7A1
:10288000DDFCDDE90F010E9A03910021009207F1B2
:10289000010A04914DE04FF000400097CDE901108E
:1028A00006A90EA8FFF7CAFCDDE90F0203920E9BF2
:1028B00011990022DDF80CA00093049211B9791C43
:1028C00000EB010AB7EB0A0004D4C0F1FF3007F1B6
:1028D000010A0490AAEB0700019044E0012F00DAFE
:1028E00001270021112F01DD112000E03846CDE93C
:1028F000000106A90EA8FFF7A1FCDDE90F010E9A61
:102900000391002104910092BA4621070CD4039947
:10291000514500DA8A46BAF1010F05DD009AAAF1A5
:102920000101515C302908D0B84202DA10F1040FDD
:1029300006DA0121CDE9011015E0AAF10101E9E76C
:10294000002805DC049901440491AAEB000102E08F
:10295000411C514500DD8A460499401A401C0190F3
:102960004FF000400290200704D40198504501DB4D
:10297000CDF8048000208DF84F0002980DF14F072C
:10298000B0F1004F25D02B200E9002984FF0020896
:1029900000280CDA404202902D200E9007E00A2118
:1029A0000298FDF703FC3031029007F8011DB8F1E1
:1029B0000001A8F10108F2DC02980028EFD1791E8D
:1029C0000E980870307800F0200040F0450007F8BD
:1029D000020D12A8C01B00F107081498007800B17E
:1029E000012000EB0A01019801EBE07105984144D8
:1029F000401A401E0590E00306D45B462146179A14
:102A0000059800F05DF805441498007818B15A460E
:102A1000179990476D1CE00324D55B462146179A11
:102A2000059800F04DF805441CE00498002807DBE9
:102A3000DDE90301884203DD0098405C179901E05D
:102A4000179930205A469047049805F10105401C1B
:102A500004900198401E019004D12E205A461799E7
:102A600090476D1CBAF10001AAF1010ADDDC05E016
:102A700017F8010B5A46179990476D1CB8F10001E1
:102A8000A8F10108F4DC5B462146179A0598ABE6ED
:102A90002D0000002B000000200000002DE9F04177
:102AA000044600251E461746880404D405E039462E
:102AB0002020B0476D1C641EF9D52846BDE8F08182
:102AC0002DE9F041044600251E469046C80301D575
:102AD000302700E02027880404D505E04146384629
:102AE000B0476D1C641EF9D52846BDE8F081000092
:102AF00070B50446042802D94FF0FF3070BD40F293
:102B0000014000EB042005461021FFF723FB284677
:102B1000FFF7DEFA0028FAD140F2024000EB042071
:102B2000FF21FFF717FB0D490120A0404A8882438F
:102B30004A808A8882438A800A31002021F8140062
:102B4000091F085540F2034000EB04242046FFF71C
:102B5000BFFA0028FAD1012070BD00006A000020F1
:102B6000012211030148FDF779BF0000000C01406C
:102B700000224FF480510148FDF770BF000C014066
:102B800013B54FF6FF73012269460248FEF710FFA6
:102B900000981CBD280100203C20FFF799BA0000D6
:102BA00010B5042204495020FFF7F2FA0121BDE8D4
:102BB00010404C20FFF7CEBA7C00002088B0FDF713
:102BC00061FFFFF7E8F8FEF74FFFFEF7C9FFFFF7D9
:102BD0001DF8FEF7E9FF3B48FEF778FC3A493B4811
:102BE00000F0BCF83A493B4800F0A6F83A4D012203
:102BF00091022846FDF732FF38A0FFF7EFFA00F008
:102C0000C3F8FFF721F800F0D7F800F017F95521C5
:102C1000084600F0EDF93648FFF7E0FA354C364F3C
:102C2000DFF8D880AE154FF400794FF4FA7A00BF80
:102C3000FFF7B6FF2078002834D0002020705F20F6
:102C4000FFF746FA012802D004282BD11EE001210B
:102C50005F20FFF77FFA062229495420FFF754FA34
:102C60002748C27890F805C003798178CDE903122E
:102C7000CDE9053C42780178F8788DE80700BB780B
:102C80007A7839781F48FFF7A9FA0BE004215F2012
:102C9000FFF760FAF8780090BB787A7839781AA054
:102CA000FFF79CFA31464046FDF7D0FE49462846DC
:102CB000FDF7CCFE31462846FDF7C8FE5046FDF72D
:102CC000A9FDB5E7E0000020D52F0008B92F0008C6
:102CD000612B0008712B0008001001400D0A5350B1
:102CE0004920496E6974204F6B210D0A00000000D5
:102CF00038300008800000207C00002000080140DF
:102D000000000020883000080D0AC0B4D7D4202568
:102D1000642E25642E25642E256420B5C4BBD8B846
:102D2000B4A3BACEDEB7A8B7C3CECAC4BFB1EAD681
:102D3000F7BBFAA1A3000000054A18B111B1C2E91E
:102D400005017047034850610348906170470000D7
:102D5000200000201730000815300008074A10B581
:102D600013889C05FDD518B111B1C2E9070110BD4A
:102D70000348D0610348106210BD0000200000200D
:102D8000193000081D30000810B50A4C00224021FF
:102D90002046FDF763FE4FF4FA70FDF73BFD01227C
:102DA00040212046FDF75AFEBDE8104040F2DC50BD
:102DB000FDF730BD001001400EB5114801218176AC
:102DC0000021C1760F498A690260898B81800146A2
:102DD00006220920FFF7DCF90A49062218310920EA
:102DE000FFF792F907481830C178437902798DE8E6
:102DF0000E0083784278017803A0FFF7EFF90EBD4B
:102E0000680100204C00002020573531303053201D
:102E10004D4143B5D8D6B720203A20253032782E00
:102E2000253032782E253032782E253032782E25F6
:102E30003032782E253032780D0A000038B531480E
:102E40002F4C81692160818BA18050F8021FC4F84A
:102E500006104168C4F80A108168C4F80E10C168F1
:102E6000C4F8121010F8020C10B1022805D101E0CC
:102E700025A000E02CA0FFF7B1F9214904220A3176
:102E80000520FFF785F91E4904220E310120FFF7C6
:102E90007FF90422A11D0F20FFF77AF919490422B6
:102EA000891C0F20FFF730F91648801CC17800916B
:102EB00083784278017825A0FFF790F91149042220
:102EC000891D0520FFF720F90E48801DC17800916B
:102ED00083784278017826A0FFF780F90949042217
:102EE0000A310120FFF710F906480A30C178009135
:102EF00083784278017827A0FFF770F938BD000089
:102F0000680100204C00002020CAB9D3C3B6A8D263
:102F1000E5B5C44950D0C5CFA2C5E4D6C3573531B5
:102F2000303053A3BA0D0A0020CAB9D3C3466C612E
:102F30007368C4DA4950D0C5CFA2C5E4D6C35735AB
:102F400031303053A3BA0D0A00000000205735314C
:102F5000303053204950B5D8D6B72020203A20250C
:102F6000642E25642E25642E25640D0A00000000C1
:102F70002057353130305320D7D3CDF8D1DAC2EBDA
:102F8000203A2025642E25642E25642E25640D0A02
:102F9000000000002057353130305320CDF8B9D82B
:102FA00020202020203A2025642E25642E25642E02
:102FB00025640D0A000000001CB54FF6FF7000905C
:102FC00001A9012322460248FEF70CF920781CBD16
:102FD0008800002001B582B04FF6FF70009002A972
:102FE00001AA01230148FEF7FDF80EBD880000206C
:102FF00010B50C4601461A20FFF7ACF82146BDE893
:1030000010401B20FFF7A6B800787047017070478A
:103010007047704770477047002070477047000046
:103020000000000000000102030406070809000078
:1030300000000102030400000D0A20573531303032
:1030400053CDF8C2E7B2CECAFDC5E4D6C3CDEAB3CC
:10305000C9A3ACC7EBCAB9D3C3B5E7C4D4202750C2
:10306000494E4727205735313030534950B5D8D6CF
:10307000B7A3ACBCECB2E9CDF8C2E7CAC7B7F1B3AD
:10308000A9CDA80D0A0000000D0AD2D1CAD5B5BD40
:10309000C0B4D7D42025642E25642E25642E256443
:1030A00020B5C450494E47BBD8D3A6A3ACB6D4B6BE
:1030B000CB4D4143CEAAA3BA2025783A25783A25AC
:1030C000783A25783A25783A2578A1A300000000BF
:1030D000F030000800000020880000001C220008DA
:1030E0007831000888000020000500002C2200082C
:1030F00000000000000000000100000010000000BF
:10310000000000000024F4000000000000000000A7
:1031100000025735313030530000000011300008F4
:103120001330000817300008153000080930000877
:103130000D30000800000000000000000000C0A8E2
:1031400001E9FFFFFF00C0A8010172727272000066
:10315000000000000008DC22333300C00000000043
:10316000000000000000000000000000C0A8016492
:08317000000000000000000057
:0400000508000131BD
:00000001FF
