:020000040800F2
:1000000000D900209D010008FF0300086D030008CF
:10001000FD030008870200084B09000800000000EB
:100020000000000000000000000000004105000882
:100030008902000800000000790400081106000889
:10004000B7010008B7010008B7010008B7010008B0
:10005000B7010008B7010008B7010008B7010008A0
:10006000B7010008B7010008B7010008B701000890
:10007000B7010008B7010008B7010008B701000880
:10008000B7010008B7010008B7010008B701000870
:10009000B7010008B7010008B7010008B701000860
:1000A000B7010008B7010008B7010008B701000850
:1000B000B7010008B7010008B7010008B701000840
:1000C000B7010008B7010008B7010008B701000830
:1000D000B7010008B7010008A1060008B701000831
:1000E000B7010008B7010008B7010008B701000810
:1000F000B7010008B7010008B7010008B701000800
:10010000B7010008B7010008B7010008B7010008EF
:10011000B7010008B7010008B7010008B7010008DF
:10012000B7010008B7010008B7010008B7010008CF
:10013000B7010008B7010008B7010008B7010008BF
:10014000B7010008B7010008B7010008B7010008AF
:10015000B7010008B7010008B7010008B70100089F
:10016000B7010008B7010008B7010008B70100088F
:10017000B7010008B7010008B7010008B70100087F
:10018000B7010008B7010008DFF80CD000F04AF80A
:1001900000480047450E000800D900200648804767
:1001A00006480047FEE7FEE7FEE7FEE7FEE7FEE75C
:1001B000FEE7FEE7FEE7FEE71506000889010008F6
:1001C0002DE9F05F0546002092469B46884606468C
:1001D000814640241BE0284641464746224600F01F
:1001E00042F853465A46C01A914110D31146184658
:1001F000224600F029F82D1A67EB01084F462246E7
:100200000120002100F020F817EB00094E41201ECC
:10021000A4F10104DFDC484631462A464346BDE8E6
:10022000F09F0000064C074D06E0E06840F0010337
:1002300094E8070098471034AC42F6D3FFF7A8FFC4
:100240009C110008CC110008202A04DB203A00FA97
:1002500002F1002070479140C2F1200320FA03F31D
:10026000194390407047202A04DB203A21FA02F01B
:100270000021704721FA02F3D040C2F120029140E0
:10028000084319467047FEE7704730B504464FF4FF
:100290007A7502E0284600F003F8641EFAD230BDF9
:1002A0000B49098848434FF0E021486100238B61E6
:1002B000086940F0010008610869C20701D0C00365
:1002C000FAD5086920F0010008618B6170470000D1
:1002D00024000020F0B5002201274FF0030C0B682A
:1002E00007FA02F52B40AB422CD1066853000CFAFA
:1002F00003F4A64306600E79D0F800E09E4046EA7B
:100300000E0606600E79012E01D0022E12D18668EB
:10031000A64386604E79D0F808E09E4046EA0E0675
:1003200086604668AE43466045688E799640B6B2B0
:1003300035434560C568A543C560CC799C40C3681A
:100340001C43C460521C102AC9D3F0BD4B07DB0EFE
:100350009A40C90810B500EB8100016A0F249C4047
:10036000A1430162016A1143016210BDFEE7000072
:100370007CB50121042000F081F80121102000F05B
:100380007DF8012000908DF804000220194D8DF8B1
:10039000050069462846FFF79DFF4FF400510024F1
:1003A00000918DF8044069462846FFF793FF082026
:1003B000114D00908DF8044069462846FFF78AFFEA
:1003C000042000908DF8044069462846FFF782FF1C
:1003D000202000908DF8044069462846FFF77AFFF8
:1003E000402000908DF8044069462846FFF772FFD0
:1003F0007CBD00000008024000100240FEE770478C
:1004000030B50F23C27801780125FAB1144A126879
:1004100001F1E02102F4E062C2F5E062C2F30722DA
:10042000C2F10404D3404278A24084781C401443B3
:10043000220181F80024007800F01F018D4040095E
:10044000800000F1E020C0F8005130BD01F01F0035
:1004500085404809800000F1E020C0F8805130BD9F
:100460000CED00E0024908430249086070470000B3
:100470000000FA050CED00E070470000044A002976
:10048000116801D0014300E0814311607047000012
:1004900030380240044A0029116801D0014300E0CD
:1004A00081431160704700004038024070B5204B16
:1004B0001968204C11F00C0104D01F4E042903D000
:1004C000082903D004601BE0066019E0184A121FD7
:1004D0001168C1F38055116801F03F0115B1B6FBF9
:1004E000F1F101E0B4FBF1F114681268C4F388146F
:1004F0006143C2F30142521C5200B1FBF2F10160B0
:1005000019680F2202EA11110C4A545C0168E1409B
:1005100041601C68072505EA9424145D21FA04F45F
:1005200084601B6805EA5333D25CD140C16070BD62
:10053000083802400024F40040787D0114000020B7
:10054000704700000CB5002227490092019208680C
:1005500040F4803008604FF4A043086800F4003095
:1005600001900098401C0090019810B900989842A2
:10057000F3D10868800334D5012001901A48403037
:10058000026842F0805202601848026842F4404219
:1005900002601548083002680260026842F40042B6
:1005A0000260026842F4A0520260031F104A1A60FF
:1005B0000A6842F080720A600A689201FCD50D490F
:1005C00040F205720A60016821F0030101600168D0
:1005D00041F0020101600168C1F381010229FAD1F1
:1005E0000CBD01920CBD00000038024000700040BC
:1005F00019544007003C02404FF0E02104280869EC
:1006000003D020F004000861704740F00400FAE7CE
:1006100070470000124810B5016841F47001016094
:100620001048016841F0010101600E4A00210832C2
:10063000116002680C4B1A400260031D0B4A1A60DD
:10064000026822F48022026006480C300160FFF745
:1006500079FF03494FF000608039086010BD000049
:1006600088ED00E000380240FFFFF6FE1030002465
:1006700010B50420FFF7C0FF064807494FF47A720F
:100680000068B0FBF1F0054980B208805043486033
:1006900010BD00000000002040420F002400002098
:1006A00070B51A4D40F22551284600F0AEF80028EA
:1006B00020D0284600F036F9C4B22146284600F082
:1006C00039F913494FF000020888030417D4430492
:1006D00004D50A2C0DD140F400400EE00D2C0AD0B8
:1006E000C0F30D030B4D401C80B2EC5408801F2852
:1006F00000D90A8070BD40F48040088070BD0A8037
:10070000BDE87040034904A000F020B90044004057
:1007100048000020E0D400206275663A25730D0A77
:1007200000000000C943018070470029818902D080
:1007300041F4005101E021F4005181817047000033
:1007400070B588B001210820FFF798FE0121480408
:10075000FFF7A0FE274E072205213046FFF7F6FDE2
:10076000072206213046FFF7F1FD02218DF8141013
:100770008DF815106020002404908DF81640012596
:100780008DF8175004A93046FFF7A4FD4FF4E1306F
:10079000ADF804400090ADF80640ADF80840ADF863
:1007A0000C400C20144CADF80A006946204600F0BD
:1007B00063F84FF4A060FFF755FE26208DF818006F
:1007C0008DF819508DF81A508DF81B5006A8FFF7B8
:1007D00017FE012240F22551204600F035F8012194
:1007E0002046FFF7A2FF40212046FFF79BFF08B0FD
:1007F00070BD0000000C0240004400400246002092
:1008000012880A4200D00120704770B501F01F0520
:1008100001260024C1F3421306FA05F2012B0FD082
:10082000022B0FD0838A4FEA11210088134206FA67
:1008300001F600EA060001D000B10124204670BD97
:100840008389F0E7038AEEE710B5C1F3421301F0A4
:100850001F040121A140012B07D0022B07D0143027
:10086000002A026805D00A4304E00C30F8E7103093
:10087000F6E78A43026010BD7FB50446008A0D4644
:10088000C98820F4405001432182A08941F20C61C3
:100890008843A9882A8911436A8902431143A181A7
:1008A000A08A20F44071A8890843A0826846FFF717
:1008B000FDFD1A48844202D01948844201D10398B0
:1008C00000E00298A189090400EBC00101EB0010CF
:1008D000296801D5490000E08900B0FBF1F06422ED
:1008E000B0FBF2F109010B096FF018056B4300EB47
:1008F0008300A3891D044FF0320306D503EBC0002B
:10090000B0FBF2F000F0070005E003EB0010B0FBD5
:10091000F2F000F00F00084320817FBD001001407D
:10092000001401408088C0F308007047C1F308013B
:100930008180704710B50446FFF7F8FF80212046FC
:10094000FFF75CFF0028F9D010BDFEE70FB4054BA0
:1009500010B503A9044A029800F02CF810BC5DF809
:1009600014FB0000210E00084C0000200FB4084BBF
:1009700010B504A902AA039800F01CF8044602A9C5
:10098000002000F048FA204610BC5DF814FB00007F
:10099000170E000802E008C8121F08C1002AFAD189
:1009A00070477047002001E001C1121F002AFBD1EF
:1009B000704700002DE9FF4F8DB00F460546002619
:1009C00006E025280BD0DDE90F1290476D1C761C40
:1009D00028780028F5D111B03046BDE8F08F00240A
:1009E000A246A1460122EC4900E0044315F8013F6C
:1009F000203B02FA03F00842F7D128782A2810D0C9
:100A00006FF02F022878A0F13001092914D80AEBE1
:100A10008A0102EB410144F0020400EB010A6D1C63
:100A2000F0E701CF5FEA000A03D544F40054CAF1AD
:100A3000000A44F002046D1C28782E2817D115F8FE
:100A4000010F44F004042A280ED06FF02F022878FA
:100A5000A0F1300109290AD809EB890102EB410113
:100A600000EB01096D1CF2E757F8049B6D1C287818
:100A70006C280FD006DC4C2817D068280DD06A28C7
:100A800014D104E0742810D07A280FD10DE044F47A
:100A900000140AE044F4801401E044F4401469783E
:100AA000814202D104F580146D1C6D1C2A786E2AD7
:100AB0001FD00CDC632A31D004DC002A8BD0582AEA
:100AC00011D1A3E0642A68D0692A0CD165E0732AA9
:100AD0002ED004DC6F2A73D0702A04D19BE0752AD3
:100AE0006FD0782A6ED01046DDE90F129047761C41
:100AF00050E1C4F30250022806D0032809D004288C
:100B000001CF09D0066045E101CFF117C0E90061CE
:100B100040E101CF06803DE106703BE117F8040B90
:100B20008DF8000000208DF80100EB46012003E065
:100B300057F804BB4FF0FF3061074FF0000102D4BB
:100B40000DE008F10101884649450FDA8045F8DBE0
:100B50001BF808100029F4D108E008F101018846CB
:100B60008142FADB1BF808100029F6D1DDE90F23DA
:100B7000AAEB08008146214600F036F9304400EB2C
:100B8000080604E0DDE90F121BF8010B9047B8F1ED
:100B90000108F7D221464846F7E00A21C4F3025380
:100BA0004FF0000B0891022B04D001CFC117032B8B
:100BB00009D00AE0FF1D27F00707F7E8020108E067
:100BC00032E01FE020E000B2C117042B01D140B297
:100BD000C117031E71F1000307DA4FF0000CD0EBD0
:100BE0000C006CEB01012D2302E0230504D52B231F
:100BF0008DF82430012303E0E30701D02023F7E739
:100C0000984658E00A2110E010210EE010204FF025
:100C1000000B08900CE010214FF0000B44F004048E
:100C20004FF00809089103E008214FF0000B0891EC
:100C3000C4F30253022B04D001CF0021032B06D0B2
:100C400006E0FF1D27F00707F7E8020103E080B286
:100C5000042B00D1C0B24FF0000823072BD5702A17
:100C600007D0DDF820C08CF0100C5CEA0B0C05D02E
:100C70000EE040238DF82430012308E050EA010300
:100C800006D030238DF824308DF825200223984695
:100C9000DDF820C08CF0080C5CEA0B0C0BD150EA9C
:100CA000010301D1630706D530238DF824304FF0BE
:100CB0000108A9F10109582A04D038A20B9208AA08
:100CC0000A920BE03AA2F9E75B46089AFFF778FA36
:100CD0000B9B9B5C0A9A521E0A92137050EA010207
:100CE000F2D10A98ADEB000000F1200B600702D5AD
:100CF00024F4803401E04FF00109D94502DDA9EB6D
:100D00000B0000E0002000EB0B0141440890AAEB2F
:100D1000010AE00306D4DDE90F232146504600F026
:100D200063F806444FF0000908E009A911F809002A
:100D3000DDE90F12904709F10109761CC145F4DB8A
:100D4000E0030CD5DDE90F232146504600F04CF8B6
:100D5000064404E0DDE90F1230209047761C089924
:100D6000481E08900029F5DC08E00A980A990078E6
:100D7000491C0A91DDE90F129047761CBBF1000176
:100D8000ABF1010BF1DC21465046DDE90F2300F009
:100D900019F806446D1C1BE6092801003031323376
:100DA00034353637383961626364656600000000A7
:100DB0003031323334353637383941424344454691
:100DC000000000002DE9F041044600251E461746AC
:100DD000880404D405E039462020B0476D1C641E09
:100DE000F9D52846BDE8F0812DE9F04104460025FB
:100DF0001E469046C80301D5302700E0202788040E
:100E000004D505E041463846B0476D1C641EF9D54F
:100E10002846BDE8F0810A68531C0B6010707047CB
:100E200070B5074D0446C1B22846FFF77FFD80210B
:100E30002846FFF7E3FC0028F9D0204670BD0000EB
:100E40000044004086B00026344637463546FFF75A
:100E50000FFCFFF78DFAFFF773FC6420FFF715FA1C
:100E600043A0FFF773FD4FF4FA70FFF70EFA00206E
:100E700000F0E6F8012000F0E3F8DFF80491DFF875
:100E800004814FF0640AD8F8340280B91E20FFF7BD
:100E9000FCF9D8F8340250B94FF40061284600F04C
:100EA0005BF9040003D0324637A1FFF75FFDD9F8A4
:100EB0000C0278B91E20FFF7E8F9D9F80C0248B9FE
:100EC00044B1324630A12046FFF750FD214634A000
:100ED000FFF73CFDD9F8180250B91E20FFF7D5F9ED
:100EE000D9F8180220B92146284600F029F9002433
:100EF000D9F81402A0B91E20FFF7C7F9D9F81402D7
:100F000070B96D1CEDB2012D01D9002503E015B1BA
:100F1000012D02D004E025A000E027A0FFF716FD78
:100F2000A7420ED02746224626A16846FFF71EFD9F
:100F3000694628A0FFF70AFD1CB1214628A0FFF74B
:100F400005FD0A20FFF7A1F9761CF6B2B6FBFAF10F
:100F50000AFB1160002896D1D8F88002002641468D
:100F600018B10020C1F880028DE70120FAE70000E7
:100F700068656C6C6F2C776F726C640D0A000000F2
:100F800000004242000041424D656D6F7279204D74
:100F9000616C6C6F6320546573742530336400009A
:100FA000702069732025730D0A0000005352414DD3
:100FB000494E0D0A000000005352414D45580D0A9C
:100FC000000000005020416464723A3058253038E7
:100FD0005800000070616464723A25730D0A0000C5
:100FE000703A25730D0A000070B5134A13181B7E62
:100FF00093B1124B53F820308B421AD90F4B02EBAE
:101000008002083B53F820301069B1FBF3F130F84F
:1010100011400020034608E011688847012070BD98
:1010200015690E18401C25F81630A042F8DB002088
:1010300070BD022070BD00002C000020941100083B
:1010400070B504460B480C4E002150F8240006EB06
:1010500084054200286900F08FF80648002110300E
:1010600050F82420A86800F087F80120311908768C
:1010700070BD0000841100082C0000202DE9F04113
:101080001F4E0546002470190F46007E10B93168C6
:10109000284688474FF0FF327FB31A4B53F825108C
:1010A000B7FBF1F0B7FBF1FC01FB1C7101B1401C77
:1010B0001449083951F82510491E1ED406EB85063F
:1010C000376937F811C0BCF1000F05D00024844205
:1010D00011D1002284B207E0641CF8E7376901EB04
:1010E000020C521C27F81C408242F7D353F825000B
:1010F0004843BDE8F081491EE3D51046F9E70000FA
:101100002C0000208C11000810B50B4B0B4C00225A
:1011100053F82030114604EB800005E0046934F8F0
:10112000114004B1521C491C8B42F7D86420424341
:10113000B2FBF3F0C0B210BD841100082C000020F7
:10114000002906D0034A02EB80029268891AFFF751
:101150004BBF70472C00002010B50446FFF78EFFF0
:10116000411C05D0034901EB84018968084410BD86
:10117000002010BD2C00002001E000F8011B521ED1
:10118000FBD27047400600008007000020000000EE
:101190002000000000C8000000F00000CC11000892
:1011A0000000002050000000940900081C120008F4
:1011B00050000020B0D80000A40900081C1200084C
:1011C0000000001000FF0000A4090008007A030AD4
:1011D00000000000000000000102030406070809E7
:1011E00000000000010203040102030406070809CD
:1011F0000000000000000000411000080911000874
:10120000600000200000001060C8002000F0001006
:0C121000000000000000000000000000D2
:040000050800018965
:00000001FF
