:020000040800F2
:1000000058050020C10100089F15000809140008C8
:100010009D15000825030008591A0008000000007B
:10002000000000000000000000000000A315000810
:100030002703000800000000A1150008A51500080E
:10004000DB010008DB010008DB010008DB01000820
:10005000DB010008DB010008DB010008DB01000810
:10006000DB010008DB010008DB010008DB01000800
:10007000DB010008DB010008DB010008DB010008F0
:10008000DB010008DB010008DB010008DB010008E0
:10009000DB010008DB010008DB010008DB010008D0
:1000A000DB010008DB010008DB010008DB010008C0
:1000B00051160008DB010008DB010008DB01000825
:1000C000DB010008DB010008DB010008DB010008A0
:1000D000DB010008411A0008DB0100084D1A000886
:1000E000DB010008DB010008DB010008DB01000880
:1000F000DB010008DB010008DB010008DB01000870
:10010000DB010008DB010008DB010008DB0100085F
:10011000DB010008DB010008DB010008DB0100084F
:10012000DB010008DB010008DB010008DB0100083F
:10013000DB010008DB010008DB010008DB0100082F
:10014000DB010008DB010008DB010008DB0100081F
:10015000DB010008DB010008DB010008DB0100080F
:10016000DB010008DB010008DB010008DB010008FF
:10017000DB010008DB010008DB01000800000000D3
:10018000DB010008DB010008DB010008DB010008DF
:10019000DB010008DB010008DB010008DB010008CF
:1001A0000000000000000000DB010008DFF80CD0B8
:1001B00000F0A6F800480047FD1A00085805002086
:1001C0000648804706480047FEE7FEE7FEE7FEE7F1
:1001D000FEE7FEE7FEE7FEE7FEE7FEE7351600086E
:1001E000AD0100082DE9F05F0546002092469B46D0
:1001F00088460646814640241BE02846414647463D
:10020000224600F06CF853465A46C01A914110D36A
:1002100011461846224600F053F82D1A67EB0108E4
:100220004F4622460120002100F04AF817EB000952
:100230004E41201EA4F10104DFDC484631462A4627
:100240004346BDE8F09F40EA01039B0703D009E065
:1002500008C9121F08C0042AFAD203E011F8013BB2
:1002600000F8013B521EF9D27047D2B201E000F80B
:10027000012B491EFBD270470022F6E710B513464A
:100280000A4604461946FFF7F0FF204610BD30B578
:1002900005462A460B4612F8010B13F8014B08B12C
:1002A000A042F8D01CB1002802D06D1CF1E728460E
:1002B00030BD421C10F8011B0029FBD1801A704789
:1002C000202A04DB203A00FA02F100207047914016
:1002D000C2F1200320FA03F3194390407047202A0B
:1002E00004DB203A21FA02F00021704721FA02F3E0
:1002F000D040C2F1200291400843194670470000E7
:10030000064C074D06E0E06840F0010394E8070062
:1003100098471034AC42F6D3FFF74CFF581D000845
:10032000781D0008FEE77047704790F835100229E5
:1003300003D08021416501207047052180F83510E8
:100340000068016821F00101016000207047000091
:1003500070B5044600F004F90546601C02D004485C
:100360000078044400F0FCF8401BA042FAD370BDB2
:10037000040000202DE9F84F00224FF0010803256A
:100380004FF00F0E0B6808FA02F42340A3426ED11F
:100390004E68012E05D0022E03D0112E01D0122E50
:1003A00012D186684FEA420C05FA0CF7BE43CF68BB
:1003B00007FA0CF7374387604668A6430C79C4F305
:1003C0000014944034434460C668570005FA07FCA3
:1003D0008C6826EA0C06BC403443C4604C68022C8E
:1003E00001D0122C13D1D40800EB8404A346D4F816
:1003F000209054074FEAD46A0EFA0AF629EA060951
:100400000E6906FA0AF646EA0906CBF82060046887
:100410000E7924EA0C0406F00306BE40264306606B
:100420004C68E4006FD53B4C266846F48046266055
:10043000246822F0030604F480440094364C3444CB
:10044000A446D4F808489607360F0EFA06F7BC43C0
:10045000324FB84201D100272EE0314FB84201D1CE
:10046000012729E02F4FB84202D1022724E04AE0B9
:100470002D4FB84201D103271EE02C4FB84201D1C5
:10048000042719E02A4FB84201D1052714E0294F6B
:10049000B84201D106270FE0274FB84201D1072704
:1004A0000AE0264FB84201D1082705E0244FB842A0
:1004B00001D1092700E00A27B7402743CCF8087884
:1004C000204E34684F689C43FF0300D51C433460C2
:1004D0001C4E361D34684F689C43BF0300D51C4337
:1004E0003460184E083634684F689C43FF0200D5CC
:1004F0001C433460134E0C3634684F689C43BF0273
:1005000000D51C433460521C102AFFF43BAFBDE8F9
:10051000F88F0000443802400030014000000240E3
:100520000004024000080240000C0240001002409B
:100530000014024000180240001C0240002002404B
:1005400000240240003C0140426931EA020200D12D
:100550000904816170470AB1816170470904FBE7B2
:10056000014880687047000004000020024881684C
:100570000278114481607047040000200B4810B5D8
:10058000016841F400710160016841F4806101601B
:10059000016841F480710160032000F06FF80020D1
:1005A00000F006F800F024F8002010BD003C0240E6
:1005B00070B50D4D04464FF47A712878B1FBF0F018
:1005C0000A490968B1FBF0F000F03CFB48B9102C77
:1005D00007D200222146501E00F030F800206C6047
:1005E00070BD012070BD000004000020100000203C
:1005F0000A4808B5016841F480410160006800F4D0
:10060000804000900548001F016841F08051016062
:10061000006800F08050009008BD0000443802409F
:10062000002809DB00F01F020121914040098000F1
:1006300000F1E020C0F8001170470000F0B40E4B4C
:100640001B680C46C3F30223C3F10705042D00D930
:100650000425191D072901D2002300E0DB1E012615
:1006600006FA05F1491E214099409E40761E16402B
:100670003143F0BC01F0F1B90CED00E0064900F0A7
:10068000070208684FF6FF03184040EA0220034AB9
:1006900010430860704700000CED00E00000FA0510
:1006A0002DE9F8431748016841F080510160006866
:1006B000154F00F08050012600903E64FFF750FF78
:1006C00005464FF47A78114C05E000BFFFF748FF6C
:1006D000401B40450DD86068C003F7D57E64FFF726
:1006E0003FFF0546464607E0FFF73AFF401BB04292
:1006F00002D90320BDE8F88360688003F4D50020A8
:10070000F8E700004038024000000E420070004050
:100710002DE9F0470E46050065D0DFF81481D8F8C2
:100720000000F7B200F00F00B04207D288F8007066
:10073000D8F8000000F00F00B04254D128683D4CBA
:10074000810712D5400703D5206840F4E0502060AF
:100750002878000703D5206840F4604020602068B6
:10076000A96820F0F000084320602878C0072DD049
:10077000304968680839012812D0022813D00328AC
:1007800011D00968890700292DDA216821F00301B9
:1007900001432160FFF7E4FE814641F2883A0EE012
:1007A00009688903EFE709688901ECE7FFF7D8FEDC
:1007B000A0EB0901514502D90320BDE8F08720686C
:1007C000696800F00C00B0EB810FEFD1D8F8001091
:1007D000404601F00F01B14207D90770006800F0F0
:1007E0000F00B04201D00120E7E72878400705D587
:1007F0002068E96820F4E05008432060287800076A
:1008000006D52068296920F4604040EAC1002060D4
:1008100000F038F82168084AC1F30311515CC84060
:100820000649086006480068FFF7C2FE0020C4E7DA
:10083000003C024008380240401D00081000002023
:10084000080000200448054900680968044AC1F30B
:100850008221515CC84070471000002008380240D7
:10086000501D00080448054900680968044AC1F39E
:100870004231515CC84070471000002008380240E7
:10088000501D0008154810B5006810F00C021448FF
:1008900013D01449042A0FD0082A0ED10F4C241F5C
:1008A0002268236802F03F025B0207D52068C0F38C
:1008B0008810A0FB010106E0084610BD2168C1F3C5
:1008C0008811A1FB00010023FFF78CFC2168C1F314
:1008D0000141491C4900B0FBF1F010BD083802404D
:1008E0000024F40040787D012DE9F84F04006ED01B
:1008F0002078DFF83C93C007A9F104054AD009F13C
:1009000004000168C1F38101012908D00068C0F327
:10091000810002280AD1D9F80000400206D52868D3
:10092000800337D560680028E1D033E06068B0F517
:10093000803F10D0B0F5A02F286810D020F4803070
:100940002860286820F4802028606068A8B1FFF73C
:1009500007FE06460DE0286840F48030F4E740F4D6
:1009600080202860F7E700BFFFF7FAFD801B6428AE
:1009700073D828688003F7D50CE0FFF7F1FD064631
:1009800005E000BFFFF7ECFD801B6428F0D8286865
:100990008003F7D42078DFF89C8280074FF0000AAC
:1009A0003ED5A348001D016811F00C0F08D0006867
:1009B000C0F3810002280BD1D9F80000400207D40F
:1009C0002868800716D5E068012800D112E02BE1E5
:1009D000E068B8B10120C8F80000FFF7C1FD064685
:1009E00005E000BFFFF7BCFD801B0228C0D82868C7
:1009F0008007F7D52868216920F0F80040EAC10097
:100A000028600DE0C8F800A0FFF7AAFD064604E044
:100A1000FFF7A6FD801B02281FD828688007F7D49F
:100A20002078000722D5824E83486169703671B103
:100A300001210160FFF794FD074604E0FFF790FDF8
:100A4000C01B022809D830688007F7D50EE0C0F82F
:100A500000A0FFF785FD074605E082E0FFF780FD77
:100A6000C01B02287DD830688007F7D42078400763
:100A700068D5DFF8BCB100270BF13C0BDBF80000B8
:100A8000C0000BD4DBF8001041F08051CBF800100F
:100A9000DBF80000012700F080500090674E3068BE
:100AA000C00510D4306840F480703060FFF758FD06
:100AB000009005E0FFF754FD0099401A022850D835
:100AC0003068C005F6D55A4EA0686C3601280FD0A4
:100AD0000528306810D020F001003060306820F028
:100AE00004003060A068B8B1FFF73AFD00900FE055
:100AF000306840F00100F4E740F004003060F7E7B0
:100B0000FFF72EFD0099411A41F28830814266D8E4
:100B100030688007F4D50EE0FFF722FD009007E073
:100B2000FFF71EFD0099411A41F28830814256D8E4
:100B300030688007F4D42FB1DBF8001021F0805129
:100B4000CBF80010A069C8B33949091D0968C1F381
:100B5000810102294AD00228504607D0C8F8600017
:100B600000E03CE0FFF7FCFC04463BE04746C8F8E9
:100B70006000FFF7F5FC064605E000BFFFF7F0FC5C
:100B8000801B02282BD828688001F7D4D4E90701FC
:100B90000843A16A2A4A490802EB0141626A41EA14
:100BA0008211084394F82C1040EA0161C9F8001042
:100BB00001203866FFF7D4FC044606E036E000BFAB
:100BC000FFF7CEFC001B022809D828688001F7D562
:100BD0002CE000BFFFF7C4FC001B022802D9032051
:100BE000BDE8F88F28688001F4D41FE00128F7D011
:100BF000D9F80000E26900F48001914214D1226A20
:100C000000F03F0191420FD147F6C071626A014086
:100C1000914209D1A26A00F44031914204D1E16AC3
:100C200000F07060884201D00120D9E70020D7E7AA
:100C30000438024000004742800E474200700040E6
:100C40000000FFFF10B5401EB0F1807F01D30120EE
:100C500010BD4FF0E02460610F21601700F0FDFE31
:100C60000020A06107202061002010BD7047704760
:100C700070B590F83C20012A32D0012480F83C4025
:100C8000022280F83D2003685A689D6822F07006B1
:100C90000A6832435A60134B02689A4214D0B2F188
:100CA000804F11D0104B9A420ED0104B9A420BD06D
:100CB0000F4B9A4208D00F4B9A4205D00E4B9A42E6
:100CC00002D00E4B9A4204D1496825F080031943A3
:100CD000916080F83D40002180F83C10084670BDCE
:100CE000022070BD000001400004004000080040E8
:100CF000000C00400004014000400140001800408A
:100D000010B5040003D094F83D0010B107E00120B5
:100D100010BD002084F83C00204600F00DF80220B1
:100D200084F83D00211D206800F098FC012084F823
:100D30003D00002010BD000008B50068B0F1804FF4
:100D400012D10A48016841F00101016000680022E7
:100D500000F00100009002211C20FFF76FFCBDE8AD
:100D600008401C20FFF75CBC08BD00004038024072
:100D70000168CA6842F00102CA600068816801F037
:100D80000701062903D0016841F00101016000203C
:100D9000704770B5044690F83C00012817D0012533
:100DA00084F83C50022084F83D002068826822F0DC
:100DB000770222F47F4282600868502830D00DDC30
:100DC00020284DD005DC98B310283BD148E0022004
:100DD00070BD302844D0402834D139E0602828D074
:100DE000702806D0B0F5805F2CD0B0F5005F29D117
:100DF0000AE0CB68D1E90121206800F093FC20686B
:100E0000816841F0770109E0CB68D1E901212068D0
:100E100000F088FC2068816841F48041816011E025
:100E2000CA684968206800F08FFC5021206807E0FC
:100E300016E0CA684968206800F097FC60212068C5
:100E400000F07AFC84F83D50002084F83C0070BD2E
:100E5000CA684968206800F077FC40212068EFE705
:100E6000226801461046EBE7704770B504460068FB
:100E700001694FF00005C943890715D4C168C9430A
:100E8000890711D4E91E016101202077206880695B
:100E90008007204602D0FFF7E7FF04E000F098F853
:100EA000204600F096F8257720680169C943490774
:100EB00017D4C168C943490713D46FF00401016115
:100EC000022020772068806910F4407F204602D0FD
:100ED000FFF7CAFF04E000F07BF8204600F079F845
:100EE000257720680169C943090716D4C168C94339
:100EF000090712D46FF008010161042020772068EF
:100F0000C0698007204602D0FFF7AEFF04E000F082
:100F10005FF8204600F05DF8257720680169C94335
:100F2000C90617D4C168C943C90613D46FF01001AC
:100F30000161082020772068C06910F4407F2046B6
:100F400002D0FFF791FF04E000F042F8204600F0E5
:100F500040F8257720680169C943C90708D1C168ED
:100F6000C943C90704D1891E0161204600F032F847
:100F700020680169C943090609D4C168C943090643
:100F800005D46FF0800101612046FFF76FFE2068F5
:100F90000169C943490609D4C168C943490605D452
:100FA0006FF040010161204600F01AF820680169E5
:100FB000C94389060BD4C168C943890607D46FF0B9
:100FC000200101612046BDE87040FFF750BE70BDB2
:100FD0007047704720210148FFF7B6BA001402405D
:100FE0007047704770B5026804461068D16853694D
:100FF00010F00F0F53D003F0010501F490762E434B
:101000005FD0C20705D0CA0503D5E26B42F00102EA
:10101000E263420705D5DA0703D0E26B42F0020231
:10102000E263820705D5DA0703D0E26B42F00402DF
:10103000E263020707D501F020022A4303D0E26BE6
:1010400042F00802E263E26B002A34D0800604D545
:10105000880602D5204600F0B0FB20684069E16BAD
:10106000C0F3801001F008010143204624D000F0B5
:1010700096FB2068416949061AD5416921F0400173
:101080004161606BA0B11B490165606BFFF74DF9D1
:10109000002810D0606B016DBDE8704008478306E2
:1010A0000FD58B060DD52046BDE8704000F085BBFE
:1010B0002046FFF796FF70BDFFF793FF0020E06327
:1010C00070BD030606D50B0604D52046BDE870406A
:1010D00000F052BC4006F3D54806F1D5D168204651
:1010E00021F04001D160202184F8391000F08BF903
:1010F00070BD00008F17000870B5040004D094F88C
:101100003900002510B106E0012070BD84F8385088
:10111000204600F023F8242084F839002068C168B4
:1011200021F40051C160204600F092FB2068016963
:1011300021F4904101612068416921F02A01416157
:101140002068C16841F40051C160E563202084F843
:10115000390084F83A00002070BD000070B586B0F8
:10116000044614216846FFF787F82B4E22680021B9
:101170002A48022303240725B24222D1274A1432E7
:10118000166846F010061660126802F0100205920A
:10119000026842F002020260006802AA00F0020047
:1011A000059082E83200C020CDE9000369461C4862
:1011B000FFF7E0F8002211462520FFF73FFA25202F
:1011C00025E0184EB24224D1144A1032166846F473
:1011D00080261660126802F480220592026842F0AE
:1011E00008020260006802AA00F00800059082E888
:1011F00032004FF44070CDE9000369460A48FFF71A
:10120000B9F8002201212720FFF718FA2720FFF75D
:1012100007FA06B070BD00000010014030380240EF
:101220000004024000480040000C024090F83A30B0
:10123000202B22D1F9B1F2B190F83830012B1CD01B
:1012400081628285C2850021C163222280F83A2012
:1012500080F838100168CA6842F48072CA60016878
:101260004A6942F001024A610068C16841F0200108
:10127000C1600020704701207047022070470000C5
:1012800030B5A1B00446802224496846FEF7DBFF52
:101290006846FFF70EF882B280236946204800F0C6
:1012A00055F820492068884228D11F481F4D441E08
:1012B000017820782954401C20700A291AD18023F3
:1012C00006221BA11C4800F041F821780020685438
:1012D00020702846FEF7EDFF82B28023294616488B
:1012E00000F034F815A12846FEF7D1FF10B12846CA
:1012F00000F0D2FB01220C490F480BE01049884254
:101300000AD1802306220FA10B4800F01FF801220A
:1013100005490348FFF78AFF21B030BDC01B000814
:1013200014010020001001400100002014000020E2
:1013300075617274313A0000D40000206C6564005D
:10134000004800400A6573703A0000002DE9F84338
:10135000044690F839001F4616460D46202850D105
:10136000B5B1AEB194F8380001284AD0012084F814
:1013700038004FF00008C4F83C80212084F8390080
:10138000FFF7EEF8A6848146E68484F8388026E0EC
:101390000120BDE8F883E08C401EE084A0684B4645
:1013A000B0F5805F4FF000024FF0800120460097BB
:1013B00003D000F012FBE8B90DE000F00EFBC8B955
:1013C00028882168C0F308004860206908B16D1CB6
:1013D00005E0AD1C03E0216815F8010B4860E08CC6
:1013E0000028D8D14B46002240212046009700F02B
:1013F000F4FA08B10320CCE7202084F8390000205B
:10140000C7E70220C5E77047FEE70000F0B587B0E8
:1014100014216846FEF730FF25480024016841F09A
:1014200020010160016801F020010591016841F08F
:1014300080010160016801F080010591016841F0BF
:1014400008010160016801F008010591016841F09F
:1014500040010160016801F040010591016841F01F
:10146000020101600068134E00F0020005900022A6
:1014700021213046FFF76FF80F4F00223021384608
:10148000FFF769F8212000900125CDE90154694654
:1014900030460394FEF76EFF30200090CDE90154F2
:1014A000694638460394FEF765FF07B0F0BD0000BB
:1014B00030380240001402400018024010B586B0D7
:1014C00000241648009401940294039404944FF06D
:1014D0008041059401605921C0E901141049C0E917
:1014E000031480218161FFF70BFC08B1FEF71CFF9C
:1014F0004FF48050009069460848FFF74AFC08B155
:10150000FEF712FF049404A904480594FFF7B0FB0A
:10151000002801D0FEF708FF06B010BD940000209F
:101520009F8601000D4810B50B4901604FF416511C
:101530004160002181600C22C160C0E90412816118
:101540004FF40041C161FFF7D7FD002803D0BDE88B
:101550001040FEF7E9BE10BD00100140D40000208D
:101560000D4810B50B4901604FF4E1314160002195
:1015700081600C22C160C0E9041281614FF4004116
:10158000C161FFF7B9FD002803D0BDE81040FEF7A8
:10159000CBBE10BD0048004014010020FEE770479C
:1015A00070477047FEF7E2BF30B593B03021684610
:1015B000FEF762FE14210CA8FEF75EFE1B48002514
:1015C000016841F080510160006800F08050119086
:1015D0001748016841F4404101600068022400F4AA
:1015E0004040119001200090000401908001CDE95D
:1015F0000640192008904FF4B470CDE90904042086
:101600000B906846FFF770F9FFF74AF80CA90F2016
:1016100081E831004FF4A0500F90E00210900521B6
:101620000CA8FFF775F813B030BD00004038024039
:10163000007000400548016841F4700101600349F1
:101640004FF00060803908607047000088ED00E0CE
:101650000148FFF70ABC000094000020F0B50268C2
:10166000254C264D264E274F274B4FF0804CA0424D
:1016700009D0604507D0A84205D0B04203D0B84297
:1016800001D0984204D122F0700E4A6842EA0E025C
:10169000A0421BD0604519D0A84217D0B04215D047
:1016A000B84213D0984211D0184DA8420ED0184D10
:1016B000A8420BD0174DA84208D0174DA84205D01C
:1016C000164DA84202D0164DA84203D122F440750F
:1016D000CA682A434D6922F080022A4302608A6860
:1016E000C2620A688262A04201D0984201D10969AF
:1016F000016301214161F0BD000001400004004090
:1017000000080040000C004000040140004001407F
:10171000004401400048014000180040001C004007
:101720000020004010B5846842EA032224F47F447C
:101730000A432243826010BD826822F070020A438D
:1017400042F007018160704710B5036A046A24F013
:1017500001040462846924F0F00444EA021423F0D2
:101760000A020A438461026210BD10B5036A23F0C5
:10177000100303628369046A23F4704343EA02326C
:1017800024F0A00343EA01118261016210BD10B58B
:10179000806B0021C185C184FFF723FC10BD016867
:1017A000CA6822F49072CA6001684A6922F0010294
:1017B0004A61202180F83A10704710B590F83A102D
:1017C000222901D0022010BD8168B1F5805F11D0BF
:1017D0000169002901681FD0496801F07F03816A0F
:1017E0004A1C82620B70C18D491E0904090CC18517
:1017F00018D02BE00269816A002A0268526805D07D
:10180000D2B20A80816A491C8162ECE7C2F3080205
:101810000A80816A891CF7E74A68816A4B1C8362E7
:101820000A70E0E70168CA6822F02002CA60016815
:10183000CA6822F48072CA6001684A6922F0010213
:101840004A61202180F83A10FFF71AFD002010BDF0
:101850002DE9F041044600680169E26821F4405135
:10186000114301612169A068E2690843616911437C
:1018700008432168CA6849F20C639A430243CA606C
:1018800020684169A26921F4407111434161E06916
:10189000192764253226B0F5004F354A35492068AE
:1018A0004FF0000806D0884201D0904236D1FEF7B2
:1018B000D9FF35E0884201D0904202D1FEF7D2FF35
:1018C00001E0FEF7BFFF61684A18A0FB070148EB83
:1018D0000803FEF787FC0146B0FBF5F00201B1FBFF
:1018E000F5F06FF01803584301EB800006EBC000E1
:1018F000B0FBF5F000F0F80002EB4002B1FBF5F0B0
:10190000584301EB800006EBC000B0FBF5F000F09F
:101910000700216810448860BDE8F081FEF792FF5F
:1019200061688B0F8A00A0FB0701FEF75BFC014694
:10193000B0FBF5F06FF01802504301EB800006EBAE
:101940000010B0FBF5F000F0F002B1FBF5F002EB97
:101950000012B1FBF5F06FF01803584301EB800063
:1019600006EB0010B0FBF5F000F00F00D1E700002F
:10197000001401400010014090F83910212901D0D5
:10198000022070478168B1F5805F016A0BD04A1C64
:101990000262026809785160C18C491E0904090C71
:1019A000C1840ED017E009880268C1F308015160B4
:1019B00001690029016A02D0491C0162ECE7891C17
:1019C000FBE70168CA6822F08002CA600068C1684B
:1019D00041F04001C160002070472DE9F041984678
:1019E00017460E460446069D1DE0681C1BD02DB10F
:1019F000FEF7B6FDA0EB0800A84214D92068C16824
:101A000021F4D071C1602068416921F00101416178
:101A1000202084F8390084F83A00002084F8380047
:101A20000320BDE8F0812068006836EA000004D099
:101A30000020B842D9D00020F3E70120F9E70000E8
:101A40000148FFF7CFBA0000D40000200148FFF79B
:101A5000C9BA000014010020FEE70907090E00289A
:101A600004DB00F1E02080F80014704700F00F0064
:101A700000F1E02080F8141D704702E008C8121F32
:101A800008C1002AFAD170477047002001E001C167
:101A9000121F002AFBD1704770B5044680230B2229
:101AA00010A11348FFF752FC2046FEF702FC2079F4
:101AB000104D302810A104F1060004D0FEF7E7FB1A
:101AC00048B1002208E0FEF7E2FB08B1002200E086
:101AD0000122102101E0012220212846BDE87040AA
:101AE000FEF739BD4C4544204F4E2F4F46460A0065
:101AF000D4000020001802406F6E0000C0B0FEF756
:101B00003DFDFFF751FDFFF781FCFFF70BFDFFF7F0
:101B1000D5FCFFF725FD234C012221212046FEF7AD
:101B20001AFD012230212048FEF715FD1F48FFF75E
:101B30001FF901221E491F48FFF778FB1C490122AB
:101B4000491C1D48FFF772FB80221C496846FEF7BE
:101B50007AFB6846FEF7ADFB82B2802369461548E2
:101B6000FFF7F4FB15498022803120A8FEF76BFBBC
:101B700020A8FEF79EFB82B2802320A90E48FFF723
:101B8000E5FB4FF4487501212046FEF7DDFCC82037
:101B9000FEF7DEFB01212046FEF7D6FC2846FEF7C5
:101BA000D7FBF0E700140240001802409400002028
:101BB00001000020D400002014010020401C000877
:101BC00041540D0A00000000000000000000000069
:101BD0000000000000000000000000000000000005
:101BE00000000000000000000000000000000000F5
:101BF00000000000000000000000000000000000E5
:101C000000000000000000000000000000000000D4
:101C100000000000000000000000000000000000C4
:101C200000000000000000000000000000000000B4
:101C300000000000000000000000000000000000A4
:101C40005468697320697320666F722065766572C7
:101C500079206F6E65210D0A000000000000000071
:101C60000000000000000000000000000000000074
:101C70000000000000000000000000000000000064
:101C80000000000000000000000000000000000054
:101C90000000000000000000000000000000000044
:101CA0000000000000000000000000000000000034
:101CB0000000000000000000000000000000000024
:101CC00041540D0A00000000000000000000000068
:101CD0000000000000000000000000000000000004
:101CE00000000000000000000000000000000000F4
:101CF00000000000000000000000000000000000E4
:101D000000000000000000000000000000000000D3
:101D100000000000000000000000000000000000C3
:101D200000000000000000000000000000000000B3
:101D300000000000000000000000000000000000A3
:101D4000000000000000000001020304060708096B
:101D50000000000001020304781D000800000020BC
:101D6000140000007A1A00088C1D000814000020DE
:101D7000440500008A1A000800000000010000006D
:0C1D800010000000000000000024F4002F
:04000005080001AD41
:00000001FF
