:020000040800F2
:10000000701400209D010008FB16000895140008DC
:10001000F916000823030008E12E00080000000084
:100020000000000000000000000000007918000837
:100030002503000800000000771800088518000854
:10004000B7010008B7010008B7010008B7010008B0
:10005000B7010008B7010008B7010008B7010008A0
:10006000B7010008B7010008B7010008B701000890
:10007000B7010008B7010008B7010008B701000880
:10008000B7010008B7010008B7010008B701000870
:10009000B7010008B7010008B7010008B701000860
:1000A000B7010008B7010008B7010008B701000850
:1000B000B7010008B7010008B7010008B701000840
:1000C000B7010008B7010008B7010008B701000830
:1000D000B7010008B7010008B7010008B701000820
:1000E000B7010008B7010008B7010008B701000810
:1000F000B7010008B7010008B7010008B701000800
:10010000B7010008B7010008B7010008B7010008EF
:10011000B7010008B7010008B7010008B7010008DF
:10012000B7010008B7010008B7010008B7010008CF
:10013000B7010008B7010008B7010008B7010008BF
:10014000B7010008B7010008B7010008FD16000854
:10015000B7010008B7010008B7010008B70100089F
:10016000B7010008B7010008B7010008B70100088F
:10017000B7010008B7010008B7010008000000003F
:10018000B7010008B7010008DFF80CD000F08CF8C8
:1001900000480047712F000870140020064880476F
:1001A00006480047FEE7FEE7FEE7FEE7FEE7FEE75C
:1001B000FEE7FEE7FEE7FEE72119000889010008D7
:1001C0002DE9F05F0546002092469B46884606468C
:1001D000814640241BE0284641464746224600F01F
:1001E00053F853465A46C01A914110D31146184647
:1001F000224600F03AF82D1A67EB01084F462246D6
:100200000120002100F031F817EB00094E41201EBB
:10021000A4F10104DFDC484631462A464346BDE8E6
:10022000F09F40EA01039B0703D009E008C9121FB1
:1002300008C0042AFAD203E011F8013B00F8013BA0
:10024000521EF9D27047D2B201E000F8012B491ECC
:10025000FBD270470022F6E710B513460A46044663
:100260001946FFF7F0FF204610BD202A04DB203A94
:1002700000FA02F1002070479140C2F1200320FAF9
:1002800003F3194390407047202A04DB203A21FAF7
:1002900002F00021704721FA02F3D040C2F120029F
:1002A0009140084319467047064C074D06E0E06848
:1002B00040F0010394E8070098471034AC42F6D3AD
:1002C000FFF766FF743000089430000870B58C1892
:1002D00010F8015B15F0070301D110F8013B2A115A
:1002E00006D110F8012B03E010F8016B01F8016B47
:1002F0005B1EF9D12B0705D40023521E0DD401F843
:10030000013BFAE710F8013BCB1A921C03E013F80B
:10031000015B01F8015B521EF9D5A142D8D3002040
:1003200070BDFEE7704772B6FEE7000070B5044688
:1003300000F0F0F80546601C02D004480078044440
:1003400000F0E8F8401BA042FAD370BD6400002022
:100350002DE9F84F00224FF0010803254FF00F0E52
:100360000B6808FA02F42340A3426ED14E68012EB6
:1003700005D0022E03D0112E01D0122E12D1866884
:100380004FEA420C05FA0CF7BE43CF6807FA0CF7A8
:10039000374387604668A6430C79C4F30014944041
:1003A00034434460C668570005FA07FC8C6826EAA7
:1003B0000C06BC403443C4604C68022C01D0122CA3
:1003C00013D1D40800EB8404A346D4F8209054073A
:1003D0004FEAD46A0EFA0AF629EA06090E6906FA05
:1003E0000AF646EA0906CBF8206006680C7926EA88
:1003F0000C0604F00304BC40344304604C68E40081
:1004000065D5364C266846F480462660246822F07E
:10041000030604F480440094314C3444A446D4F8D8
:1004200008489607370F0EFA07F6B4432D4EB04230
:1004300001D1002624E02C4EB04201D101261FE05C
:100440002A4EB04202D102261AE040E0284EB042C5
:1004500001D1032614E0274EB04201D104260FE05B
:10046000254EB04201D105260AE0244EB04201D10A
:10047000062605E0224EB04201D1072600E00826FC
:10048000BE402643CCF808681E4E34684F689C4333
:10049000FF0300D51C4334601A4C241D26684F68A6
:1004A0009E43BF0300D51E432660164E08363468AF
:1004B0004F689C43FF0200D51C433460114E0C363C
:1004C00034684F689C43BF0200D51C433460521C03
:1004D000102AFFF445AFBDE8F88F00004438024011
:1004E00000300140000002400004024000080240C9
:1004F000000C0240001002400014024000180240AC
:10050000001C0240003C01400069084000D001206E
:1005100070470000014880687047000064000020B8
:1005200002488168027811448160704764000020AD
:100530000B4810B5016841F400710160016841F495
:1005400080610160016841F480710160032000F066
:100550006FF8002000F006F800F024F8002010BD2D
:10056000003C024070B50D4D04464FF47A71287876
:10057000B1FBF0F00A490968B1FBF0F000F076FF3A
:1005800048B9102C07D200222146501E00F030F846
:1005900000206C6070BD012070BD00006400002070
:1005A000700000200A4808B5016841F480410160EC
:1005B000006800F4804000900548001F016841F089
:1005C00080510160006800F08050009008BD00007C
:1005D00044380240002809DB00F01F02012191404D
:1005E0004009800000F1E020C0F8001170470000D1
:1005F000F0B40E4B1B680C46C3F30223C3F107058E
:10060000042D00D90425191D072901D2002300E07B
:10061000DB1E012606FA05F1491E214099409E4045
:10062000761E16403143F0BC02F05BBC0CED00E0DE
:10063000064900F0070208684FF6FF03184040EA39
:100640000220034A10430860704700000CED00E0F0
:100650000000FA0570470068416200207047F0B55D
:100660000368586A39B19C6A4FF4827600EB1444EF
:1006700000204D1E0AE040EA024098620FE006EBBF
:100680008007DF59401C04EB1744C0B2A842F6D3E0
:1006900044EA02404FF4807202EB8101585000207E
:1006A000F0BDD0F8040401F01DBCC1EBC10200EBA9
:1006B0008202D0F80404926C01F088BBC1EBC10245
:1006C00000EB8202D0F80404D2F8082201F0D3BB78
:1006D000D0F8040401F008BC70B504460B0601F024
:1006E0000F00C0EBC00104EB81014FF001024FF09D
:1006F000000503D581F83D203C3103E081F8FD5130
:1007000001F5FE71087094F8BC03012808D084F844
:10071000BC23206801F07CFF84F8BC53002070BD2E
:10072000022070BD70B5044601F00F00626890426F
:1007300001D9012070BD0B0601F00F01C1EBC10111
:1007400004EB81014FF001024FF0000503D581F861
:100750003D203C3103E081F8FD5101F5FE718D70C3
:10076000087094F8BC03012808D084F8BC232068E2
:1007700002F048F984F8BC53002070BD022070BD1F
:100780002DE9F04104460F0601F00F00C0EBC00157
:1007900004EB81014FF001064FF0000503D581F80D
:1007A0003D603C3103E081F8FD5101F5FE710870B8
:1007B0008A60CB704A7802B1C880022B00D10D71DB
:1007C00094F8BC03012809D084F8BC63206801F0C8
:1007D0007BFE284684F8BC53BDE8F0810220FBE78D
:1007E00070B50C4601F00F05C5EBC50100EB8101AA
:1007F000C1F81032C1F808220023C1F8143281F880
:10080000FD3181F8FC51036901F5FE71012B00D126
:100810000A612207027C006803D002F04BF9002035
:1008200070BD02F037F8FAE770B504460D4601F0E6
:100830000F006168884201D9012070BD29064FF080
:1008400000064FF0010207D5C0EBC00104EB8101A7
:1008500081F83D203C3107E0C5EBC50104EB810187
:1008600081F8FD6101F5FE718A70087094F8BC038F
:10087000012807D084F8BC23206802F0EFF828078D
:1008800002D007E0022070BD217C04F5717220685F
:1008900002F08CF884F8BC63002070BD70B50C4683
:1008A00001F00F05C5EBC50100EB81010B658A6402
:1008B00000234B65012381F83D3001F83C5F03695B
:1008C000012B00D10A612207027C006803D002F0EC
:1008D000F1F8002070BD01F0DDFFFAE72DE9FC5FC3
:1008E00005680446284602F00EFA00287ED12068EA
:1008F00002F035FA002879D0206802F030FA80073B
:1009000004D52168486900F002004861206802F0BF
:1009100026FAC10604F57170009034D5206881690B
:1009200021F0100181612F6A07F00F00C0EBC000B9
:1009300004EB8006C7F3434006F5FE76022802D09A
:10094000062811D01AE047F6F070074216D0C7F318
:100950000A1217462846F16802F005FAF068384492
:10096000F060B069384408E008222846009902F097
:10097000FAF9B069C7F30A110844B06120688169C7
:1009800041F010018161206802F0E9F900034FF0A5
:10099000010A4FF0080B5BD50026206802F0BEF973
:1009A0000746DFF8689351E0F8074DD0F1B22068B0
:1009B00002F0CDF98046C00707D005EB4611C1F81B
:1009C00008AB3146204600F09FFE5FEA087022D552
:1009D00005EB4611C1F808BB2068016C00EB46101E
:1009E0000191D0F8082B494507D900E08BE11104AB
:1009F00003D54FF40041C0F8081B204600F076FAFA
:100A00000198484507D92069012804D120680121AF
:100A1000009A01F0CBFF5FEAC86004D505EB4611F0
:100A20001020C1F8080B5FEA886004D505EB461179
:100A30002020C1F8080B5FEA884005D505EB461079
:100A40004FF40051C0F8081B7F08761C002FABD173
:100A5000206802F084F940034FF000095CD520685B
:100A600002F055F90746002654E0F80750D0F1B2DD
:100A7000206802F05AF98046C00723D006F00F0222
:100A80000AFA02F0D5F834288243C5F8342805EB79
:100A90004610C0F808A9206901280FD1C6EBC6008E
:100AA00004EB8000D0E911211144816436B9206D36
:100AB00020B920680121009A01F078FFF1B22046A8
:100AC000FFF7F3FD5FEA087003D505EB4611C1F8A7
:100AD00008B95FEAC86004D505EB46111020C1F8DB
:100AE00008095FEA486004D505EB46114020C1F8CB
:100AF00008095FEA887004D505EB46110220C1F8A9
:100B000008095FEA086003D53146204600F062FE1E
:100B10007F08761C002FA8D1206802F020F9002859
:100B200011DAD5F8040820F00100C5F8040894F89B
:100B3000F403012829D0204600F0BCF9206841695F
:100B400001F000414161206802F009F900050BD570
:100B5000D5F80808C00702D0204600F0EFF9206859
:100B6000416901F400614161206802F0F8F8C004B5
:100B700068D5D5F8040820F00100C5F80408102154
:100B8000206802F0A1F8002127E084F8F493002106
:100B90002046FFF75FFDD1E705EB41104FF67F32AE
:100BA000C0F80829D0F8003923F40013C0F8003940
:100BB000D0F8003943F00063C0F80039C0F8082BC2
:100BC000D0F8002B22F40012C0F8002BD0F8002B34
:100BD00042F00062C0F8002B491C60688842DBD8F4
:100BE000D5F81C0840F00110C5F81C08206B60B156
:100BF000D5F8840840F00B00C5F88408D5F84408FF
:100C000040F00B00C5F844080CE0D5F8141842F287
:100C10002B000143C5F81418D5F8100840F00B005C
:100C2000C5F81008D5F8000820F4FE60C5F80008E3
:100C3000217C2068009A01F0B9FE2068416901F426
:100C400080514161206802F08AF8800415D520683F
:100C500001F07AFC206802F049F8E06000F020FA28
:100C60000146227B206802F0B5F8204600F00CF91E
:100C70002068416901F400514161206802F06FF879
:100C8000000707D5204600F019F92068416901F0F6
:100C900008014161206802F062F8C00208D5002115
:100CA000204600F035F82068416901F48011416167
:100CB000206802F054F8800208D50021204600F098
:100CC0002BF82068416901F400114161206802F0AD
:100CD00046F8400007D52046FFF7E3FC206841694D
:100CE00001F080414161206802F039F840070AD5DF
:100CF00020684568680702D52046FFF7E9FC2068B0
:100D0000416829434160BDE8FC9F00000A30544F10
:100D1000D0F8040401F034B9D0F8040401F032B979
:100D20002DE9F0418AB0040005D094F8BD0326688F
:100D3000002520B108E001200AB0BDE8F08184F868
:100D4000BC53204600F05EF8032084F8BD03F06B2E
:100D5000C00500D42561206801F096FD04F1100162
:100D6000282288466846FFF75CFA94E80F0001F0F5
:100D7000F9FB0226C8BB0021206802F002F800201F
:100D800001270EE0C0EBC00104EB810181F83D704A
:100D900001F83C0FC880CD708D60CD60401CC0B2A2
:100DA0004D6161688142EDD8002011E0C0EBC001C7
:100DB00004EB810181F8FD5181F8FC0181F8FF51BC
:100DC000C1F80452C1F80852401CC0B2C1F8105218
:100DD00061688142EAD8282241466846FFF721FA35
:100DE00094E80F0001F096FC10B184F8BD63A2E70F
:100DF00084F8385084F8BD73206801F07DFC002031
:100E00009AE7000010B586B0044614216846FFF743
:100E100021FA2068B0F1A04F2FD1194800210268B3
:100E200042F001020260006800F0010005904FF4FA
:100E3000C05000900220CDE90101032003900A2058
:100E4000049069460F48FFF783FA0D48001D0168BA
:100E500041F0800101600A481430016841F480418A
:100E600001600068002200F4804005901146432094
:100E7000FFF7BEFB4320FFF7ADFB06B010BD00003F
:100E8000303802400000024070B50446C0680125B9
:100E900070B1022801D0FFF746FA2946D4F80404BD
:100EA00001F0C6F8D4F80404BDE8704001F081B840
:100EB0000025F2E7D0F8040401F0A4B8D0F8040447
:100EC00001F0AAB810B5044690F8BC0301280BD075
:100ED000012084F8BC0384F83810206801F068FF12
:100EE000002084F8BC0310BD022010BDD0F80424FB
:100EF00000F57171104601F0A7B810B504460068FE
:100F000094F8BC13012906D0012184F8BC13A16A0E
:100F1000012902D008E0022010BDA169012903D0F7
:100F2000816B41F480318163206801F0B7FE206855
:100F300001F0D4FB002084F8BC0310BD10B50446BA
:100F4000D0F8040401F0C2F82068D0F8001E41F087
:100F50000101C0F8001E206A002804D00248016880
:100F600041F00601016010BD10ED00E02DE9F047F1
:100F70000E46050065D0DFF81481D8F80000F7B2FE
:100F800000F00F00B04207D288F80070D8F80000D7
:100F900000F00F00B04254D128683D4C810712D5B3
:100FA000400703D5206840F4E0502060287800070F
:100FB00003D5206840F4604020602068A96820F0D4
:100FC000F000084320602878C0072DD030496868B9
:100FD0000839012812D0022813D0032811D009683B
:100FE000890700292DDA216821F0030101432160DE
:100FF000FFF790FA814641F2883A0EE009688903CA
:10100000EFE709688901ECE7FFF784FAA0EB090133
:10101000514502D90320BDE8F0872068696800F0D7
:101020000C00B0EB810FEFD1D8F80010404601F072
:101030000F01B14207D90770006800F00F00B042FD
:1010400001D00120E7E72878400705D52068E96846
:1010500020F4E050084320602878000706D5206877
:10106000296920F4604040EAC100206000F01EF8C9
:101070002168084AC1F30311515CC8400649086061
:1010800006480068FFF76EFA0020C4E7003C024003
:10109000083802406430000870000020680000201A
:1010A000014800687047000070000020154810B526
:1010B000006810F00C02144813D01449042A0FD011
:1010C000082A0ED10F4C241F2268236802F03F0229
:1010D0005B0207D52068C0F38810A0FB010106E081
:1010E000084610BD2168C1F38811A1FB000100234F
:1010F000FFF766F82168C1F30141491C4900B0FBC4
:10110000F1F010BD083802400024F40040787D0161
:101110002DE9F84F04006ED02078DFF83C93C0072B
:10112000A9F104054AD009F104000168C1F3810165
:10113000012908D00068C0F3810002280AD1D9F83B
:101140000000400206D52868800337D56068002873
:10115000E1D033E06068B0F5803F10D0B0F5A02F4B
:10116000286810D020F480302860286820F480207F
:1011700028606068A8B1FFF7CDF906460DE0286841
:1011800040F48030F4E740F480202860F7E700BFA7
:10119000FFF7C0F9801B642873D828688003F7D54F
:1011A0000CE0FFF7B7F9064605E000BFFFF7B2F91C
:1011B000801B6428F0D828688003F7D42078DFF8F3
:1011C0009C8280074FF0000A3ED5A348001D0168AD
:1011D00011F00C0F08D00068C0F3810002280BD179
:1011E000D9F80000400207D42868800716D5E068C7
:1011F000012800D112E02BE1E068B8B10120C8F865
:101200000000FFF787F9064605E000BFFFF782F907
:10121000801B0228C0D828688007F7D52868216974
:1012200020F0F80040EAC10028600DE0C8F800A0F6
:10123000FFF770F9064604E0FFF76CF9801B0228FF
:101240001FD828688007F7D42078000722D5824E5F
:1012500083486169703671B101210160FFF75AF965
:10126000074604E0FFF756F9C01B022809D830688A
:101270008007F7D50EE0C0F800A0FFF74BF907464E
:1012800005E082E0FFF746F9C01B02287DD83068F0
:101290008007F7D42078400768D5DFF8BCB1002775
:1012A0000BF13C0BDBF80000C0000BD4DBF80010A6
:1012B00041F08051CBF80010DBF80000012700F06E
:1012C00080500090674E3068C00510D4306840F4FC
:1012D00080703060FFF71EF9009005E0FFF71AF903
:1012E0000099401A022850D83068C005F6D55A4EE9
:1012F000A0686C3601280FD00528306810D020F087
:1013000001003060306820F004003060A068B8B19F
:10131000FFF700F900900FE0306840F00100F4E7BB
:1013200040F004003060F7E7FFF7F4F80099411A45
:1013300041F28830814266D830688007F4D50EE0EB
:10134000FFF7E8F8009007E0FFF7E4F80099411A8A
:1013500041F28830814256D830688007F4D42FB1EA
:10136000DBF8001021F08051CBF80010A069C8B361
:101370003949091D0968C1F3810102294AD00228AF
:10138000504607D0C8F8600000E03CE0FFF7C2F824
:1013900004463BE04746C8F86000FFF7BBF8064646
:1013A00005E000BFFFF7B6F8801B02282BD828689D
:1013B0008001F7D4D4E907010843A16A2A4A490801
:1013C00002EB0141626A41EA8211084394F82C1051
:1013D00040EA0161C9F8001001203866FFF79AF869
:1013E000044606E036E000BFFFF794F8001B022831
:1013F00009D828688001F7D52CE000BFFFF78AF8EC
:10140000001B022802D90320BDE8F88F286880015C
:10141000F4D41FE00128F7D0D9F80000E26900F405
:101420008001914214D1226A00F03F0191420FD114
:1014300047F6C071626A0140914209D1A26A00F484
:101440004031914204D1E16A00F07060884201D0DD
:101450000120D9E70020D7E70438024000004742C6
:10146000800E4742007000400000FFFF10B5401E94
:10147000B0F1807F01D3012010BD4FF0E024606106
:101480000F21601701F02DFD0020A06107202061D1
:10149000002010BDFEE70000F0B500230A2430252F
:1014A00037261F4611E000BFB4EB107F02D905EBD1
:1014B000107C01E006EB107C01F813C001EB430C3B
:1014C00000015B1C8CF80170DBB29342ECD3F0BDE1
:1014D0002DE9F041464F08213846FFF715F8454DF4
:1014E000DFF81481454C70B120212846FFF70CF835
:1014F00048B110212846FFF707F820B18021404667
:10150000FFF702F890BB0126267008213846FEF747
:10151000FBFF78B120212846FEF7F6FF88B11021A5
:101520002846FEF7F1FF98B180214046FEF7ECFF18
:10153000A8B11BE06078FF2801D2401C60702670C3
:1015400014E06078FF2801D2401C607002200CE09B
:101550006078FF2801D2401C6070032005E06078AD
:10156000FF2801D2401C60700420207020780026E3
:10157000012806D0022812D003281DD0042835D116
:1015800027E008213846FEF7BFFF10B166702670CD
:1015900002E060780A2829D94420BDE8F0812021A2
:1015A0002846FEF7B1FF10B16670267002E0607841
:1015B0000A281BD94D20F0E710212846FEF7A4FF8A
:1015C00010B16670267002E060780A280ED95620A5
:1015D000E3E780214046FEF797FF10B16670267062
:1015E00002E060780A2801D95F20D6E70020D4E71E
:1015F00000080240000002400010024010000020DD
:1016000010B586B014216846FEF724FE2548002454
:10161000016841F080010160016801F080010591DD
:10162000016841F004010160016801F004010591C5
:10163000016841F001010160016801F001010591BB
:10164000016841F002010160016801F002010591A9
:10165000016841F0100101600068694600F0100067
:1016600005900820CDE900040F480294FEF770FEB3
:101670003020CDE9000469460C480294FEF768FE6C
:101680000620CDE90004694609480294FEF760FE91
:101690008020CDE90004694606480294FEF758FE12
:1016A00006B010BD30380240000802400000024081
:1016B000000402400010024010B500220B490C4803
:1016C00000F058FB08B1FEF72EFE0A49084800F06A
:1016D00025FD08B1FEF727FE054800F099FD00281A
:1016E00003D0BDE81040FEF71EBE10BD1400002060
:1016F0009401002078000020FEE7FEE70148FFF794
:10170000EDB80000640600202DE9F04103680D46A5
:1017100004461E6C03EB4511D1F8080BD4F810E019
:101720004FF400474FF0200C04F57172BEF1010F29
:1017300009D0DFF898E0764539D1020432D500BFF0
:10174000C1F8087B3FE0224B5FEA007E04D59E4251
:1017500039D90004F4D436E05FEA806E02D5C1F8CE
:1017600008CB30E010F0280F2DD19E4201D90004A3
:10177000E6D4C5EBC50004EB8000D1F8101BD0F80F
:101780000432C1F31201591AC0F81412D0F8081229
:101790001944C0F8081295B9D4F8100278B901219B
:1017A00020680AE080060AD5C1F808CB07E035B901
:1017B000D4F8100218B90021184601F0F7F8E9B280
:1017C0002046FEF77BFF0020BDE8F0810A31544F30
:1017D0000A30544F2DE9F84F0E46C1EBC60100EB1D
:1017E000810481460568D4E914103C34884202D94A
:1017F0000120BDE8F88F081AA168814200D208468E
:10180000C01C870805EB46181BE000BFA0EB010ACF
:10181000A068504500D282460AF10300870899F873
:10182000100000901FFA8AF3F2B22846E16801F036
:1018300045FBE16801EB0A00E060A16901EB0A00E9
:10184000A061D8F8180980B2B84205D3D4E90501DF
:10185000814201D20028D9D1D4E90501884208D8B3
:1018600006F00F0101208840D5F834188143C5F8EF
:1018700034180020BDE7704770470178407841EA8E
:1018800000207047FEF74CBE30B593B0302168465B
:10189000FEF7E0FC14210CA8FEF7DCFC1E48002536
:1018A000016841F080510160006800F080501190A3
:1018B0001A48016841F4804101600068022400F484
:1018C0008040119001200090000401908001CDE93A
:1018D0000640192008904FF4A870CDE909040720AC
:1018E0000B906846FFF714FC08B172B6FEE70CA92E
:1018F0000F2081E831004FF4A0500F904FF480503A
:10190000109005210CA8FFF731FB002801D072B61A
:10191000FEE713B030BD00004038024000700040C8
:101920000548016841F47001016003494FF000600F
:10193000803908607047000088ED00E010B5D0F8ED
:10194000B8220AB152689047002010BD134610B566
:101950000A46002100F024FB002010BD134610B5FC
:101960000A46002100F0BBFB002010BD10B5044664
:10197000802100F099FB2046BDE81040002100F0D6
:1019800093BB10B505210023C0F894121A461946DE
:1019900000F006FB002010BD10B502238261C0F8E4
:1019A0009432C26113460A46002100F098FB0020E1
:1019B00010BD10B504210023C0F894121A46194630
:1019C00000F08DFB002010BD10B50A46024903A0AF
:1019D00000F0DBF8004810BD6404002048494420B2
:1019E000436F6E66696700001220088000487047E8
:1019F0003400002010B50A46024903A000F0C5F8E3
:101A0000004810BD640400204849445F4B6579627A
:101A10006F61726400000000042008800048704775
:101A20003000002010B50A46024903A000F0ADF8CE
:101A3000004810BD6404002053544D6963726F6503
:101A40006C656374726F6E696373000010B50A464B
:101A5000024903A000F099F8004810BD640400207A
:101A600053545F4B6579626F6172640010B51A2040
:101A700008800A480168001D0468001D00680818F5
:101A800009D008220649FFF707FD05490422103155
:101A90002046FFF701FD0248801E10BD107AFF1F8F
:101AA0004A000020F8B504460020ADF80000488840
:101AB0000D46010A08295FD2DFE801F05E0409172C
:101AC0005E5E3C45D4F8B412207C0A6819E0207CA4
:101AD00002260028D4F8B80205D0C16A68468847B3
:101AE0000146467039E0816AF8E7C0B2062843D261
:101AF000DFE800F0030A1014181CD4F8B40242689E
:101B000005E0694690471CE0D4F8B402826892B3BD
:101B1000207CF6E7D4F8B402C268F8E7D4F8B4023F
:101B20000269F4E7D4F8B4024269F0E7D4F8B402E9
:101B30008269ECE7207CF0B9D4F8B802416B6846C2
:101B40008847014609E0207CA8B9D4F8B802016BA7
:101B500068468847014607204870EA888AB1BDF880
:101B6000000040B1824200D90246ADF80020204674
:101B7000FFF712FFF8BDFFE729462046FFF7F6FE04
:101B8000F8E72046FFF715FFF4E770B500230028BB
:101B90001ED00025044602E06D1CEDB2641C2678C0
:101BA000002EF9D1022404EB450414801278CA54A3
:101BB0005B1C0322CA5400245B1C06E0CA545B1C55
:101BC000DAB28C54521CD3B2401C0278002AF5D1F0
:101BD00070BD01004FF0000004D0012901D002299E
:101BE00001D00320704701207047D0F8BC020021CB
:101BF00001730846704770B50446812100F0DDF896
:101C0000002525876587D4F8BC0218B101F088F952
:101C1000C4F8BC52002070BD0A2101800048704702
:101C2000400100202921018000487047B0000020B9
:101C30002921018000487047DC0000202921018013
:101C4000004870470801002070B50446102001F0DC
:101C5000D3F905004FF0000610D0C4F8BC52207C28
:101C600080B10A206087162303228121204600F0DC
:101C70008BF9012020872E73002070BD0220C4F84C
:101C8000BC6270BD0720EDE710B5134690F89C428A
:101C9000D0F8BC22032C07D1147B2CB90124147377
:101CA0000A46812100F01BFA002010BD38B500243F
:101CB000D0F8BC32ADF800400A7812F0600216D0BD
:101CC000202A4DD14A78022A0ED0032A06D00A2AA9
:101CD00006D00B2A44D18878186044E001222FE016
:101CE0004888000A58603EE00122191D29E04A7820
:101CF000062A10D003DC3AB1012A31D133E00A2A96
:101D000022D00B2A2CD127E090F89C22032A27D13D
:101D10000222694615E04A882223B3EB122F05D12F
:101D2000CA883F2A00D93F22114B09E02123B3EB97
:101D3000122F15D10E4BCA88183B092A00D9092247
:101D40001946FFF729FE0EE090F89C22032A07D1DE
:101D5000012203F10801F4E790F89C22032A04D041
:101D6000FFF704FE0324204638BD88789860FAE720
:101D70004C01002030B4A0B1D0F8B84200230CB11F
:101D8000C0F8B832D0F8CC420CB1C0F8CC3209B1AE
:101D9000C0F8B412012180F89C12027030BC00F02F
:101DA000AFB830BC0320704710B5D0F8C402FEF7BE
:101DB000B9FCBDE81040FFF70CBF10B5D0F8C40265
:101DC000FEF78AFCBDE81040FFF703BF70B516466A
:101DD000044649B1D4F8B80242691AB194F89C0299
:101DE000032842D0032070BDD4F89412002504F1DA
:101DF0001400022932D1D0E902318B4206D95A1A95
:101E0000826031462046FFF7A9FD0FE0994214D1C8
:101E10004068884211D3D4F8981288420DD200222B
:101E200011462046FFF79AFDC4F8985200231A463F
:101E30001946204600F0B4F810E0D4F8B802C168A2
:101E400029B194F89C02032801D1204688478021BB
:101E5000204600F029F92046FFF793FD94F8A002F0
:101E6000012806D184F8A05203E0204690470028BC
:101E7000B9D1002070BD10B51346044649B1D4F85D
:101E8000B80282691AB194F89C02032824D0032076
:101E900010BDD4F8941204F5AA70032920D1D0E91A
:101EA000021291420AD98A1A8260C068824200D323
:101EB000024619462046FFF749FD11E0D4F8B80262
:101EC000016929B194F89C02032801D12046884772
:101ED0002046FFF76EFD03E0204690470028D7D14B
:101EE000002010BD0020704710B5012180F89C1221
:101EF000D0F8B82212B1526801799047002010BD85
:101F000010B5017839BB15490222C1F80404C0F8A4
:101F1000C4124FF0A0400860042048600020C1E9CE
:101F20000320C1E9062008624862C86208630846C7
:101F3000FEF7F6FE08B1FEF7F6F980210748FEF736
:101F40008AFB402200210548FEF789FB80220121FF
:101F50000248FEF784FB002010BD0000640600204C
:101F60000A0601F07F01D0F8C402C1EBC10100EB09
:101F7000810002D590F83E00704790F8FE0170474E
:101F8000002070470020704710B51C461346D0F85B
:101F9000C4022246FEF7F4FBBDE81040FFF719BE6D
:101FA00010B5D0F8C402FEF71BFCBDE81040FFF7E7
:101FB00010BE70B50125044680F89C520020C4F87C
:101FC00094026060C4F8A402D4F8BC0228B1D4F82A
:101FD000B802002142682046904700224023114663
:101FE0002046FFF7D1FF4026A4F864513346002273
:101FF00080212046C4F86061FFF7C6FFA584002059
:10200000266270BD90F89C12042903D190F89D12AD
:1020100080F89C120020704710B590F89C1203299C
:1020200004D1D0F8B812C96901B18847002010BDA9
:1020300001740020704710B5D0F8C402FEF742FFCB
:10204000BDE81040FFF7C5BD70B5044600F2AA20F8
:10205000054600F04DF80120C4F89402B4F8B0022F
:10206000C4F8980294F8AA0210F01F010AD00129BE
:102070000ED0022912D000F080012046BDE8704049
:1020800000F012B829462046BDE8704000F0C2B802
:1020900029462046BDE8704000F0ECB929462046AC
:1020A000BDE8704000F040B910B5D0F8C402FEF7AA
:1020B000BBFBBDE81040FFF78CBD10B5D0F8C402E3
:1020C000FEF71BFFBDE81040FFF783BD90F89C12A0
:1020D00080F89D12042180F89C120020704710B5F2
:1020E000D0F8C402FEF7DAFBBDE81040FFF771BD7F
:1020F00070B5054611F8010B2870087868704C1C03
:102100002046FFF7BAFB6880A41C2046FFF7B5FB0A
:10211000A880A01CFFF7B1FBE88070BD38B504466D
:102120000020ADF8000041B1C4F8B812896A6846D1
:102130008847C4F8CC02002038BD032038BD0246D1
:102140000320D2F8B832002B02D01B681046184783
:10215000704700002DE9F0410F462C4E897800258C
:1021600004463170012906D939462046FFF7FEFBA7
:102170000320BDE8F08194F89C0202280CD00328CB
:102180001DD039462046FFF7F1FB31782046FFF796
:10219000D5FB03252846ECE799B320466160FFF79D
:1021A000CEFF050004D039462046FFF7DFFBF1E7FC
:1021B0002046FFF7FEFB032084F89C02EAE74FF07D
:1021C0000208C1B1606888421BD0C1B22046FFF747
:1021D000B5FB317820466160FFF7B1FF050010D0F4
:1021E00039462046FFF7C2FB21792046FFF7A6FBC0
:1021F00084F89C82CEE784F89C8220466160FFF7D9
:102200009DFB2046FFF7D5FBC4E7000074000020CB
:10221000FFF753BF2DE9F0410A78002512F0600264
:1022200008D0202A01D0402A71D1D0F8B822926873
:10223000904731E04B78002201260A2B67D2DFE875
:1022400003F0415E6658660805662D29FFF72AFCF3
:102250005FE004468888D8B9C888C8B9488880280B
:1022600016D200F07F0794F89C02032810D084F85F
:102270009E7239462046FFF7DEFE2046FFF799FBA7
:102280001FB1022084F89C0243E084F89C6240E085
:1022900020463CE0FFF75EFF05463AE0CB88012B85
:1022A00035D190F89C32012B04D0022B02D0032BA5
:1022B0002DD104E08260012200F1080116E0012224
:1022C000011D13E090F89C22012A03D0022A01D0BC
:1022D000032A1CD1CA88022A19D1C660D0F8A412D8
:1022E00009B10321C160022200F10C01FFF754FB88
:1022F0000FE0498801290CD1C0F8A46211E090F8E0
:102300009C32012B08D0022B06D0032B04D0FFF700
:102310002DFB2846BDE8F08149880129F9D1C0F894
:10232000A422FFF746FBF4E72DE9F0410D460446F1
:1023300028780027097910F060000BD0202801D000
:10234000402873D1D4F8B8022946826820469047C5
:1023500007468CE06878D8B3012822D0032865D1DD
:1023600094F89C02022802D003287CD10BE00029BB
:1023700079D0802977D02046FFF796FE802120462D
:10238000FFF792FE73E0688838B931B1802904D034
:10239000E88810B92046FFF787FE2046FFF709FBC3
:1023A00065E094F89C020228E1D003285BD168889C
:1023B000D8BB480602D02046FFF7F6FC2046FFF7C0
:1023C000F8FAD4F8B80229468268204690474EE0D1
:1023D000FFE794F89C020026022802D0032842D18D
:1023E00011E009B180293ED1080601F07F0000EB21
:1023F000800004EB800101D5143101E001F5AA71E0
:1024000002220E602BE0080601F00F0000EB8000B6
:1024100004EB80000BD5808C40B101F07F0000EB15
:10242000800004EB800514350CE020E01BE0B0F8E0
:102430006401C0B101F07F0000EB800004EB800577
:1024400005F5AA7541B1802906D02046FFF788FD21
:1024500010B10120286000E02E60022229462046AB
:10246000FFF79AFA03E029462046FFF77FFA38463D
:10247000BDE8F08170B50646087800240D4610F0DE
:10248000600003D0202801D0402817D196F89C0284
:10249000012803D0022801D003280FD12879012870
:1024A0000CD8D6F8B8028268304690470446E888CF
:1024B000204306D13046FFF77CFA02E03046FFF7B2
:1024C00055FA204670BD000070B50A78012302F06D
:1024D0000F054E78AB401B4CD0F81C58012E17D07E
:1024E00045EA0343C0F81C3800EB4210D0F8002B3B
:1024F00012040BD4D0F8002B0B89C978C3F30A035C
:102500001A4344EA81410A43C0F8002B002070BD01
:102510009BB21D43C0F81C5800EB4210D0F80039A4
:102520001B04F3D4D0F800390D89C978C5F30A0526
:1025300089042B4341EA82510B432343C0F80039FD
:10254000E4E7000000800010D0F800196FF30A01E2
:10255000C0F80019D0F8041841F48071C0F80418CC
:102560000020704770B5044606990A9E049D0D9898
:10257000012916D0E06840F04000E060204600F0FD
:102580002BF8A16B1EB321F48031A163012D07D17B
:10259000A16841F00601A160A16841F02001A1609D
:1025A00070BDA16B21F48031A163E168094A11403B
:1025B000E160E16821F44011E160012803D1E068A5
:1025C00040F48010E060204600F006F8DEE741F4B9
:1025D0008031DAE7BFFFBDFF01220C4902E0521C47
:1025E0008A420BD80369002BF9DA026942F0010232
:1025F0000261012204E0521C8A4201D90320704783
:102600000369DB07F7D1002070470000400D03008D
:1026100030B54C780A78012300EB4212012C2CD003
:10262000D2F8004B002C0BDAD2F8004B44F00064D7
:10263000C2F8004BD2F8004B44F08044C2F8004B83
:10264000D0F83C580C7804F00F0403FA04F425EA9F
:102650000444C0F83C48D0F81C48097801F00F0148
:102660008B4024EA0341C0F81C18D2F8000B19492A
:102670000840C2F8000B002030BDD2F80049002C01
:102680000BDAD2F8004944F00064C2F80049D2F8ED
:10269000004944F08044C2F80049D0F83C480D7825
:1026A00005F00F0503FA05F5ADB2AC43C0F83C48A0
:1026B000D0F81C48097801F00F018B4099B28C4387
:1026C000C0F81C48D2F8000903490840C2F80009C4
:1026D000D1E700000078F3EF007833ECD0F8001E6B
:1026E00021F00301C0F8001ED0F8041821F0020107
:1026F000C0F8041800207047D0F8001E21F0030134
:10270000C0F8001ED0F8041841F00201C0F8041807
:10271000002070472DE9F04F00250E460446DDF8F5
:102720002CC0DDF824B0109F2846294604EB800217
:10273000C2F80411401C0F28F8D32046C7B1806BA3
:1027400020F40012A263A06B40F40022A2630846AA
:102750008846C4F8000ED4F800182046C4F80018C3
:10276000BCF1010F16D0D0F8001841F0030116E0BB
:10277000D0F8040840F00202C4F80428A06B40F42A
:102780000012A263A06B20F40022A263A06B20F4CD
:102790008022DBE7D0F800180BB141F00101C0F84E
:1027A0000018102100F090FA00B10125204600F039
:1027B0007BFA00B101254046C4F81088C4F814889B
:1027C000C4F81C8800214FF000694FF0904A4FF682
:1027D0007F3314E004EB4112D2F800C9BCF1000FC2
:1027E00006DA11B1C2F800A904E0C4F8009901E0CA
:1027F000C2F80009C2F81009C2F80839491C8E4213
:10280000E8D8002115E000BF04EB4112D2F800CB5C
:10281000BCF1000F06DA11B1C2F800AB04E0C4F855
:10282000009B01E0C2F8000BC2F8100BC2F8083B95
:10283000491C8E42E8D8D4F8101821F48072C4F8EC
:102840001028A0616FF080406061BBF1000F03D1E0
:10285000A06940F01000A061A06909490843A06187
:102860000C9818B1A06940F00800A061012F03D1B5
:10287000A06904490843A0612846BDE8F08F000024
:1028800000383C8004000040816821F00101816033
:102890000020704770B50D784E78434CEBB200EBDA
:1028A0004313012E1FD0D3F8100B6FF31200C3F89F
:1028B000100BD3F8100B2040C3F8100B486908B177
:1028C00088684861D3F8100B40F40020C3F8100B5F
:1028D000D3F8100B8C68C4F312042043C3F8100B18
:1028E000012A55D058E04E69002ED3F8106932D035
:1028F0006FF31206C3F81069D3F810692640C3F8C5
:1029000010694E698C68A64200D94C61D3F8104911
:1029100044F40024C3F81049D3F810494E69C6F3B3
:1029200012063443C3F81049012A22D000EB4512A5
:10293000D2F8003943F00443C2F800394A6932B38F
:10294000D0F83428097801F00F03012199400A4397
:10295000C0F8342826E02640C3F81069D3F810499F
:1029600044F40024C3F81049D3F810496FF312045B
:10297000D8E7096919B100EB4512C2F8141900EB48
:102980004510D0F8001941F00441C0F8001909E0E1
:10299000C86808B1C3F8140BD3F8000B40F004402A
:1029A000C3F8000B002070BDFFFF07E010B5036CFB
:1029B000134CA34203D9D0F8003B002B1EDB0023AD
:1029C000C0F8103BD0F8103B43F40023C0F8103B94
:1029D000D0F8103B43F01803C0F8103BD0F8103B80
:1029E00043F0C043C0F8103B012907D1C0F8142BB5
:1029F000D0F8001B41F08021C0F8001B002010BD62
:102A00000A30544F4A780B78012A00EB43100BD060
:102A1000D0F8002B22F40012C0F8002BC97803294B
:102A200014D0022912D017E0D0F8002922F40012A5
:102A3000C0F80029C978032901D002290CD1D0F8A7
:102A4000001941F08051C0F8001905E0D0F8001BD2
:102A500041F08051C0F8001B002070470A784B7885
:102A6000D1B200EB4110012B12D0D0F8001B00298D
:102A700006DB2AB1D0F8001B21F08041C0F8001B12
:102A8000D0F8001B41F40011C0F8001B0020704773
:102A9000D0F80019002906DB2AB1D0F8001921F07E
:102AA0008041C0F80019D0F8001941F40011C0F8B5
:102AB0000019EBE7F8B50C784F78774DE3B26FF07B
:102AC000604600EB4313012F26D0D3F8104B6FF371
:102AD0001204C3F8104BD3F8104B2C40C3F8104B22
:102AE0004C69002C74D08D682C44641EB4FBF5F442
:102AF000D3F8105BA4B206EAC4463543C3F8105BB2
:102B0000D3F8105B8E686643C6F312042543C3F8FE
:102B1000105B012A71D0A6E04F691FB3D3F810797A
:102B20006FF31207C3F81079D3F810792F40C3F868
:102B300010794F698D682F447F1EB7FBF5F506EAC3
:102B4000C545D3F810693543C3F81059D3F8105967
:102B50004E69C6F312063543C3F81059CD78012DDE
:102B600010D01BE0D3F810692E40C3F81069D3F8D9
:102B7000105945F40025C3F81059D3F810596FF3D4
:102B8000120509E0D3F8105925F0C045C3F81059D3
:102B9000D3F8105945F00055C3F81059012A18D040
:102BA00000EB4413D3F8004944F00444C3F800494F
:102BB000CC78012C2FD04A6962B3D0F83428097838
:102BC00001F00F03012199400A43C0F8342860E066
:102BD00036E00A691AB100EB4413C3F81429C97826
:102BE00001290FD1D0F80818C90500EB4411D1F81C
:102BF000002903D442F0005202E030E042F080525B
:102C0000C1F8002900EB4410D0F8001941F004414C
:102C1000C0F800193DE0D0F80848E405D3F80049B1
:102C200002D444F0005401E044F08054C3F8004959
:102C300000928A8A93B20A78C96800F03FF928E0C6
:102C4000D3F8104B8D68C5F312052C43C3F8104B15
:102C5000D3F8104B44F40024C3F8104B59E7CA686A
:102C60000AB1C3F8142BC97801290CD1D0F808088F
:102C7000C005D3F8000B02D440F0005001E040F052
:102C80008050C3F8000BD3F8000B40F00440C3F8A9
:102C9000000B0020F8BD0000FFFF07E0816841F055
:102CA0000101816000207047002110220261054A65
:102CB000491C914201D9032070470369DB06F7D410
:102CC00000207047400D03000022202343EA8111B9
:102CD00001610549521C8A4201D9032070470369EA
:102CE0009B06F7D400207047400D0300D0F8080879
:102CF00010F0060004D0022803D0062801D00F20CF
:102D0000704702207047406900F001007047D0F81A
:102D10001818D0F81C08084080B27047D0F818186E
:102D2000D0F81C080840000C704710B5D0F81038D7
:102D3000D0F8342801F00F0400EB4110E24002F01B
:102D40000102D0F8080943EAC212104010BD00EB9E
:102D50004111D1F8081BD0F81408084070474169A8
:102D6000806908407047D21C10B59308002200F516
:102D7000805002E00468521C10C19A42FAD30846FF
:102D800010BD10B5C26822F0C042C260012902D055
:102D900029B1012010BDC16841F0005102E0C168B5
:102DA00041F08041C1603220FDF7C0FA002010BD23
:102DB000D0F8002822F4FE62C0F80028D0F80028DD
:102DC0004FF4FE6303EA01110A43C0F80028002013
:102DD00070470000022A3ED1264A274B0A449A42F5
:102DE00001D20F2138E0254A254B0A449A4201D2EC
:102DF0000E2131E0234A244B0A449A4201D20D218C
:102E00002AE0224A224B0A449A4201D20C2123E0B2
:102E1000204A214B0A449A4201D20B211CE01F4A4E
:102E20001F4B0A449A4201D20A2115E01D4A1E4B4B
:102E30000A449A420FD31D4A1D4B0A449A4201D2BA
:102E4000082109E01B4A11441B4A914201D2072183
:102E500002E0062100E00921C26822F47052C2603B
:102E6000C2684FF4705303EA81210A43C260002014
:102E700070470000405327FF00350C00401E1BFF29
:102E800040420F0000DC0BFF804F1200808CF9FEE7
:102E900020D6130060B6E5FE60E3160000D3CEFE38
:102EA00040771B00C05BB3FEC091210000CA91FEB9
:102EB00020753800E05459FEE09C410010B5029C9A
:102EC00064B9DB1C9C0800EB0230002300F5805045
:102ED00002E004C902605B1CA342FAD3002010BDCB
:102EE000FEE70907090E002804DB00F1E02080F866
:102EF0000014704700F00F0000F1E02080F8141D6E
:102F0000704702E008C8121F08C1002AFAD17047B2
:102F10007047002001E001C1121F002AFBD1704759
:102F200010B5002821D0114B0022001F196803E0C2
:102F3000814203D80A4649680029F9D152B1136881
:102F4000841A9C4204D1006818441060104602E0C4
:102F5000506000E0186039B102680B1A934203D147
:102F60000B681A4402604968416010BD8C01002062
:102F7000FDF7DEFAFEF788FCFEF742FBFEF79CFB4E
:102F800014251A2608274FF015084FF00009184C91
:102F9000FEF79EFA442822D04D2822D0562822D06F
:102FA0005F2822D084F80290114908220831114884
:102FB000FEF76AFE0F20FDF7B9F908220C490D480B
:102FC000FEF762FE0F20FDF7B1F90949082208312A
:102FD0000848FEF759FE0F20FDF7A8F9D8E7A570BD
:102FE000E2E7A670E0E7A770DEE784F80280DBE79F
:102FF0000000002094010020F0B50B30154D20F0AA
:1030000007010024144A0FE003688B420BD38B4264
:1030100005D95E1A43184768C3E9006700E04368B2
:10302000136002C004E0021D10680028ECD12046A5
:10303000002802D1286808B10020F0BD064A0748E0
:103040001060074A121A22F00702C0E9002401208A
:103050002860D7E7900100208C010020740A00202E
:1030600070100020000000000000000001020304B6
:1030700006070809943000080000002094010000B1
:10308000CC0200086C31000894010020DC12000022
:10309000122F0008011413E9191408191A1B082526
:1030A000041A4D041A6D041AC9141AF504170403FE
:1030B00009041201320216401F045B4F260201026E
:1030C0000301031A1A03191F1182105324F4134920
:1030D0001C1408F71B1B08AD08811AEB1001101A0D
:1030E00031201A25041A3D041A190414090229135F
:1030F000010125E0320904197A1201150921110193
:103100001401223F160705810316170A070501035C
:1031100010320AB92C0A11012CA207091F2C2951BF
:10312000692C691A31130A0632022A40E4100E058E
:10313000010906A101050719E029E715281A25014B
:103140007501950881029501750881039505750142
:1031500005081901290591121808039103950675B0
:0C31600008261A6530111429658192C000
:040000050800018965
:00000001FF
