:020000040800F2
:1000000098050020DD0100088B130008F512000898
:1000100089130008E9020008991700080000000091
:100020000000000000000000000000008F13000826
:10003000A9030008000000008D13000891130008B8
:10004000F7010008F7010008F7010008F7010008B0
:10005000F7010008F7010008F7010008F7010008A0
:10006000F7010008F7010008F7010008F701000890
:10007000F7010008F7010008F7010008F701000880
:10008000ED020008F9020008F70100080000000076
:10009000000000000000000000000000F701000860
:1000A000F7010008F7010008F7010008F701000850
:1000B000000000000000000000000000F701000840
:1000C000F7010008F7010008F7010008F701000830
:1000D000F7010008F70100085517000800000000AC
:1000E000F7010008F7010008000000000000000010
:1000F000000000000000000000000000F701000800
:100100000000000000000000F701000800000000EF
:100110000000000000000000F701000800000000DF
:10012000F7010008F7010008F7010008F7010008CF
:10013000F7010008000000000000000000000000BF
:1001400000000000000000000000000000000000AF
:10015000F7010008F7010008F7010008F70100089F
:10016000000000000000000000000000000000008F
:10017000000000000000000000000000000000007F
:10018000F7010008F701000800000000000000006F
:1001900000000000F701000800000000000000005F
:1001A000000000000000000000000000000000004F
:1001B000000000000000000000000000F70100083F
:1001C000F7010008F7010008DFF80CD000F07AF81A
:1001D00000480047D91700089805002006488047C6
:1001E00006480047FEE7FEE7FEE7FEE7FEE7FEE71C
:1001F000FEE7FEE7FEE7FEE711140008C90100086C
:100200002DE9F05F0546002092469B46884606464B
:10021000814640241BE0284641464746224600F0DE
:1002200041F853465A46C01A914110D31146184618
:10023000224600F028F82D1A67EB01084F462246A7
:100240000120002100F01FF817EB00094E41201E8D
:10025000A4F10104DFDC484631462A464346BDE8A6
:10026000F09FD2B201E000F8012B491EFBD270478B
:100270000022F6E710B513460A4604461946FFF772
:10028000F0FF204610BD202A04DB203A00FA02F1DC
:10029000002070479140C2F1200320FA03F3194374
:1002A00090407047202A04DB203A21FA02F0002116
:1002B000704721FA02F3D040C2F120029140084376
:1002C00019467047064C074D06E0E06840F0010310
:1002D00094E8070098471034AC42F6D3FFF778FF54
:1002E0005818000878180008FEE70000014800F0E0
:1002F000B7B8000054000020014800F0B1B8000079
:10030000B400002001681823CAB2103AB2FBF3F21D
:10031000054B6FF30901032A9B5CC36500D9091DD6
:1003200081650846704700003818000810B501467E
:1003300000208B698A6A4FF0C07453B1B3F5005F37
:1003400015D072B1012A0CD0022A0AD0032A09D191
:1003500004E01AB1012A06D0022A03D1C96AC901F0
:1003600000D5012010BDC96AA142FAD010BD002AF3
:10037000F7D0012AF2D0022AF3D0032AF3D010BD1D
:1003800030B50468256825F480252560046863601D
:100390008368402B036803D099600068C26030BD59
:1003A0009A600068C16030BD704772B6FEE72DE903
:1003B000F0410446876D00F07DFA064694F835005A
:1003C0000025022806D08020606584F83450012082
:1003D000BDE8F0812068016821F016010160206805
:1003E000416921F080014161206C08B9A06C20B105
:1003F0002068016821F0080101602068016821F08F
:10040000010101600BE000F055FA801B052806D9B8
:100410002020606504F8345F03206070D8E720680E
:100420000068C007EFD194F85C103F208840B860A6
:1004300004F8345F012060700020C9E790F835109F
:10044000022903D08021416501207047052180F8F1
:1004500035100068016821F001010160002070473B
:100460002DE9F84304464FF00009CDF800906348A9
:100470004FF41651A56D0068B0FBF1F72E6894F8A3
:100480005C10082000FA01F131420FD021680A689F
:1004900052070BD50A6822F004020A6094F85C1037
:1004A0008840A860606D40F00100606594F85C10C1
:1004B0004FF0010808FA01F0304208D0216849697C
:1004C000090604D5A860606D40F00200606594F8EC
:1004D0005C1004208840304208D0216809688907F0
:1004E00004D5A860606D40F00400606594F85C106D
:1004F00010208840304218D021680968090714D5B7
:10050000A86020680168490304D50068000308D585
:10051000A16C07E00168C90503D4016821F0080156
:100520000160216C09B12046884794F85C102020B6
:100530008840304231D021680968C9062DD5A860AD
:1005400094F8350005282068016806D0490347D58E
:10055000006800031DD4616C1CE021F016010160ED
:100560002068416921F080014161206C08B9A06CCC
:1005700020B12068016821F00801016094F85C1046
:100580003F208840A86084F8349084F83580216D3D
:100590001FE0E16B09B120468847606D00282BD031
:1005A000606DC00714D0052084F83500206801680C
:1005B00021F0010101600098401C0090B84203D86E
:1005C00020680068C007F6D184F8349084F835803C
:1005D000E16C002910D001B02046BDE8F043084787
:1005E0000168C905D5D4016821F01001016084F8C3
:1005F000349084F83580CCE7BDE8F8831000002003
:100600002DE9F041044600F055F906465CB100259D
:1006100084F83450022084F835002068016821F005
:10062000010101600DE00120BDE8F08100F042F918
:10063000801B052805D920206065032084F835003B
:10064000F2E720680068C007F0D1226811682048EE
:100650000140D4E901031843D4E903363343184376
:1006600063691843A3691843E3691843236A18436D
:100670000843616A042903D1D4E90B1319430843E1
:10068000106020684069666A20F0070130460E431A
:10069000012704280CD1A06A0643E06A40B1204635
:1006A000FFF744FE20B14020606584F83570BAE75A
:1006B000206846612046FFF725FE94F85C203F2124
:1006C00091408160656584F835700020ACE70000DA
:1006D0003F8010F02DE9F0410446866D90F834001B
:1006E000002501280DD0012084F8340094F83570DD
:1006F0000020012F07D084F8340002252846BDE8E9
:10070000F0810220FBE7022784F8357060652046FF
:10071000FFF736FE94F85C103F208840B0602068F8
:10072000016841F016010160206C20B12068016869
:1007300041F0080101602068016841F00101016099
:10074000DCE700002DE9F84F00224FF001080325F7
:100750004FF00F0E0B6808FA02F42340A3426ED14B
:100760004E68012E05D0022E03D0112E01D0122E7C
:1007700012D186684FEA420C05FA0CF7BE43CF68E7
:1007800007FA0CF7374387604668A6430C79C4F331
:100790000014944034434460C668570005FA07FCCF
:1007A0008C6826EA0C06BC403443C4604C68022CBA
:1007B00001D0122C13D1D40800EB8404A346D4F842
:1007C000209054074FEAD46A0EFA0AF629EA06097D
:1007D0000E6906FA0AF646EA0906CBF820600468B4
:1007E0000E7924EA0C0406F00306BE402643066098
:1007F0004C68E4004CD5294C266846F480462660B7
:10080000246822F0030604F480440094244C344409
:10081000A446D4F808489607370F0EFA07F6B443F3
:10082000204EB04201D100260BE01F4EB04201D154
:10083000012606E01D4EB04202D1022601E027E06B
:100840000726BE402643CCF80868194E34684F6826
:100850009C43FF0300D51C433460154E361D34689D
:100860004F689C43BF0300D51C433460104E0836CC
:1008700034684F689C43FF0200D51C4334600C4E23
:100880000C3634684F689C43BF0200D51C4334606B
:10089000521C102AFFF45EAFBDE8F88F44380240C6
:1008A0000030014000000240000402400008024005
:1008B000003C0140014880687047000004000020AF
:1008C000024881680278114481607047040000206A
:1008D0000B4810B5016841F400710160016841F4F2
:1008E00080610160016841F480710160032000F0C3
:1008F0006FF8002000F006F800F024F8002010BD8A
:10090000003C024070B50D4D04464FF47A712878D2
:10091000B1FBF0F00A490968B1FBF0F000F0E8FA29
:1009200048B9102C07D200222146501E00F030F8A2
:1009300000206C6070BD012070BD0000040000202C
:10094000100000200A4808B5016841F480410160A8
:10095000006800F4804000900548001F016841F0E5
:1009600080510160006800F08050009008BD0000D8
:1009700044380240002809DB00F01F0201219140A9
:100980004009800000F1E020C0F80011704700002D
:10099000F0B40E4B1B680C46C3F30223C3F10705EA
:1009A000042D00D90425191D072901D2002300E0D8
:1009B000DB1E012606FA05F1491E214099409E40A2
:1009C000761E16403143F0BC00F0E7BE0CED00E0AF
:1009D000064900F0070208684FF6FF03184040EA96
:1009E0000220034A10430860704700000CED00E04D
:1009F0000000FA052DE9F0470E46050065D0DFF846
:100A00001481D8F80000F7B200F00F00B04207D20E
:100A100088F80070D8F8000000F00F00B04254D100
:100A200028683D4C810712D5400703D5206840F463
:100A3000E05020602878000703D5206840F460402B
:100A400020602068A96820F0F00008432060287822
:100A5000C0072DD0304968680839012812D0022813
:100A600013D0032811D00968890700292DDA2168DD
:100A700021F0030101432160FFF71CFF814641F291
:100A8000883A0EE009688903EFE709688901ECE715
:100A9000FFF710FFA0EB0901514502D90320BDE883
:100AA000F0872068696800F00C00B0EB810FEFD18F
:100AB000D8F80010404601F00F01B14207D9077085
:100AC000006800F00F00B04201D00120E7E728786D
:100AD000400705D52068E96820F4E050084320600D
:100AE0002878000706D52068296920F4604040EA8C
:100AF000C100206000F038F82168084AC1F30311F2
:100B0000515CC8400649086006480068FFF7FAFED5
:100B10000020C4E7003C02400838024040180008AA
:100B200010000020080000200448054900680968FA
:100B3000044AC1F38221515CC84070471000002074
:100B40000838024050180008044805490068096840
:100B5000044AC1F34231515CC84070471000002084
:100B60000838024050180008154810B5006810F009
:100B70000C02144813D01449042A0FD0082A0ED1AD
:100B80000F4C241F2268236802F03F025B0207D546
:100B90002068C0F38810A0FB010106E0084610BDE4
:100BA0002168C1F38811A1FB00010023FFF728FB96
:100BB0002168C1F30141491C4900B0FBF1F010BDAF
:100BC000083802400024F40040787D012DE9F84FF8
:100BD00005460078DFF800B3C04CC0074AD0DBF808
:100BE00000105846C1F38101012908D00068C0F304
:100BF000810002280AD1201D0068400206D5206825
:100C0000800337D56868002872D033E06868B0F593
:100C1000803F10D0B0F5A02F206810D020F4803095
:100C20002060206820F4802020606868A8B1FFF769
:100C300041FE06460DE0206840F48030F4E740F4C1
:100C400080202060F7E700BFFFF734FE801B642898
:100C50006FD820688003F7D50CE0FFF72BFE06461F
:100C600005E000BFFFF726FE801B6428F0D820684F
:100C70008003F7D42878DFF8688280074FF00009F6
:100C800040D5DBF80010584611F00C0F09D0006871
:100C9000C0F3810002280BD18F48001F006840027A
:100CA00006D42068800715D5E868012820D111E016
:100CB000E868B8B10120C8F80000FFF7FBFD064660
:100CC00005E000BFFFF7F6FD801B0228C0D82068B2
:100CD0008007F7D52068296920F0F80040EAC100B4
:100CE00020600FE0C8F80090FFF7E4FD064606E03C
:100CF000EFE000BFFFF7DEFD801B022819D8206857
:100D00008007F7D42878000722D5734E75486969A3
:100D10006C3679B101210160FFF7CCFD074604E094
:100D2000FFF7C8FDC01B022803D830688007F7D53D
:100D30000EE089E0C0F80090FFF7BCFD074604E034
:100D4000FFF7B8FDC01B02287ED830688007F7D4B3
:100D50002878400768D5DFF880A100270AF1380A13
:100D6000DAF80000C0000BD4DAF8001041F080512E
:100D7000CAF80010DAF80000012700F08050009057
:100D8000594E3068C00510D4306840F4807030602F
:100D9000FFF790FD009005E0FFF78CFD0099401AE9
:100DA000022851D83068C005F6D54B4EA868683681
:100DB00001280FD00528306810D020F001003060E5
:100DC000306820F004003060A868B8B1FFF772FD09
:100DD00000900FE0306840F00100F4E740F00400BC
:100DE0003060F7E7FFF766FD0099411A41F288305D
:100DF000814266D830688007F4D50EE0FFF75AFDCF
:100E0000009007E0FFF756FD0099411A41F2883043
:100E1000814256D830688007F4D42FB1DAF8001038
:100E200021F08051CAF80010A869D0B3DBF8001097
:100E3000C1F3810102294CD00228484607D0C8F8E6
:100E40006000FFF737FD00E03BE005463CE0474629
:100E5000C8F86000FFF72EFD064604E0FFF72AFD04
:100E6000801B02282DD820688001F7D4F5E90701FE
:100E70000843E9681D4A490802EB0141AA6841EAB2
:100E800082110843297C40EA0160297D40EA017112
:100E90001148001F016001203866FFF70BFD054671
:100EA00005E014E0FFF706FD401B022809D8206882
:100EB0008001F7D50BE000BFFFF7FCFC401B0228C8
:100EC00002D90320BDE8F88F20688001F4D4002007
:100ED000F8E70120F6E70000083802400038024039
:100EE00000004742800E4742007000400000FFFFB4
:100EF00010B5401EB0F1807F01D3012010BD4FF02E
:100F0000E02460610F21601700F047FC0020A06121
:100F100007202061002010BD10B50446006841691B
:100F200094F83920C1F3C011212A0BD151B1416984
:100F300021F080014161206B08B1FFF738FA2046AB
:100F400000F0EEFA2068416994F83A20C1F380116C
:100F5000222A0BD151B1416921F040014161606BFE
:100F600008B1FFF724FA204600F0CCFA002010BDAB
:100F70007047000070B5026804461068D168536974
:100F800010F00F0F52D003F0010501F490762E43BC
:100F90005FD0C20705D0CA0503D5E26B42F001025B
:100FA000E263420705D5DA0703D0E26B42F00202A2
:100FB000E263820705D5DA0703D0E26B42F0040250
:100FC000E263020707D501F020022A4303D0E26B57
:100FD00042F00802E263E26B002A33D0800604D5B7
:100FE000880602D5204600F0A4FA20684069E16B2B
:100FF000C0F38010090700D428B3204600F082FA1D
:101000002068416949061AD5416921F040014161D2
:10101000606BA0B11B490165606BFFF70FFA0028F8
:1010200010D0606B016DBDE870400847830610D595
:101030008B060ED52046BDE8704000F07ABA2046F7
:10104000FFF796FF70BD2046FFF792FF0020E06398
:1010500070BD030606D50B0604D52046BDE87040DA
:1010600000F046BB4006F3D54806F1D5D1682046CE
:1010700021F04001D160202184F8391000F038F9C6
:1010800070BD00002D14000870B5040004D094F861
:101090003900002510B106E0012070BD84F83850F9
:1010A000204600F023F8242084F839002068C16825
:1010B00021F40051C160204600F086FA20680169E1
:1010C00021F4904101612068416921F02A014161C8
:1010D0002068C16841F40051C160E563202084F8B4
:1010E000390084F83A00002070BD00002DE9F0437B
:1010F00087B0064614216846FFF7BAF830493068D1
:1011000088425AD12F480024016841F4003101601F
:10111000006800F4003005902A481038016841F05A
:10112000010101600068694600F0010005900C2093
:1011300000900220CDE901040320039007200490D1
:101140002148FFF7FFFA224D20484FF00067286042
:10115000C5E901744FF48068C5E903486C614FF438
:101160000039AC61C5E9074928466C62FFF748FAC7
:1011700008B1FFF71AF97563AE63154D1348603572
:101180001830E5E802074020A5E81101104845F8AD
:1011900014496030AC61C5E907496C62FFF730FA69
:1011A00008B1FFF702F93563002202212620AE6361
:1011B000FFF7EEFB2620FFF7DDFB07B0BDE8F0836D
:1011C0000044004040380240000002408860024075
:1011D00054000020F8B5044690F83A0020283CD18D
:1011E000C1B3BAB394F83800012836D0012084F88E
:1011F0003800A162A2850025E563222084F83A0028
:10120000636B1748D863636B16481864636B1648A2
:10121000D864606B134605650846666B2168024614
:101220003046091DFFF756FA2068016841680091B1
:1012300084F83850C16841F48071C1602068416908
:1012400041F0010141612068416941F04001416183
:101250000020F8BDFFE70120FBE70220F9E70000CE
:1012600087140008C31400083D1400087047704735
:1012700070B5044690F83900202830D169B362B3C4
:1012800094F8380001282AD0012084F8380021621F
:10129000A284E2840025E563212084F83900236BD1
:1012A0001048D863236B10481864236B0F48D86428
:1012B000206B134605652668206B321DFFF70AFA7E
:1012C00021686FF04000086084F838502068416958
:1012D00041F080014161002070BD012070BD0220FD
:1012E00070BD0000CD140008FB1400083D14000878
:1012F00070477047FEE700000D4808B5016841F4EB
:10130000001101600068002200F4001000901146F6
:101310001020FFF73DFB1020FFF72CFB00221146A9
:101320001120FFF735FBBDE808401120FFF722BB75
:1013300030380240054808B5016841F001010160FC
:10134000006800F00100009008BD00003038024045
:101350000C4810B50A4901604FF4E13141600021A9
:1013600081600C22C160C0E904128161C161FFF794
:101370008BFE002803D0BDE81040FFF716B810BD63
:101380000044004014000020FEE7FEE7704770476D
:10139000FFF796BA10B594B034216846FEF768FF9F
:1013A00014210DA8FEF764FF17480024016841F0DE
:1013B00080510160006800F080501290134801686D
:1013C00041F4404101600068069400F440401290EE
:1013D0000220009001200390102004906846FFF73F
:1013E000F5FB08B172B6FEE70F20CDE90D040F94AE
:1013F000109400210DA81194FFF7FCFA002801D0E9
:1014000072B6FEE714B010BD4038024000700040D4
:101410000548016841F47001016003494FF0006024
:10142000803908607047000088ED00E010B5806BDF
:101430000021C185C184FFF79BFD10BD70B5846B91
:101440002068406994F83910C0F3C01000252129A4
:1014500004D118B1E584204600F062F820684069A4
:1014600094F83A10C0F38010222904D118B1E58510
:10147000204600F047F8E06B40F01000E0632046A3
:10148000FFF776FD70BD10B50146806B09680968ED
:10149000C90513D40021C1850168CA6822F480728D
:1014A000CA6001684A6922F001024A6101684A691A
:1014B00022F040024A61202180F83A10FFF7D6FE60
:1014C00010BD10B5806BFFF7D2FE10BD10B5014600
:1014D000806B09680968C9050CD40021C1840168C2
:1014E0004A6922F080024A610068C16841F0400107
:1014F000C16010BDFFF7FCFE10BD10B5806BFFF79B
:10150000F8FE10BD0168CA6822F49072CA600168D2
:101510004A6922F001024A61202180F83A1070479E
:101520000168CA6822F0C002CA60202180F8391020
:10153000704710B590F83A10222901D0022010BD52
:101540008168B1F5805F11D00169002901681FD061
:10155000496801F07F03816A4A1C82620B70C18D69
:10156000491E0904090CC18518D02BE00269816A63
:10157000002A0268526805D0D2B20A80816A491CEA
:101580008162ECE7C2F308020A80816A891CF7E7EE
:101590004A68816A4B1C83620A70E0E70168CA6886
:1015A00022F02002CA600168CA6822F48072CA6010
:1015B00001684A6922F001024A61202180F83A104C
:1015C000FFF754FE002010BD2DE9F04104460068ED
:1015D0000169E26821F44051114301612169A06869
:1015E000E26908436169114308432168CA6849F206
:1015F0000C639A430243CA6020684169A26921F4DE
:10160000407111434161E069192764253226B0F524
:10161000004F354A354920684FF0000806D088420F
:1016200001D0904236D1FFF78FFA35E0884201D0E1
:10163000904202D1FFF788FA01E0FFF775FA61687E
:101640004A18A0FB070148EB0803FEF7D9FD014645
:10165000B0FBF5F00201B1FBF5F06FF01803584351
:1016600001EB800006EBC000B0FBF5F000F0F800E5
:1016700002EB4002B1FBF5F0584301EB800006EBB2
:10168000C000B0FBF5F000F007002168104488604E
:10169000BDE8F081FFF748FA61688B0F8A00A0FB74
:1016A0000701FEF7ADFD0146B0FBF5F06FF0180243
:1016B000504301EB800006EB0010B0FBF5F000F0AA
:1016C000F002B1FBF5F002EB0012B1FBF5F06FF0A8
:1016D0001803584301EB800006EB0010B0FBF5F057
:1016E00000F00F00D1E7000000140140001001409D
:1016F00090F83910212901D0022070478168B1F596
:10170000805F016A0BD04A1C02620268097851604E
:10171000C18C491E0904090CC1840ED017E0098848
:101720000268C1F30801516001690029016A02D011
:10173000491C0162ECE7891CFBE70168CA6822F0DA
:101740008002CA600068C16841F04001C1600020A9
:10175000704700000D4808B500680168C943C90614
:101760000FD40168406800900848FFF7D5FB08488F
:101770000068406881B20748C1F1800141800121C1
:101780000170BDE808400148FFF7F4BB14000020D9
:101790005400002000000020FEE70907090E002881
:1017A00004DB00F1E02080F80014704700F00F0027
:1017B00000F1E02080F8141D704702E008C8121FF5
:1017C00008C1002AFAD170477047002001E001C12A
:1017D000121F002AFBD17047FFF77AF8FFF7DAFDF6
:1017E000FFF7A8FDFFF788FDFFF7B2FD0E48006880
:1017F000C16841F01001C16080220C490A48FFF71E
:10180000E9FC0B4C0B4E002520780028FCD02570FD
:10181000328806490448FFF72BFD8022034902481D
:10182000FFF7D8FCF0E700001400002014010020AE
:10183000000000200200002000061016000610160E
:101840000000000000000000010203040607080970
:1018500000000000010203047818000800000020C6
:1018600014000000BA1700088C18000814000020AB
:1018700084050000CA1700080000000001000000F5
:0C18800010000000000000000024F40034
:04000005080001C925
:00000001FF
