:020000040800F2
:1000000010050020DD0100085F110008071100083D
:100010005D110008150300088D13000800000000A2
:100020000000000000000000000000006311000854
:1000300017030008000000006111000865110008A6
:10004000F7010008F7010008F7010008F7010008B0
:10005000F7010008F7010008F7010008F7010008A0
:10006000F7010008F7010008F7010008F701000890
:10007000F7010008F7010008F7010008F701000880
:10008000F7010008F7010008F70100080000000070
:10009000000000000000000000000000F701000860
:1000A000F7010008F7010008F7010008F701000850
:1000B000000000000000000000000000F701000840
:1000C000F7010008F7010008F7010008F701000830
:1000D000F7010008F7010008F70100080000000020
:1000E000F7010008F7010008000000000000000010
:1000F000000000000000000000000000F701000800
:100100000000000000000000F701000800000000EF
:100110000000000000000000F701000800000000DF
:10012000F7010008F7010008F7010008F7010008CF
:10013000F7010008000000000000000000000000BF
:1001400000000000000000000000000000000000AF
:10015000F7010008F7010008F7010008F70100089F
:10016000000000000000000000000000000000008F
:10017000000000000000000000000000000000007F
:10018000F7010008F701000800000000000000006F
:1001900000000000F701000800000000000000005F
:1001A000000000000000000000000000000000004F
:1001B000000000000000000000000000F70100083F
:1001C000F7010008F7010008DFF80CD000F090F804
:1001D000004800475D1500081005002006488047CC
:1001E00006480047FEE7FEE7FEE7FEE7FEE7FEE71C
:1001F000FEE7FEE7FEE7FEE7E5110008C90100089B
:100200002DE9F05F0546002092469B46884606464B
:10021000814640241BE0284641464746224600F0DE
:1002200057F853465A46C01A914110D31146184602
:10023000224600F03EF82D1A67EB01084F46224691
:100240000120002100F035F817EB00094E41201E77
:10025000A4F10104DFDC484631462A464346BDE8A6
:10026000F09FD2B201E000F8012B491EFBD270478B
:100270000022F6E710B513460A4604461946FFF772
:10028000F0FF204610BD30B50B460146002020226D
:10029000012409E021FA02F59D4205D303FA02F593
:1002A000491B04FA02F52844151EA2F10102F1DCF3
:1002B00030BD202A04DB203A00FA02F1002070470A
:1002C0009140C2F1200320FA03F319439040704794
:1002D000202A04DB203A21FA02F00021704721FA9B
:1002E00002F3D040C2F12002914008431946704702
:1002F000064C074D06E0E06840F0010394E8070073
:1003000098471034AC42F6D3FFF762FFD8150008C7
:10031000F8150008FEE7704772B6FEE72DE9F843CE
:1003200088460746002500F069F90446002607EBD9
:100330000800401E009600F061F90D4F001B401CA4
:10034000F86000F02BFA0B49F32008600A480660B9
:100350008460F968C16002210161694600F08AF990
:1003600000B9012500F0D2F92846BDE8F883000065
:10037000280000200C3C0240C4000020002229B1CB
:1003800001291AD002291BD04FF440720E490B6884
:1003900023F440730B600B6813430B600A6822F070
:1003A000F8020A600A68022303EBC00002430A60F5
:1003B000086840F48030086070474FF48072E5E7C9
:1003C0004FF40072E2E70000103C0240134801685D
:1003D00089050FD5016821F400710160016841F4BD
:1003E00000610160016821F400610160016841F46D
:1003F00000710160016849050FD5016821F4806131
:100400000160016841F480510160016821F480516C
:100410000160016841F4806101607047003C024066
:1004200008490A6822F440720A600A6842F004022D
:100430000A600A684FF4803343EA002002430A60EE
:1004400070470000103C0240064A136823F44073D2
:10045000136013681360136843F0010313600170A5
:1004600070470000103C0240094910B50C6824F4A4
:1004700040740C600C6844F440740C600C6844F0E8
:1004800001040C600260BFF36F8F436010BD000079
:10049000103C0240074A136823F44073136013684A
:1004A00043F480731360136843F001031360018009
:1004B00070470000103C0240074A136823F4407361
:1004C0001360136843F400731360136843F001036F
:1004D0001360016070470000103C02401C4908682E
:1004E000C2061C4805D5C26942F01002C261102242
:1004F0000A600A68920605D5C26942F00802C26124
:1005000020220A600A68520605D5C26942F0040238
:10051000C26140220A600A68120605D5C26942F02B
:100520000202C26180220A600A68D20506D5C26949
:1005300042F00102C2614FF480720A600A689207B9
:1005400005D5C26942F02002C261022008607047EE
:100550000C3C0240EC00002070B51149044600201C
:10056000C86100F0E9F906460E4D09E0601C07D0AD
:1005700024B100F0E1F9801BA04201D9032070BD35
:100580002868C003F2D42868C00701D00120286081
:10059000286810F4F970F2D0FFF7A0FF012070BDB9
:1005A000EC0000200C3C024010B5002305E000BF29
:1005B00050F8234041F823405B1C9342F8DB10BD08
:1005C0002DE9F04115460E46074600F0E7F80A49C6
:1005D000F3200860002408E056F8242007EB84018B
:1005E0000023022000F09CF8641CAC42F4DB00F015
:1005F0008DF80120BDE8F0810C3C02400021A0F103
:1006000000634FF48042934217D30D4B034493424F
:1006100001D2012111E00B4B0344934201D202218C
:100620000BE0094B0344934201D2032105E0074A42
:100630001044B0F5803F00D2042108467047000006
:1006400000C0FFF70080FFF70040FFF70000FFF752
:1006500070B5044600F070F90546601C02D00448ED
:100660000078044400F068F9401BA042FAD370BD42
:10067000480000202DE9F047044622480F46017E3D
:1006800001290AD00121804601764CF250394846B2
:10069000FFF762FF020003D02FE00220BDE8F087E1
:1006A0004FF0FF3038602068174D012801D0A66850
:1006B0001CE0207C6168FFF7B3FE4846FFF74CFF63
:1006C0000246286820F00400286014E0217C3046AF
:1006D000FFF754FE4846FFF73FFF0200286820F06E
:1006E000FA00286001D03E6005E0761CD4E90210D3
:1006F0000844B042EAD8FFF769FE002188F81810D4
:100700001046CBE7EC000020103C02400348016893
:1007100041F000410160002070470000103C0240A1
:100720002DE9F0471B4E05461446307E1F4689468C
:10073000012808D0012030764CF250384046FFF7AF
:100740000BFF18B114E00220BDE8F0879DB1012D28
:1007500016D0022D19D022463B464846FFF784FEAC
:100760004046FFF7F9FE0C490A6822F001020A60D0
:1007700000213176E8E7E1B24846FFF765FEEFE792
:10078000A1B24846FFF786FEEAE721464846FFF752
:1007900093FEE5E7EC000020103C024007490020F2
:1007A0000A68002A09DA054A054B0C3A1360054B22
:1007B00013600968002900DA01207047103C0240EC
:1007C00023016745AB89EFCD2DE9F84F00224FF0AB
:1007D000010803254FF00F0E0B6808FA02F42340BE
:1007E000A3426ED14E68012E05D0022E03D0112EE9
:1007F00001D0122E12D186684FEA420C05FA0CF78E
:10080000BE43CF6807FA0CF7374387604668A643B4
:100810000C79C4F30014944034434460C668570014
:1008200005FA07FC8C6826EA0C06BC403443C46019
:100830004C68022C01D0122C13D1D40800EB840494
:10084000A346D4F8209054074FEAD46A0EFA0AF669
:1008500029EA06090E6906FA0AF646EA0906CBF8FD
:10086000206004680E7924EA0C0406F00306BE40FA
:10087000264306604C68E4004CD5294C266846F4B3
:1008800080462660246822F0030604F48044009425
:10089000244C3444A446D4F808489607370F0EFA7F
:1008A00007F6B443204EB04201D100260BE01F4EA4
:1008B000B04201D1012606E01D4EB04202D102260F
:1008C00001E027E00726BE402643CCF80868194E11
:1008D00034684F689C43FF0300D51C433460154EB9
:1008E000361D34684F689C43BF0300D51C433460F9
:1008F000104E083634684F689C43FF0200D51C43F5
:1009000034600C4E0C3634684F689C43BF0200D5EF
:100910001C433460521C102AFFF45EAFBDE8F88F10
:100920004438024000300140000002400004024010
:1009300000080240003C0140014880687047000008
:1009400048000020024881680278114481607047A5
:10095000480000200B4810B5016841F400710160A7
:10096000016841F480610160016841F480710160B7
:10097000032000F061F8002000F006F800F024F8F1
:10098000002010BD003C024070B50D4D04464FF4F0
:100990007A712878B1FBF0F00A490968B1FBF0F0F0
:1009A00000F0DAFA48B9102C07D200222146501E76
:1009B00000F022F800206C6070BD012070BD0000C6
:1009C00048000020540000200A4808B5016841F49E
:1009D00080410160006800F4804000900548001FDD
:1009E000016841F080510160006800F08050009083
:1009F00008BD000044380240F0B40E4B1B680C46A2
:100A0000C3F30223C3F10705042D00D90425191DE2
:100A1000072901D2002300E0DB1E012606FA05F1BA
:100A2000491E214099409E40761E16403143F0BC3D
:100A300000F0BEBC0CED00E0064900F007020868BB
:100A40004FF6FF03184040EA0220034A10430860B3
:100A5000704700000CED00E00000FA052DE9F047BA
:100A60000E46050065D0DFF81481D8F80000F7B213
:100A700000F00F00B04207D288F80070D8F80000EC
:100A800000F00F00B04254D128683D4C810712D5C8
:100A9000400703D5206840F4E05020602878000724
:100AA00003D5206840F4604020602068A96820F0E9
:100AB000F000084320602878C0072DD030496868CE
:100AC0000839012812D0022813D0032811D0096850
:100AD000890700292DDA216821F0030101432160F3
:100AE000FFF72AFF814641F2883A0EE00968890340
:100AF000EFE709688901ECE7FFF71EFFA0EB0901AA
:100B0000514502D90320BDE8F0872068696800F0EC
:100B10000C00B0EB810FEFD1D8F80010404601F087
:100B20000F01B14207D90770006800F00F00B04212
:100B300001D00120E7E72878400705D52068E9685B
:100B400020F4E050084320602878000706D520688C
:100B5000296920F4604040EAC100206000F038F8C4
:100B60002168084AC1F30311515CC8400649086076
:100B700006480068FFF708FF0020C4E7003C024079
:100B800008380240C0150008540000204C00002026
:100B90000448054900680968044AC1F38221515C90
:100BA000C84070475400002008380240D0150008A3
:100BB0000448054900680968044AC1F34231515CA0
:100BC000C84070475400002008380240D015000883
:100BD000154810B5006810F00C02144813D01449E1
:100BE000042A0FD0082A0ED10F4C241F2268236834
:100BF00002F03F025B0207D52068C0F38810A0FB1B
:100C0000010106E0084610BD2168C1F38811A1FB6F
:100C100000010023FFF7F4FA2168C1F30141491CE8
:100C20004900B0FBF1F010BD083802400024F40088
:100C300040787D012DE9F84F05460078DFF800B3D4
:100C4000C04CC0074AD0DBF800105846C1F3810100
:100C5000012908D00068C0F3810002280AD1201DB4
:100C60000068400206D52068800337D568680028F0
:100C700072D033E06868B0F5803F10D0B0F5A02F97
:100C8000206810D020F480302060206820F480207C
:100C900020606868A8B1FFF74FFE06460DE02068A7
:100CA00040F48030F4E740F480202060F7E700BF94
:100CB000FFF742FE801B64286FD820688003F7D5B9
:100CC0000CE0FFF739FE064605E000BFFFF734FEF3
:100CD000801B6428F0D820688003F7D42878DFF8D8
:100CE000688280074FF0000940D5DBF800105846B5
:100CF00011F00C0F09D00068C0F3810002280BD15D
:100D00008F48001F0068400206D42068800715D570
:100D1000E868012820D111E0E868B8B10120C8F8DE
:100D20000000FFF709FE064605E000BFFFF704FEDE
:100D3000801B0228C0D820688007F7D52068296961
:100D400020F0F80040EAC10020600FE0C8F80090F1
:100D5000FFF7F2FD064606E0EFE000BFFFF7ECFD0F
:100D6000801B022819D820688007F7D4287800074C
:100D700022D5734E754869696C3679B101210160DD
:100D8000FFF7DAFD074604E0FFF7D6FDC01B022897
:100D900003D830688007F7D50EE089E0C0F80090EE
:100DA000FFF7CAFD074604E0FFF7C6FDC01B022897
:100DB0007ED830688007F7D42878400768D5DFF8F8
:100DC00080A100270AF1380ADAF80000C0000BD42D
:100DD000DAF8001041F08051CAF80010DAF800008B
:100DE000012700F080500090594E3068C00510D4A3
:100DF000306840F480703060FFF79EFD009005E0A1
:100E0000FFF79AFD0099401A022851D83068C005B2
:100E1000F6D54B4EA868683601280FD005283068F3
:100E200010D020F001003060306820F00400306005
:100E3000A868B8B1FFF780FD00900FE0306840F07F
:100E40000100F4E740F004003060F7E7FFF774FDBD
:100E50000099411A41F28830814266D83068800793
:100E6000F4D50EE0FFF768FD009007E0FFF764FDA2
:100E70000099411A41F28830814256D83068800783
:100E8000F4D42FB1DAF8001021F08051CAF8001024
:100E9000A869D0B3DBF80010C1F3810102294CD05E
:100EA0000228484607D0C8F86000FFF745FD00E07B
:100EB0003BE005463CE04746C8F86000FFF73CFDD4
:100EC000064604E0FFF738FD801B02282DD8206875
:100ED0008001F7D4F5E907010843E9681D4A49088C
:100EE00002EB0141AA6841EA82110843297C40EAE9
:100EF0000160297D40EA01711148001F0160012055
:100F00003866FFF719FD054605E014E0FFF714FD0C
:100F1000401B022809D820688001F7D50BE000BFEC
:100F2000FFF70AFD401B022802D90320BDE8F88F15
:100F300020688001F4D40020F8E70120F6E70000E3
:100F4000083802400038024000004742800E474205
:100F5000007000400000FFFF10B5401EB0F1807F20
:100F600001D3012010BD4FF0E02460610F21601714
:100F700000F01EFA0020A06107202061002010BDB3
:100F800070B5040004D094F83900002510B106E0D3
:100F9000012070BD84F83850204600F023F824204A
:100FA00084F839002068C16821F40051C1602046EE
:100FB00000F026F92068016921F490410161206860
:100FC000416921F02A0141612068C16841F4005162
:100FD000C160E563202084F8390084F83A000020DD
:100FE00070BD000010B586B0044614216846FFF7B6
:100FF0003FF913492068884220D112480021026835
:1010000042F400320260006800F4003005900D48A0
:101010001038026842F001020260006800F001002E
:1010200005900C2000900220CDE9010103200390DF
:101030000720049069460448FFF7C6FB06B010BDC0
:101040000044004040380240000002402DE9F843CF
:10105000044690F839001F4616460D46202850D108
:10106000B5B1AEB194F8380001284AD0012084F817
:1010700038004FF00008C4F83C80212084F8390083
:10108000FFF75AFCA6848146E68484F8388026E07F
:101090000120BDE8F883E08C401EE084A0684B4648
:1010A000B0F5805F4FF000024FF0800120460097BE
:1010B00003D000F039F9E8B90DE000F035F9C8B90E
:1010C00028882168C0F308004860206908B16D1CB9
:1010D00005E0AD1C03E0216815F8010B4860E08CC9
:1010E0000028D8D14B46002240212046009700F02E
:1010F0001BF908B10320CCE7202084F83900002038
:10110000C7E70220C5E7FEE7054808B5016841F0DA
:1011100001010160006800F00100009008BD0000BE
:10112000303802400C4810B50A4901604FF4E131F3
:101130004160002181600C22C160C0E9041281611C
:10114000C161FFF71DFF002803D0BDE81040FFF785
:10115000E3B810BD0044004084000020FEE7FEE735
:1011600070477047FFF7EEBB10B594B03421684666
:10117000FFF77EF814210DA8FFF77AF8174800242E
:10118000016841F080510160006800F080501290C9
:101190001348016841F4404101600068069400F47E
:1011A00040401290022000900120039010200490F3
:1011B0006846FFF73FFD08B172B6FEE70F20CDE9A4
:1011C0000D040F94109400210DA81194FFF746FC14
:1011D000002801D072B6FEE714B010BD40380240BE
:1011E000007000400548016841F470010160034946
:1011F0004FF00060803908607047000088ED00E023
:101200002DE9F041044600680169E26821F440518B
:10121000114301612169A068E269084361691143D2
:1012200008432168CA6849F20C639A430243CA60C2
:1012300020684169A26921F4407111434161E0696C
:10124000192764253226B0F5004F354A3549206804
:101250004FF0000806D0884201D0904236D1FFF707
:10126000A7FC35E0884201D0904202D1FFF7A0FCF4
:1012700001E0FFF78DFC61684A18A0FB070148EB0D
:101280000803FEF7BDFF0146B0FBF5F00201B1FB1C
:10129000F5F06FF01803584301EB800006EBC00037
:1012A000B0FBF5F000F0F80002EB4002B1FBF5F006
:1012B000584301EB800006EBC000B0FBF5F000F0F6
:1012C0000700216810448860BDE8F081FFF760FCEA
:1012D00061688B0F8A00A0FB0701FEF791FF0146B2
:1012E000B0FBF5F06FF01802504301EB800006EB05
:1012F0000010B0FBF5F000F0F002B1FBF5F002EBEE
:101300000012B1FBF5F06FF01803584301EB8000B9
:1013100006EB0010B0FBF5F000F00F00D1E7000085
:1013200000140140001001402DE9F0419846174695
:101330000E460446069D1DE0681C1BD02DB1FFF72C
:10134000FBFAA0EB0800A84214D92068C16821F478
:10135000D071C1602068416921F001014161202004
:1013600084F8390084F83A00002084F8380003201B
:10137000BDE8F0812068006836EA000004D0002053
:10138000B842D9D00020F3E70120F9E7FEE70000DA
:101390000FB4054B10B503A9044A029800F028F8D1
:1013A00010BC5DF814FB0000451500085800002033
:1013B0000907090E002804DB00F1E02080F8001482
:1013C000704700F00F0000F1E02080F8141D704716
:1013D00002E008C8121F08C1002AFAD170477047FE
:1013E000002001E001C1121F002AFBD1704700005C
:1013F0002DE9FF4F89B09B460446002506E02528CD
:101400000BD05A460B999047641C6D1C207800281D
:10141000F5D10DB02846BDE8F08F0027B84601226F
:10142000474900E0074314F8013F203B02FA03F06C
:101430000842F7D120782E2819D114F8010F47F06F
:1014400004072A280ED06FF02F022078A0F1300177
:1014500009290CD808EB880102EB410100EB0108D7
:10146000641CF2E70A98641C50F8048B0A902078F8
:101470000028CED0642808D0692806D075281ED050
:101480005A460B9990476D1C58E00A994FF00A098B
:1014900001C90A91002802DA40422D2102E03905F3
:1014A00004D52B218DF82010012103E0F90704D089
:1014B0002021F7E78A4608AE0DE00021FAE70A99F5
:1014C0004FF00A0901C90A91F7E74946FEF7DBFE2A
:1014D000303106F8011D0028F7D1ADEB060000F110
:1014E0002009780701D44FF00108C84502DDA8EBB8
:1014F000090000E000208046002706E008A85A46C0
:10150000C05D0B9990476D1C7F1C5745F6DB04E0CE
:1015100030205A460B9990476D1CB8F10001A8F194
:101520000108F5DC05E016F8010B5A460B999047C7
:101530006D1CB9F10001A9F10109F4DC641C65E737
:101540000928010013B54FF6FF73012269460248CE
:10155000FFF77CFD00981CBD840000200024FFF7ED
:10156000F9F9FFF701FEFFF7CFFDFFF7DBFD72B6DC
:101570000F4D4FF440412846FEF7D0FE0A220D4998
:101580002846FFF71DF862B64FF4FA70FFF760F8CF
:101590000A2209492846FFF707F8074D07A055F822
:1015A0002410FFF7F5FE641CE4B20A2CF6D3FEE724
:1015B00000400008000000205C00002025642C0092
:1015C00000000000000000000102030406070809F3
:1015D0000000000001020304F815000800000020CC
:1015E0005C000000D0130008541600085C000020C6
:1015F000B4040000E0130008000000000100000037
:1016000002000000030000000400000005000000CC
:1016100006000000070000000800000009000000AC
:1016200000000000000000000000000000000000BA
:1016300000000000000000000000000000000000AA
:101640000100000010000000000000000024F40071
:041650000000000096
:04000005080001C925
:00000001FF
