:020000040800F2
:10000000380700209D010008AF170008AF16000850
:10001000AD17000847070008311B0008000000006A
:10002000000000000000000000000000FD180008B3
:100030004907000800000000B1170008FF18000879
:10004000B7010008B7010008B7010008B7010008B0
:10005000B7010008B7010008B7010008B7010008A0
:10006000B7010008B7010008B7010008B701000890
:10007000B7010008B7010008B7010008B701000880
:10008000B7010008B7010008B7010008B701000870
:10009000B7010008B7010008B7010008B701000860
:1000A000B7010008B7010008B7010008B701000850
:1000B000B7010008B7010008B7010008B701000840
:1000C000B7010008B7010008B7010008B701000830
:1000D000B7010008B7010008B7010008B701000820
:1000E000B7010008B7010008B7010008B701000810
:1000F000B7010008B7010008B7010008B701000800
:10010000B7010008B7010008B7010008B7010008EF
:10011000B7010008B7010008B7010008B7010008DF
:10012000B7010008B7010008B7010008B7010008CF
:10013000B7010008B7010008B7010008B7010008BF
:10014000B7010008B7010008B7010008B7010008AF
:10015000B7010008B7010008B7010008B70100089F
:10016000B7010008B7010008B7010008B70100088F
:10017000B7010008B7010008B7010008000000003F
:10018000B7010008B7010008DFF80CD000F05AFAF8
:1001900000480047312900083807002006488047FA
:1001A00006480047FEE7FEE7FEE7FEE7FEE7FEE75C
:1001B000FEE7FEE7FEE7FEE789190008890100086F
:1001C0002DE9F05F0546002092469B46884606468C
:1001D000814640241BE0284641464746224600F01F
:1001E00069F853465A46C01A914110D31146184631
:1001F000224600F050F82D1A67EB01084F462246C0
:100200000120002100F047F817EB00094E41201EA5
:10021000A4F10104DFDC484631462A464346BDE8E6
:10022000F09F40EA01039B0703D009E008C9121FB1
:1002300008C0042AFAD203E011F8013B00F8013BA0
:10024000521EF9D27047D2B201E000F8012B491ECC
:10025000FBD270470022F6E710B513460A46044663
:100260001946FFF7F0FF204610BD30B50B4601469A
:1002700000202022012409E021FA02F59D4205D345
:1002800003FA02F5491B04FA02F52844151EA2F1EF
:100290000102F1DC30BD202A04DB203A00FA02F131
:1002A000002070479140C2F1200320FA03F3194364
:1002B00090407047202A04DB203A21FA02F0002106
:1002C000704721FA02F3D040C2F120029140084366
:1002D000194670472DE9FE4F804681EA0300C00FA2
:1002E0000C46009021F0004123F00045B8EB0200DD
:1002F000A94105D24046214690461C460B4602467F
:1003000023F00040104347D0270DC7F30A00C3F382
:100310000A510290401A019040286BDAC3F313008F
:1003200040F4801B0098924620B10023D2EB030AD0
:1003300063EB0B0B01985946C0F140025046FFF7A2
:10034000AAFF06460D4650465946019A00F08CF920
:1003500010EB08006141002487EA115284EAE77338
:100360001A4340D0009A62B3019A012A4FEA075219
:1003700015DC001B61EB02014FF0004202EA07525C
:10038000CDE90042001C41F5801132462B4600F0B9
:100390008CF903B0BDE8F08F40462146F9E7001B19
:1003A00061EB0201001C41F5801300185B4120182D
:1003B000A2F5001747EB030140EAD570B6196D416D
:1003C00011E06D084FEA360645EAC0754FEA07525C
:1003D000001B61EB0201001C41F5801149084FEA46
:1003E00030000019514132462B4603B0BDE8F04FB2
:1003F00000F04CB90098012240000023D0EB02022B
:1004000063EBE073009821464FEAE074B8EB00001C
:1004100061EB0401E9E783F000435BE781F0004111
:1004200058E72DE9FE4F81EA030404F0004421F06F
:10043000004100944FF0000B23F0004350EA010408
:100440005ED052EA03045BD0C3F30A54C1F30A55E9
:100450002C44A4F2F3340194A0FB0254C1F3130121
:1004600041F48011C3F3130343F4801301FB0244EE
:1004700000FB034E840A970A44EA815447EA8357F3
:10048000A4FB076802958D0A05FB07854FEA932CAC
:1004900004FB0C542705029D4FEA065847EA16371D
:1004A000B5EB08056EEB070C870E920E47EA811735
:1004B00042EA8312A7FB0201B6EB0B0164EB0004D6
:1004C0002B0D43EA0C335E1844EB1C50DA465146C0
:1004D000E7FB0201C5F313044FEA0B3343EA14535D
:1004E0004FEA0432019C43EA0603A4F10C0402948F
:1004F000009CCDE900B400F0D8F803B0BDE8F08F5F
:1005000000200146F9E72DE9F04D81EA030404F0EB
:10051000004B21F0004514464FF0000A23F0004143
:1005200050EA050220D054EA01021DD0C5F30A5753
:100530000246C5F31303C1F31300C1F30A5640F496
:10054000801543F48013A7EB0608101BD64608F26B
:10055000FD3873EB050002D308F1010801E09218A1
:100560005B41B8F1000F03DA00200146BDE8F08DD1
:1005700000204FF48011064684460EE0171B73EBF3
:10058000050705D3121B63EB050306434CEA010C78
:1005900049084FEA300092185B4150EA0107EDD15B
:1005A00052EA030012D082EA040083EA05010843FC
:1005B00005D0101BAB4106D20122002306E0002229
:1005C0004FF0004302E06FF0010253101AEB0600F7
:1005D0004CEB085110EB0A0041EB0B01BDE8F04D6C
:1005E00000F054B8C1F30A52C1F3130140F2FF33D3
:1005F00041F480119A4202DA00200146704740F22D
:1006000033439A42A2F2334202DC5242FFF752BE17
:10061000FFF741BE30B5041E71F1000404DB4FF05A
:100620000044404264EB0101141E73F1000405DB39
:100630001C464FF00043524263EB0403994208BF4B
:10064000904230BD064C074D06E0E06840F00103E3
:1006500094E8070098471034AC42F6D3FFF798FDB2
:1006600090480008B0480008202A06DBCB17203A43
:1006700041FA02F043EAE07306E041FA02F3D040A7
:10068000C2F12002914008431946704710B5141E6C
:1006900073F1000408DA401C41F1000192185B413B
:1006A0001A4301D120F0010010BD2DE9F04D924612
:1006B0009B4611B1B1FA81F202E0B0FA80F2203229
:1006C0009046FFF7E8FD04460F4640EA0A0041EA7B
:1006D0000B0153465A46084313D0114653EA010012
:1006E00019D0C8F140025046FFF7E4FD05460E461A
:1006F000504659464246FFF7CEFD084305D001203B
:1007000004E020463946BDE8F08D0020054346EA66
:10071000E0762C4337430A986305E40AA0EB08000F
:100720000022FD0A44EA47540A3002D5002001465F
:10073000E9E7010510196941DDE90845001969413A
:10074000BDE8F04DA2E7FEE77047704770B504467C
:1007500000F0F0F80546601C02D00448007804441C
:1007600000F0E8F8401BA042FAD370BD0C00002056
:100770002DE9F84F00224FF0010803254FF00F0E2E
:100780000B6808FA02F42340A3426ED14E68012E92
:1007900005D0022E03D0112E01D0122E12D1866860
:1007A0004FEA420C05FA0CF7BE43CF6807FA0CF784
:1007B000374387604668A6430C79C4F3001494401D
:1007C00034434460C668570005FA07FC8C6826EA83
:1007D0000C06BC403443C4604C68022C01D0122C7F
:1007E00013D1D40800EB8404A346D4F82090540716
:1007F0004FEAD46A0EFA0AF629EA06090E6906FAE1
:100800000AF646EA0906CBF8206006680C7926EA63
:100810000C0604F00304BC40344304604C68E4005C
:1008200065D5364C266846F480462660246822F05A
:10083000030604F480440094314C3444A446D4F8B4
:1008400008489607370F0EFA07F6B4432D4EB0420C
:1008500001D1002624E02C4EB04201D101261FE038
:100860002A4EB04202D102261AE040E0284EB042A1
:1008700001D1032614E0274EB04201D104260FE037
:10088000254EB04201D105260AE0244EB04201D1E6
:10089000062605E0224EB04201D1072600E00826D8
:1008A000BE402643CCF808681E4E34684F689C430F
:1008B000FF0300D51C4334601A4C241D26684F6882
:1008C0009E43BF0300D51E432660164E083634688B
:1008D0004F689C43FF0200D51C433460114E0C3618
:1008E00034684F689C43BF0200D51C433460521CDF
:1008F000102AFFF445AFBDE8F88F000044380240ED
:1009000000300140000002400004024000080240A4
:10091000000C024000100240001402400018024087
:10092000001C0240003C01400AB18161704709048B
:10093000FBE7000001488068704700000C000020C1
:100940000248816802781144816070470C000020E1
:100950000B4810B5016841F400710160016841F471
:1009600080610160016841F480710160032000F042
:1009700061F8002000F006F800F024F8002010BD17
:10098000003C024070B50D4D04464FF47A71287852
:10099000B1FBF0F00A490968B1FBF0F000F0AFFDDF
:1009A00048B9102C07D200222146501E00F022F830
:1009B00000206C6070BD012070BD00000C000020A4
:1009C000180000200A4808B5016841F48041016020
:1009D000006800F4804000900548001F016841F065
:1009E00080510160006800F08050009008BD000058
:1009F00044380240F0B40E4B1B680C46C3F302238C
:100A0000C3F10705042D00D90425191D072901D2BA
:100A1000002300E0DB1E012606FA05F1491E2140F5
:100A200099409E40761E16403143F0BC01F0A8B8B4
:100A30000CED00E0064900F0070208684FF6FF03DE
:100A4000184040EA0220034A104308607047000043
:100A50000CED00E00000FA052DE9F0470E46050018
:100A600065D0DFF81481D8F80000F7B200F00F006D
:100A7000B04207D288F80070D8F8000000F00F00EC
:100A8000B04254D128683D4C810712D5400703D5A8
:100A9000206840F4E05020602878000703D52068E3
:100AA00040F4604020602068A96820F0F00008430E
:100AB00020602878C0072DD030496868083901289F
:100AC00012D0022813D0032811D009688907002901
:100AD0002DDA216821F0030101432160FFF72AFF8D
:100AE000814641F2883A0EE009688903EFE7096818
:100AF0008901ECE7FFF71EFFA0EB0901514502D980
:100B00000320BDE8F0872068696800F00C00B0EBB6
:100B1000810FEFD1D8F80010404601F00F01B1422B
:100B200007D90770006800F00F00B04201D0012023
:100B3000E7E72878400705D52068E96820F4E05009
:100B4000084320602878000706D52068296920F42A
:100B5000604040EAC100206000F038F82168084A8F
:100B6000C1F30311515CC84006490860064800689B
:100B7000FFF708FF0020C4E7003C024008380240AD
:100B80001343000818000020100000200448054905
:100B900000680968044AC1F38221515CC84070476B
:100BA0001800002008380240234300080448054983
:100BB00000680968044AC1F34231515CC84070477B
:100BC000180000200838024023430008154810B5DB
:100BD000006810F00C02144813D04110042A0FD002
:100BE000082A0ED10F4C241F2268236802F03F020E
:100BF0005B0207D52068C0F38810A0FB010106E066
:100C0000084610BD2168C1F38811A1FB0001002333
:100C1000FFF7D6FA2168C1F30141491C4900B0FB36
:100C2000F1F010BD083802400024F4002DE9F84F1F
:100C300004006ED02078DFF83C93C007A9F10405CA
:100C40004AD009F104000168C1F38101012908D0EB
:100C50000068C0F3810002280AD1D9F800004002E0
:100C600006D52868800337D560680028E1D033E0D6
:100C70006068B0F5803F10D0B0F5A02F286810D084
:100C800020F480302860286820F480202860606884
:100C9000A8B1FFF74FFE06460DE0286840F480300B
:100CA000F4E740F480202860F7E700BFFFF742FE3A
:100CB000801B642873D828688003F7D50CE0FFF701
:100CC00039FE064605E000BFFFF734FE801B6428AE
:100CD000F0D828688003F7D42078DFF89C8280075A
:100CE0004FF0000A3ED5A348001D016811F00C0F1B
:100CF00008D00068C0F3810002280BD1D9F80000A9
:100D0000400207D42868800716D5E068012800D182
:100D100012E02BE1E068B8B10120C8F80000FFF74D
:100D200009FE064605E000BFFFF704FE801B02280F
:100D3000C0D828688007F7D52868216920F0F80016
:100D400040EAC10028600DE0C8F800A0FFF7F2FDFE
:100D5000064604E0FFF7EEFD801B02281FD8286836
:100D60008007F7D42078000722D5824E8348616936
:100D7000703671B101210160FFF7DCFD074604E028
:100D8000FFF7D8FDC01B022809D830688007F7D5C7
:100D90000EE0C0F800A0FFF7CDFD074605E082E0B9
:100DA000FFF7C8FDC01B02287DD830688007F7D444
:100DB0002078400768D5DFF8BCB100270BF13C0B69
:100DC000DBF80000C0000BD4DBF8001041F08051CC
:100DD000CBF80010DBF80000012700F080500090F5
:100DE000674E3068C00510D4306840F480703060C1
:100DF000FFF7A0FD009005E0FFF79CFD0099401A69
:100E0000022850D83068C005F6D55A4EA0686C3616
:100E100001280FD00528306810D020F00100306084
:100E2000306820F004003060A068B8B1FFF782FDA0
:100E300000900FE0306840F00100F4E740F004005B
:100E40003060F7E7FFF776FD0099411A41F28830EC
:100E5000814266D830688007F4D50EE0FFF76AFD5E
:100E6000009007E0FFF766FD0099411A41F28830D3
:100E7000814256D830688007F4D42FB1DBF80010D7
:100E800021F08051CBF80010A069C8B33949091D81
:100E90000968C1F3810102294AD00228504607D0CF
:100EA000C8F8600000E03CE0FFF744FD04463BE08A
:100EB0004746C8F86000FFF73DFD064605E000BF65
:100EC000FFF738FD801B02282BD828688001F7D453
:100ED000D4E907010843A16A2A4A490802EB014103
:100EE000626A41EA8211084394F82C1040EA0161D9
:100EF000C9F8001001203866FFF71CFD044606E023
:100F000036E000BFFFF716FD001B022809D828684D
:100F10008001F7D52CE000BFFFF70CFD001B022875
:100F200002D90320BDE8F88F28688001F4D41FE0BF
:100F30000128F7D0D9F80000E26900F4800191425D
:100F400014D1226A00F03F0191420FD147F6C071DF
:100F5000626A0140914209D1A26A00F44031914293
:100F600004D1E16A00F07060884201D00120D9E725
:100F70000020D7E70438024000004742800E474275
:100F8000007000400000FFFF70B5040005D0002590
:100F9000A56294F8510010B106E0012070BD84F8FC
:100FA0005050204600F030F8022084F851002068AC
:100FB000016821F040010160D4E901010843D4E94E
:100FC00003121143084361690843218B01F4007146
:100FD0000843E1690843216A0843A16A084321687C
:100FE0000860A069042101EA1040616A0843216891
:100FF00048602068C16921F40061C1616565012014
:1010000084F85100002070BD10B586B0044614214C
:101010006846FFF71FF913492068884220D112481B
:101020000021026842F480520260006800F480509F
:1010300005900D481438026842F002020260006810
:1010400000F002000590382000900220CDE9010157
:10105000032003900520049069460448FFF788FBAD
:1010600006B010BD00300140443802400004024088
:101070002DE9F84F044640680025984616460F466D
:101080004FF0040BB0F5827F01D1A06888B194F8CD
:101090005000012818D0012084F85000FFF74AFCC6
:1010A000814694F851004FF0000A01280ED0022525
:1010B0007DE084F851B013460A462046CDF8008002
:1010C00000F02CF9BDE8F88F0220FBE7002F6DD06F
:1010D000002E6BD084F851B0C4F854A0A763A68743
:1010E000E687C4F830A0A4F834A0A4F836A0C4F869
:1010F00040A0C4F844A0A068B0F5004F04D1206817
:10110000016821F48041016020680168490603D428
:10111000016841F040010160E068D8B139E0206821
:101120008168C90709D0007BA16B0870A06B401CC7
:10113000A063E08F401EE0870CE0FFF7FBFBA0EB15
:101140000901414503D3B8F1FF3F03D036E0B8F1C0
:10115000000F33D0E08F0028E1D11DE020688168C6
:10116000C90709D0C068A16B0880A06B801CA06370
:10117000E08F401EE0870CE0FFF7DCFBA0EB0901ED
:10118000414503D3B8F1FF3F03D017E0B8F1000F9A
:1011900014D0E08F0028E1D14A464146204600F0B5
:1011A00008FB08B120206065606D00B101250120B9
:1011B00084F8510084F850A0284683E70325F6E719
:1011C0002DE9F84F044690F8500000271D461646BA
:1011D000894601280DD04FF0010B84F850B0FFF77D
:1011E000A9FB804694F85100BA46012804D0022792
:1011F0008EE00220BDE8F88FB9F1000F7DD0002EFF
:101200007BD0032084F85100C4F854A0C4F8309077
:10121000A686E686C4F838A0A4F83CA0A4F83EA0B0
:10122000C4F844A0C4F840A0A068B0F5004F04D1B1
:101230002068016841F48041016020680168490626
:1012400003D4016841F040010160E068B0F5006F2F
:10125000606803D030B3012E24D040E008B1012EE5
:101260001CD1206B21680088C86006E02068816876
:10127000890709D5216B0988C160206B801C206318
:10128000E08E401EE08609E0FFF754FBA0EB08006B
:10129000A84202D3681C01D031E07DB3E08E002863
:1012A000E4D11FE0206B21680078087306E0206815
:1012B0008168890709D5216B09780173206B401C6F
:1012C0002063E08E401EE08609E0FFF733FBA0EBD1
:1012D0000800A84202D3681C01D010E075B1E08E6E
:1012E0000028E4D142462946204600F091FA08B190
:1012F00020206065A06820B107E008E0FFE7032731
:1013000006E02068C16880680090606D00B1012728
:1013100084F851B084F850A038466BE72DE9F84FB7
:10132000044690F8500000270A9E1D4692468B46C0
:101330004FF0010901280ED0012084F85000FFF77A
:10134000F9FA804694F85100616801280CD0B1F593
:10135000827F07D102E00220BDE8F88FA16809B9B9
:10136000042801D00227C2E0BBF1000F27D0BAF158
:10137000000F24D01DB394F85100042802D005209A
:1013800084F8510000206065C4F838A0E587A5877F
:10139000C4F830B0E586A5862064606420680168E2
:1013A000490603D4016841F040010160E068B0F5EE
:1013B000006F606805D0E8B3012D46D07FE00127BB
:1013C00095E008B1012D39D1206B21680088C860F3
:1013D000206B801C2063E08E401EE0862EE020689B
:1013E000816889070FD5E18E69B1B9F1010F0AD182
:1013F000216B0988C160206B801C2063E08E401E39
:10140000E0864FF0000920688168C9070CD0E18FA1
:1014100051B1C068A16B0880A06B801CA063E08FF5
:10142000401EE0874FF00109FFF784FAA0EB0800A7
:10143000B04200E009E001D3701C50D1E08E0028DA
:10144000CDD1E08F0028CAD13FE0206B2168007821
:101450000873206B401C2063E08E401EE0862EE067
:101460002068816889070FD5E18E69B1B9F1010F54
:101470000AD1216B09780173206B401C2063E08E38
:10148000401EE0864FF0000920688168C9070CD033
:10149000E18F51B1C068A16B0870A06B401CA063C4
:1014A000E08F401EE0874FF00109FFF743FAA0EB01
:1014B0000800B04202D3701C01D010E07EB1E08E73
:1014C0000028CDD1E08F0028CAD1424631462046BF
:1014D00000F09EF928B101272020606507E003276E
:1014E00005E0A06818B92068C168806800900120F4
:1014F00084F85100002084F8500038462CE710B5DD
:10150000401EB0F1807F01D3012010BD4FF0E024D8
:1015100060610F21601700F033FB0020A0610720FD
:101520002061002010BD70B5040004D094F839008B
:10153000002510B106E0012070BD84F83850204627
:1015400000F022F8242084F839002068C16821F4D2
:101550000051C160204600F025FA2068016921F49D
:10156000904101612068416921F02A0141612068B0
:10157000C16841F40051C160E563202084F839005E
:1015800084F83A00002070BD10B586B004461421DE
:101590006846FEF75FFE14492068884221D113484F
:1015A0000021026842F010020260006800F01000A2
:1015B00005900E481438026842F00102026000688B
:1015C00000F0010005904FF4C06000900220CDE9CA
:1015D0000101032003900720049069460448FFF7A7
:1015E000C7F806B010BD00000010014044380240AA
:1015F000000002402DE9F843044690F839001F46E8
:1016000016460D46202850D1B5B1AEB194F8380039
:1016100001284AD0012084F838004FF00008C4F8AF
:101620003C80212084F83900FFF784F9A6848146A4
:10163000E68484F8388026E00120BDE8F883E08C59
:10164000401EE084A0684B46B0F5805F4FF000027A
:101650004FF080012046009703D000F037FAE8B938
:101660000DE000F033FAC8B928882168C0F30800FB
:101670004860206908B16D1C05E0AD1C03E02168DD
:1016800015F8010B4860E08C0028D8D14B460022A9
:1016900040212046009700F019FA08B10320CCE75A
:1016A000202084F839000020C7E70220C5E7FEE7C4
:1016B00070B586B014216846FEF7CCFD1A480024A8
:1016C000016841F080010160016801F0800105912D
:1016D000016841F040010160016801F0400105919D
:1016E000016841F001010160016801F0010105910B
:1016F000016841F00201016000680C4E00F0020038
:101700004FF480750590002229463046FFF70CF90A
:1017100001200095CDE90104694630460394FFF7A6
:1017200027F806B070BD00003038024000180240B3
:101730000F4810B50D4901604FF4827141600021DE
:101740008160C1604FF400720161C0E90512C1619E
:101750000162416281620A21C162FFF715FC002823
:1017600003D0BDE81040FEF7F0BF10BD00300140CF
:101770009C0200200C4810B50A4901604FF4E13189
:101780004160002181600C22C160C0E904128161C6
:10179000C161FFF7C8FE002803D0BDE81040FEF786
:1017A000D4BF10BD00100140F4020020FEE77047D6
:1017B0007047F8B5044640684FF48273984221D1CF
:1017C000A0684FF48065B0F5004F01D0A8420AD15F
:1017D0002068066826F0400606606068984211D1CD
:1017E000A068A8420ED000920B460022802120461D
:1017F00000F03AF8002804D0606D40F020006065E9
:101800000320F8BD00920B4600220121EFE7000003
:1018100038B504461248134B0068B0FBF3F04FF4A0
:101820007A73584300906068B0F5827F0DD10B4603
:10183000009200228021204600F016F870B1606D01
:1018400040F020006065032038BD009830B1401E94
:10185000009020688068C0430006F6D5002038BD9F
:101860001800002000366E012DE9F0411D46174694
:101870000E460446DDF8188008E0681C06D0FFF725
:1018800059F8A0EB0800A8420BD255B12068806837
:1018900036EA000030D00020B842EED10020BDE88A
:1018A000F0812068416821F0E00141606068B0F596
:1018B000827F0BD1A068B0F5004F02D0B0F5806FE9
:1018C00004D12068016821F040010160A06AB0F5F0
:1018D000005F09D12068016821F40051016020688F
:1018E000016841F400510160012084F8510000209A
:1018F00084F850000320D2E70120CDE77047FFF7BE
:101900001FB8000030B593B030216846FEF7A2FC46
:1019100014210CA8FEF79EFC19480025016841F02F
:1019200080510160006800F08050119015480168F6
:1019300041F4804101600068022400F4804011906D
:101940000120039010200490009406940820CDE913
:101950000750A820CDE9090404200B906846FFF742
:1019600065F90CA90F2081E831004FF4A0500F90C9
:10197000E002109005210CA8FFF76EF813B030BDFF
:1019800040380240007000400548016841F4700191
:10199000016003494FF00060803908607047000023
:1019A00088ED00E02DE9F041044600680169E26835
:1019B00021F44051114301612169A068E2690843A3
:1019C0006169114308432168CA6849F20C639A436C
:1019D0000243CA6020684169A26921F44071114341
:1019E0004161E069192764253226B0F5004F354A78
:1019F000354920684FF0000806D0884201D0904257
:101A000036D1FFF7D3F835E0884201D0904202D1B9
:101A1000FFF7CCF801E0FFF7B9F861684A18A0FBBE
:101A2000070148EB0803FEF7CBFB0146B0FBF5F0DE
:101A30000201B1FBF5F06FF01803584301EB800091
:101A400006EBC000B0FBF5F000F0F80002EB40023E
:101A5000B1FBF5F0584301EB800006EBC000B0FB92
:101A6000F5F000F00700216810448860BDE8F081BF
:101A7000FFF78CF861688B0F8A00A0FB0701FEF767
:101A80009FFB0146B0FBF5F06FF01802504301EBED
:101A9000800006EB0010B0FBF5F000F0F002B1FBA7
:101AA000F5F002EB0012B1FBF5F06FF018035843AC
:101AB00001EB800006EB0010B0FBF5F000F00F002A
:101AC000D1E7000000140140001001402DE9F04171
:101AD000984617460E460446069D1DE0681C1BD01E
:101AE0002DB1FEF727FFA0EB0800A84214D920680B
:101AF000C16821F4D071C1602068416921F0010101
:101B00004161202084F8390084F83A00002084F8EC
:101B100038000320BDE8F0812068006836EA000044
:101B200004D00020B842D9D00020F3E70120F9E723
:101B3000FEE700000FB4054B10B503A9044A029854
:101B400000F000F910BC5DF814FB000079260008D5
:101B50001C0000207CB5044600201D4616460029C6
:101B60000BD0491ECDE90041044B6A462946304658
:101B700000F0E8F8009A002111707CBD7324000881
:101B80000907090E002804DB00F1E02080F80014AA
:101B9000704700F00F0000F1E02080F8141D70473E
:101BA00002E008C8121F08C1002AFAD17047704726
:101BB000002001E001C1121F002AFBD17047000084
:101BC0002DE9FF5F82B00021DDE90430020DDDF870
:101BD00040B0034318D044F61050A2F2FF32424303
:101BE0001514119801281FD0A5EB0B00401C5FEACB
:101BF000000A4FF000064E4FDFF83891B0465046CD
:101C000015D5CAF1000413E0119801244AA3012854
:101C100001D16FEA0B010298119AC0E90031C0E9C5
:101C2000024206B0BDE8F09FCBF10000DFE70446BA
:101C30000021404A491842EB0450CDE9001012E05F
:101C4000E00707D032463B4640464946FEF7E9FBEF
:101C50008046894632463B4610461946FEF7E1FB70
:101C600006460F466410002CEAD1DDE90401DDE9E7
:101C70000023BAF1000F06DAFEF7D3FB42464B46CB
:101C8000FEF7CFFB05E0FEF73EFC42464B46FEF773
:101C90003AFC04460E460022284BFEF7BBFC03D854
:101CA0004FF0FF30014607E00022254B2046314629
:101CB000FEF710FBFEF796FC102409E0002C0ADB6F
:101CC0000A220023FEF77CFA039B30321A55641E69
:101CD00050EA0102F2D1641C039AC4F111031444C6
:101CE000119A012A03D0012208430DD10AE00843CA
:101CF00004D000204FF0110B119072E7A3EB0B05FD
:101D00006D1E0DE05B4504DD4FF0000205F101059D
:101D100004E003DA4FF00002A5F10105002AECD03F
:101D200002981199C0E90231C0E9004579E7000045
:101D3000000014400000F03F300000000000F043BD
:101D40000000E03F2DE9FF4F95B09B4689460646CF
:101D500000250FE2252877D100242746F84A0121E3
:101D6000059400E0044316F8013F203B01FA03F01C
:101D70001042F7D130782A2811D06FF02F03307835
:101D8000A0F13002092A16D8059A44F0020402EBA9
:101D9000820203EB42021044761C0590EFE759F8EB
:101DA000042B0592002A03DA504244F400540590B3
:101DB00044F00204761C30782E2816D116F8010F54
:101DC00044F004042A280DD06FF02F023078A0F1DF
:101DD0003003092B09D807EB870302EB4303C7182D
:101DE000761CF3E759F8047B761C30786C280FD00A
:101DF00006DC4C2817D068280DD06A2814D104E0DE
:101E0000742810D07A280FD10DE044F400140AE0B1
:101E100044F4801401E044F440147278824202D108
:101E200004F58014761C761C307866280BD013DC01
:101E3000582877D009DC002875D04528F6D04628E8
:101E4000F4D047281AD19DE118E0632835D06428E2
:101E500079D0652812D195E1702873D008DC672805
:101E6000F1D069286FD06E280DD06F2806D1B5E06B
:101E700073282CD0752875D0782874D05A461799B5
:101E800090476D1C75E1C4F30250022809D0032865
:101E90000DD0D9F8001004280DD00D6009F1040907
:101EA00067E1D9F80010EA17C1E90052F6E7D9F85E
:101EB00000100D80F2E70D70F0E719F8041B8DF8A3
:101EC000001000208DF80100EA46012003E059F8D7
:101ED00004AB4FF0FF3061074FF0000102D40DE07A
:101EE00008F101018846B9420FDA8045F8DB1AF89B
:101EF00008100029F4D108E008F101018846814268
:101F0000FADB1AF808100029F6D105985B46A0EB19
:101F1000080721463846179A00F094FA284400EB47
:101F2000080507E04DE029E10DE01AF8010B5A46DB
:101F300017999047B8F10108F7D25B462146384619
:101F4000179A13E142E00A220092C4F302524FF0C2
:101F5000000A022A08D059F804CB032A4FEAEC7190
:101F60000AD00DE029E02AE009F1070121F007027B
:101F7000F2E802C1914609E00FFA8CFC4FEAEC71DD
:101F8000042A03D14FFA8CFC4FEAEC71002907DADE
:101F90000A460021DCF1000C61EB02012D2202E077
:101FA000220504D52B228DF80420012203E0E2074C
:101FB00001D02022F7E7904659E00A2102E01022E2
:101FC0000DE010214FF0000A00910BE010224FF0BD
:101FD000000A44F004040827009203E008224FF0AE
:101FE000000A0092C4F30252022A05D059F804CB29
:101FF0000021032A08D009E009F1070121F00702B6
:10200000F2E802C1914605E01FFA8CFC042A01D1D6
:102010000CF0FF0C4FF00008220728D5702806D0DE
:10202000009B83F0100353EA0A0305D00EE0402220
:102030008DF80420012208E05CEA010206D030227B
:102040008DF804208DF8050002229046009B83F055
:10205000080353EA0A030AD15CEA010201D16207CC
:1020600005D530228DF804204FF001087F1E582836
:1020700004D034A003900EA802900DE036A0F9E73A
:1020800053466046009AFEF79BF884460398825CAC
:102090000298401E029002705CEA0100F0D10298A2
:1020A00006A9081A00F1200A600702D524F480343A
:1020B00000E00127574502DDA7EB0A0000E0002001
:1020C00000EB0A01009005984144401A0590E00396
:1020D00006D45B462146179A059800F0B3F90544EB
:1020E000002706E001A85A46C05D179990476D1C6D
:1020F0007F1C4745F6DBE0030CD55B462146179A6B
:10210000059800F09FF9054404E030205A461799DD
:1021100090476D1C0099481E00900029F5DC08E0EE
:10212000029802995A460078491C029117999047E3
:102130006D1CBAF10001AAF1010AF1DC65E10000B1
:10214000092801003031323334353637383961628D
:102150006364656600000000303132333435363751
:1021600038394142434445460000000000F058F928
:102170000544761C307800287FF4ECAD19B0284671
:10218000BDE8F08F620700D4062709F1070222F0AC
:10219000070CFCE80223E14603F000485FEA080C64
:1021A00002D00FF2702C0DE05FEA045C02D50FF252
:1021B000682C07E05FEAC47C02D00FF2602C01E0DB
:1021C000AFF2700C4FF0FF3823F00043CDF850C051
:1021D00065280CD006DC452809D046281DD04728A4
:1021E0003DD13DE0662818D067287ED138E0002137
:1021F000112F01DB112000E0781CCDE9000106A9B8
:102200000EA8FFF7DDFCDDE90F010E9A0391002116
:10221000009207F1010A04914DE04FF00040009751
:10222000CDE9011006A90EA8FFF7CAFCDDE90F02EF
:1022300003920E9B11990022DDF80CA000930492EA
:1022400011B9791C00EB010AB7EB0A0004D4C0F104
:10225000FF3007F1010A0490AAEB0700019044E067
:10226000012F00DA01270021112F01DD112000E0EC
:102270003846CDE9000106A90EA8FFF7A1FCDDE96B
:102280000F010E9A0391002104910092BA46210792
:102290000CD40399514500DA8A46BAF1010F05DDE5
:1022A000009AAAF10101515C302908D0B84202DA43
:1022B00010F1040F06DA0121CDE9011015E0AAF1B1
:1022C0000101E9E7002805DC049901440491AAEB27
:1022D000000102E0411C514500DD8A460499401A84
:1022E000401C01904FF000400290200704D4019858
:1022F000504501DBCDF8048000208DF84F00029896
:102300000DF14F07B0F1004F25D02B200E90029811
:102310004FF0020800280CDA404202902D200E9067
:1023200007E00A210298FDF7A0FF3031029007F87C
:10233000011DB8F10001A8F10108F2DC02980028A3
:10234000EFD1791E0E980870307800F0200040F030
:10235000450007F8020D12A8C01B00F107081498E9
:10236000007800B1012000EB0A01019801EBE07157
:1023700005984144401A401E0590E00306D45B4690
:102380002146179A059800F05DF8054414980078E6
:1023900018B15A46179990476D1CE00324D55B4647
:1023A0002146179A059800F04DF805441CE0049862
:1023B000002807DBDDE90301884203DD0098405C6B
:1023C000179901E0179930205A469047049805F173
:1023D0000105401C04900198401E019004D12E205C
:1023E0005A46179990476D1CBAF10001AAF1010AEB
:1023F000DDDC05E017F8010B5A46179990476D1C74
:10240000B8F10001A8F10108F4DC5B462146179AF7
:102410000598ABE62D0000002B0000002000000016
:102420002DE9F041044600251E461746880404D4D1
:1024300005E039462020B0476D1C641EF9D52846BA
:10244000BDE8F0812DE9F041044600251E46904686
:10245000C80301D5302700E02027880404D505E013
:1024600041463846B0476D1C641EF9D52846BDE884
:10247000F0814A68002A06D00A68531C0B6010706D
:102480004868401E486070472DE9FE4F0E465FEADF
:1024900000084E491D46174608F120094FF0010A71
:1024A0000ED098F83400002813D0D8F81000F11995
:1024B000814217D946A001F0B9FA0520BDE8FE8F88
:1024C00000914DA34EA240F2B92155A001F08CFA23
:1024D000FEE7009159A34AA240F2BA2150A001F0B0
:1024E00083FAFEE7D9F80810484601B18847F0079B
:1024F0000CD028463146012300906D1C761C1A46EC
:10250000404600F09FFA040054D17F1E012140464E
:1025100001F07CF904004DD1AD208DF804000DF1DF
:10252000040B34E0BAF1000F13D05C46621C314654
:10253000404600F035FA98F8350008B1052200E071
:1025400004222878A054A118687848704FF0000A37
:1025500006E028788DF80500687801228DF80600DD
:10256000002000900023D9F80440484601A9921C9D
:10257000A047040003D035A001F058FA1AE0404605
:1025800001F070FC040015D1AD1CB61CBF1E022F5B
:10259000C8D20021404601F039F904000AD1012FC8
:1025A0000CD101231A4631464046009500F04AFA04
:1025B000040003D00021404601F028F9D9F80C109E
:1025C000484601B18847204678E700001D420008D0
:1025D0004572726F723A20466C6173682061646460
:1025E00072657373206973206F7574206F66206243
:1025F0006F756E642E000000666C617368000000E9
:1026000028257329206861732061737365727420B3
:102610006661696C65642061742025732E0000007A
:102620002E2E5C4F746865724C69625C73667564CB
:102630005C7372635C736675642E6300666C6173B1
:10264000682D3E696E69745F6F6B00004572726F32
:10265000723A20466C617368207772697465205302
:10266000504920636F6D6D756E6963617465206597
:1026700072726F722E00000013B5FF2301226946AB
:102680000248FEF7B7FF00981CBD0000F4020020CE
:10269000F8B5624D040013D001F018FB00286ED18C
:1026A000606AA8B12069002500281AD0A08A0028F5
:1026B00017D0A069002814D0207F002811D06AE02C
:1026C00057A359A2FC2160A0009501F08DF9FEE707
:1026D00064A355A240F209115BA0009501F084F9B2
:1026E000FEE7204600F0E0FD00286DD1204601F015
:1026F00059FA00B3A560206D2061B4F848000128A4
:1027000017D00120A082606DA06194F85800207756
:102710005FF0010004EBC002516D31B1A3698B423F
:1027200003D9A16192F858102177401C0428F1D3F5
:1027300029E00220E6E74F4A267B002000EB400319
:1027400002EBC3010F79B7421AD14F7994F80DC04B
:10275000674515D18F7994F80EC0674510D100EB0D
:10276000400052F83000A06002EBC3008068206196
:102770008889A0820869A061087D207703E023E0B2
:10278000401C1628DAD32069D0B1A08AC0B1A06954
:10279000B0B1207FA0B1374A002094F80C10803AE5
:1027A00002EBC0031B798B420FD152F8301079B184
:1027B000A268002A29D030A0236901F037F90BE084
:1027C00038A001F033F90120F8BD401C1028E7D3F0
:1027D00042A0216901F02AF9204600F0FDFE002800
:1027E000F2D1217D490706D500220121204601F0C2
:1027F00099FA0028E8D12169B1F1807F0AD92046F1
:10280000BDE8F840012100F073BF3EA0226901F04D
:102810000DF9E1E784F83550F8BD0000C441000827
:10282000666C617368000000282573292068617355
:1028300020617373657274206661696C65642061E0
:10284000742025732E0000002E2E5C4F7468657274
:102850004C69625C736675645C7372635C73667505
:10286000642E6300666C6173682D3E7370692E7709
:1028700072000000B43F000846696E6420612025A4
:102880007320257320666C61736820636869702EFD
:102890002053697A6520697320256C6420627974FD
:1028A00065732E005761726E696E673A20546869CD
:1028B0007320666C6173682064657669636520695E
:1028C00073206E6F7420666F756E64206F72206E59
:1028D0006F7420737570706F72742E0046696E6429
:1028E000206120666C61736820636869702E2053D4
:1028F000697A6520697320256C6420627974657338
:102900002E00000046696E64206120257320666CED
:1029100061736820636869702E2053697A65206945
:102920007320256C642062797465732E00000000AA
:102930000EB50020009001900290FEF709F8FEF716
:10294000E1FFFEF7B5FEFEF7F3FEFEF713FF0E48BC
:1029500000F0DAFF00B1FEE70C4B0A2200210A4822
:1029600001F0CAF93220FDF7F1FE6B460A22002180
:10297000054801F077F83220FDF7E8FE694604A02B
:10298000FFF7D8F8FEE70000280200200000002032
:1029900072656164206275663A25730D0A00000055
:1029A00038B5144B30B172B190F83500002813D00F
:1029B000042312E0009310A311A24FF4787118A021
:1029C00001F012F8FEE700931CA30DA240F2E131E2
:1029D00013A001F009F8FEE7032300201C1AE4000D
:1029E000083C21FA04F41454401CC0B29842F5D3B8
:1029F00038BD00007A420008666C61736800000010
:102A000028257329206861732061737365727420AF
:102A10006661696C65642061742025732E00000076
:102A20002E2E5C4F746865724C69625C73667564C7
:102A30005C7372635C736675642E630061727261AD
:102A4000790000002DE9F84F06004E481C46154657
:102A500089464FF0000806F120070DD0012C14D054
:102A6000B4F5807F11D0009047A351A24FF41971A3
:102A700057A000F0B9FFFEE700905CA34CA240F223
:102A8000622153A000F0B0FFFEE796F8341051B178
:102A9000316909EB050088420ED956A000F0C6FF47
:102AA0000520BDE8F88F00905CA341A240F26621AA
:102AB00047A000F099FFFEE7B968DFF870B1002980
:102AC00054D03846884751E00121304600F09EFE40
:102AD0005FEA00084CD102208BF800000BF10102E4
:102AE00049463046FFF75CFF96F8350008B10520EF
:102AF00000E00420B9FBF4F1804604FB119068B1BA
:102B0000B9FBF4F104FB1190201AA8420AD2B9FBD8
:102B1000F4F104FB1190A4EB000A04E0A54201D9F2
:102B2000A24600E0AA46A5EB0A05D1440BEB08003B
:102B300052460A99FDF775FB002000900346D7F82E
:102B400004C008EB0A0239493846E0475FEA00084A
:102B500003D037A000F06AFF0AE0304601F082F9A6
:102B60005FEA000804D10A9850440A90002DABD1C6
:102B70000021304600F04AFEF96809B1384688471E
:102B800040468EE70542000877726974655F677298
:102B9000616E203D3D2031207C7C20777269746518
:102BA0005F6772616E203D3D2032353600000000C7
:102BB00028257329206861732061737365727420FE
:102BC0006661696C65642061742025732E000000C5
:102BD0002E2E5C4F746865724C69625C7366756416
:102BE0005C7372635C736675642E6300666C6173FC
:102BF000680000004572726F723A20466C6173681B
:102C00002061646472657373206973206F7574202A
:102C10006F6620626F756E642E000000666C6173D3
:102C2000682D3E696E69745F6F6B000020000020A4
:102C30004572726F723A20466C61736820777269D0
:102C400074652053504920636F6D6D756E696361C3
:102C50007465206572726F722E00000030B50C46EC
:102C600087B00821002204920592244A58B1002C12
:102C700011D0082304AA00F069FB002813D020A07B
:102C800000F0D4FE2BE000922BA32DA2962134A0BD
:102C900000F0AAFEFEE700923AA329A2972130A0F5
:102CA00000F0A2FEFEE79DF8103023709DF8112081
:102CB00062709DF81210A1709DF81300E070059DE0
:102CC000012925F07F45656003D9324800F0AEFE4A
:102CD00005E0092806D201462F4800F0A7FE002093
:102CE00007B030BD00910395CDE901202B4AAD21FD
:102CF0001BA000F079FE0120F2E70000C3420008AB
:102D00004572726F723A2043616E2774207265615A
:102D100064204A4544454320626173696320666CC0
:102D200061736820706172616D6574657220686599
:102D3000616465722E000000666C617368000000BB
:102D4000282573292068617320617373657274206C
:102D50006661696C65642061742025732E00000033
:102D60002E2E5C4F746865724C69625C7366756484
:102D70005C7372635C736675645F736664702E6304
:102D80000000000062617369635F68656164657279
:102D900000000000C046000848480008EC45000854
:102DA0002DE9F0418EB00E46054600F144044F680F
:102DB000242104A8FDF74EFA8B485DB1002E11D0F6
:102DC000242304AA3946284600F0C0FA002811D06E
:102DD00086A0B1E0009093A394A2C2219BA000F032
:102DE00003FEFEE70090A2A390A2C32197A000F0EB
:102DF000FBFDFEE7A2A2CB2194A000F0F5FDAAA264
:102E0000CC2192A000F0F0FD002504AE06EB850079
:102E100016F8252041788378C078CDE90003CDE904
:102E20000212B0466B1CA7A2CE2188A000F0DCFDE8
:102E30006D1CEDB2092DE9D39DF81130E3719DF8B9
:102E40001000002600F003000125012803D003280C
:102E500008D0A5A070E0A571B14AD7217BA000F0F1
:102E6000C3FD05E0A671AFA2DB2178A000F0BCFD98
:102E70009DF81000C0F38000002831D038B14FF425
:102E80008070A080B4A2EA2170A000F0ADFD9DF892
:102E90001000C0F3C000002826D0A0B12672B94AA5
:102EA000FA216AA000F0A0FD9DF81000C0F3001008
:102EB00000281DD038B10620B34A60724FF48271E9
:102EC00062A000F091FD9DF81200C0F34100A0B196
:102ED000012818D00228A67234D0E672ABA02BE0ED
:102EE000A580B3A2E621CFE72572B9A2F521E7E7D5
:102EF00050206072C24AFF21E2E7A572E672C1A2C9
:102F000040F20F1104E0A572E572C4A24FF48A7179
:102F10004EA000F069FD9DF81400DDF8151040EAA0
:102F200001209DF81710C90911D0B9B120F0004057
:102F300023280FD9C048E66000F078FD00200EB0CD
:102F4000BDE8F081E572BDA240F21911E0E705EBA2
:102F5000D00002E0C01E05FA00F0E060BDA240F221
:102F600031113AA0E36800F03FFD00264FEA060762
:102F700008EB4602117F89B105FA01F004EBC703A3
:102F800001461861507F18758B0A0090B7A240F275
:102F900037112EA000F028FD7F1CFFB2761CF6B280
:102FA000042EE5D35FF0000004EBC0021169A1B16B
:102FB000411C0FE004EBC1031F6957B11669BE4203
:102FC00007D992F814C017611F7D17751E6183F829
:102FD00014C0491CC9B20429ECD3401CC0B2042857
:102FE000E2D325700120AAE7D54200085761726E2E
:102FF000696E673A2043616E2774207265616420B0
:103000004A4544454320626173696320666C61737D
:103010006820706172616D65746572207461626CA4
:10302000652E0000666C6173680000002825732916
:103030002068617320617373657274206661696CC6
:1030400065642061742025732E0000002E2E5C4FD5
:10305000746865724C69625C736675645C737263F4
:103060005C736675645F736664702E6300000000B5
:1030700062617369635F6865616465720000000086
:103080004A4544454320626173696320666C6173FD
:103090006820706172616D65746572207461626C24
:1030A0006520696E666F3A004D53422D4C534220A5
:1030B00020332020202032202020203120202020DA
:1030C000300000005B253034645D203078253032DC
:1030D000582030782530325820307825303258202A
:1030E00030782530325800004572726F723A2055A0
:1030F0006E69666F726D2034204B42206572617379
:103100006520737570706F7274656420696E666F88
:10311000726D6174696F6E206572726F722E00003D
:10312000A8450008556E69666F726D2034204B42C9
:1031300020657261736520697320756E61766169BF
:103140006C61626C6520666F7220746869732064BC
:1031500065766963652E0000577269746520677231
:10316000616E756C617269747920697320363420E0
:103170006279746573206F72206C61726765722E5C
:103180000000000014470008D04700084572726F25
:10319000723A2052656164206164647265737320C1
:1031A0006279746573206572726F7221000000008D
:1031B0005772697465206772616E756C61726974AB
:1031C00079206973203120627974652E0000000037
:1031D00054617267657420666C61736820737461F2
:1031E00074757320726567697374657220697320E2
:1031F0006E6F6E2D766F6C6174696C652E000000C9
:1032000058470008332D42797465206F6E6C792021
:1032100061646472657373696E672E00332D206F6D
:103220007220342D42797465206164647265737311
:10323000696E672E0000000078460008342D427940
:103240007465206F6E6C7920616464726573736954
:103250006E672E0043617061636974792069732021
:10326000256C642042797465732E0000466C61738E
:10327000682064657669636520737570706F727419
:103280007320256C644B4220626C6F636B20657207
:103290006173652E20436F6D6D616E6420697320CC
:1032A0003078253032582E007FB5040004F120001C
:1032B00011D09F218DF80C1003210091456802ABBD
:1032C000012203A9A847050011D012A000F0AEFB0F
:1032D00004B0284670BD1B4B194803F1080200904A
:1032E00040F2553102F1200000F07EFBFEE79DF830
:1032F000083023739DF8090060739DF80A10A173CC
:10330000CDE900010F48104A40F25D31283000F04D
:103310006BFBDDE74572726F723A20526561642083
:10332000666C61736820646576696365204A45440C
:103330004543204944206572726F722E00000000E0
:1033400027420008A43900082C4300083EB520A5F8
:10335000D5E90045CDE901450C0C8DF805400C0A76
:103360008DF806401C4C8DF8071058B1B1F1807FE4
:1033700011D31AA31DA240F25B1124A0009400F007
:1033800033FBFEE72AA319A24FF4AD711FA00094EE
:1033900000F02AFBFEE742B1456A7DB10093134677
:1033A000052201A92030A8473EBD23A30FA24FF458
:1033B000AE7116A0009400F017FBFEE721A30BA24C
:1033C00040F25D1111A0009400F00EFBFEE700003A
:1033D0005A000000FF000000E642000861646472C9
:1033E000203C20314C203C3C2032340028257329DD
:1033F0002068617320617373657274206661696C03
:1034000065642061742025732E0000002E2E5C4F11
:10341000746865724C69625C736675645C73726330
:103420005C736675645F736664702E6300000000F1
:10343000666C617368000000726561645F62756646
:1034400000000000666C6173682D3E7370692E7712
:10345000720000001FB5002100F1440402910391A5
:1034600048B12170082302AAFFF770FF60B11FA0C6
:1034700000F0DCFA2AE02548009025A326A26D2161
:103480002DA000F0B1FAFEE79DF8080053280BD1FB
:103490009DF80900462807D19DF80A00442803D169
:1034A0009DF80B00502805D02C4A7A2122A000F06C
:1034B0009BFA0BE09DF80C00A0709DF80D10617058
:1034C000012906D9A27826A000F0B0FA002004B0A5
:1034D00010BD9DF80E20A078CDE900020B462EA26B
:1034E000832115A000F080FA0120F0E74572726F89
:1034F000723A2043616E27742072656164205346DE
:103500004450206865616465722E0000B242000874
:10351000666C617368000000282573292068617358
:1035200020617373657274206661696C65642061E3
:10353000742025732E0000002E2E5C4F7468657277
:103540004C69625C736675645C7372635C73667508
:10355000645F736664702E6300000000004500081D
:103560004572726F723A205468697320726576658D
:103570007273696F6E285625642E25642920534680
:103580004450206973206E6F7420737570706F7271
:103590007465642E00000000436865636B20534629
:1035A000445020686561646572206973204F4B2E1A
:1035B0002054686520726576657273696F6E206944
:1035C00073205625642E25642C204E504E2069739E
:1035D0002025642E000000002DE9FC41050005F1C6
:1035E000200412D0662000278DF80400009766683A
:1035F0003B46012201A92046B04706000FD018A083
:1036000000F014FA3046BDE8FC811E4800901EA36D
:103610001FA240F2353126A000F0E6F9FEE7284669
:1036200000F020FC99208DF80500009700236668C3
:1036300001220DF105012046B047040004D12846BF
:1036400000F010FC040004D005A000F0EFF92046C3
:10365000D9E71EA24FF4527115A000F0C5F9F6E7A4
:103660004572726F723A20466C61736820646576A9
:10367000696365207265736574206661696C656451
:103680002E0000002C3F0008666C6173680000008B
:103690002825732920686173206173736572742013
:1036A0006661696C65642061742025732E000000DA
:1036B0002E2E5C4F746865724C69625C736675642B
:1036C0005C7372635C736675642E6300466C617331
:1036D000682064657669636520726573657420731C
:1036E0007563636573732E00B420401EFDD270476E
:1036F0007CB50C46050007D0012100F087F80028B2
:103700002FD15CB1B7200AE01648009016A318A28A
:1037100040F29B311EA000F067F9FEE7E9208DF82A
:1037200004000020009003466E6A012201A905F101
:103730002000B047060002D074B11CA10DE085F84E
:1037400035400CB119A300E01AA31CA240F2AD3120
:103750000FA000F049F903E016A121A000F066F9DE
:1037600030467CBD47420008666C6173680000000B
:103770002825732920686173206173736572742032
:103780006661696C65642061742025732E000000F9
:103790002E2E5C4F746865724C69625C736675644A
:1037A0005C7372635C736675642E6300456E74654A
:1037B0007200000045786974000000002573203411
:1037C0002D427974652061646472657373696E67F4
:1037D000206D6F646520737563636573732E0000DD
:1037E0004572726F723A20257320342D42797465C8
:1037F0002061646472657373696E67206D6F6465C0
:10380000206661696C65642E00000000FEB50D46FF
:10381000040002D05DB106200AE01748009017A30B
:1038200018A240F272311FA000F0DEF8FEE704207B
:103830008DF80400002000900346666A012201A969
:1038400004F12000B047002814D102A9204600F05E
:10385000F3F900280ED19DF808104FEA81711DB1CF
:10386000002907DB16A002E0002903DA1DA000F002
:10387000DDF80220FEBD000035420008666C617371
:103880006800000028257329206861732061737324
:10389000657274206661696C6564206174202573AB
:1038A0002E0000002E2E5C4F746865724C69625CBD
:1038B000736675645C7372635C736675642E630013
:1038C0004572726F723A2043616E277420656E6193
:1038D000626C6520777269746520737461747573A6
:1038E0002E0000004572726F723A2043616E277499
:1038F0002064697361626C652077726974652073F6
:1039000074617475732E000038B50446FEF7C0FE6E
:10391000050009D0002084F834000CA0D4F8001071
:1039200000F084F8284638BD2CB1012084F834001A
:1039300011A02168F4E71A4800901AA31BA24FF4C3
:10394000BE7122A000F050F8FEE700004572726FD1
:10395000723A20257320666C61736820646576690D
:10396000636520697320696E697469616C697A6541
:10397000206661696C2E0000257320666C61736897
:103980002064657669636520697320696E6974696E
:10399000616C697A6520737563636573732E0000CB
:1039A000D2410008666C6173680000002825732905
:1039B0002068617320617373657274206661696C3D
:1039C00065642061742025732E0000002E2E5C4F4C
:1039D000746865724C69625C736675645C7372636B
:1039E0005C736675642E63000FB410B50A46014619
:1039F00005AC08A0FEF79EF823464FF480710948F5
:103A0000049AFEF7A7F8074907A0FEF793F810BC41
:103A10005DF814FB5B534655445D2825733A256CCD
:103A2000642920002501002025730A000FB410B579
:103A300003AC08A0FEF77EF823464FF480710748D8
:103A4000029AFEF787F8054905A0FEF773F810BC47
:103A50005DF814FB5B534655445D000025010020D2
:103A600025730A002DE9FE4304002C4899461746A9
:103A7000884604F1200511D0B9F1000F17D094F851
:103A8000341000291CD0216908EB0700884220D996
:103A900023A0FFF7CBFF0520BDE8FE8300902AA3FB
:103AA0002BA24FF4C87132A0FFF79EFFFEE70090F3
:103AB00036A327A240F291112DA0FFF795FFFEE754
:103AC000009034A322A240F2931129A0FFF78CFFAB
:103AD000FEE7A96809B128468847204600F0C2F9E8
:103AE000060015D103208DF804000DF105024146B2
:103AF0002046FEF755FF94F8350008B1052200E096
:103B0000042200976C684B4601A92846A047064648
:103B1000E96809B1284688473046BDE7E04100081A
:103B20004572726F723A20466C61736820616464FA
:103B300072657373206973206F7574206F662062DD
:103B40006F756E642E000000666C61736800000083
:103B5000282573292068617320617373657274204E
:103B60006661696C65642061742025732E00000015
:103B70002E2E5C4F746865724C69625C7366756466
:103B80005C7372635C736675642E63006461746158
:103B900000000000666C6173682D3E696E69745F99
:103BA0006F6B00003EB504000CD0FFF753FC90B1E2
:103BB00001A92046FFF752F868B101A92046FFF796
:103BC000EFF83EBD0748009007A309A2512110A0BD
:103BD000FFF70AFFFEE717482168FFF727FF0020DD
:103BE0003EBD0000A3420008666C617368000000DF
:103BF00028257329206861732061737365727420AE
:103C00006661696C65642061742025732E00000074
:103C10002E2E5C4F746865724C69625C73667564C5
:103C20005C7372635C736675645F736664702E6345
:103C3000000000004C4500081CB505228DF804204A
:103C40000E4A40B181B1012200920B46446A01A99B
:103C50002030A0471CBD009209A30BA24FF4707145
:103C600011A0FFF7C1FEFEE7009216A306A240F2E4
:103C7000C1310DA0FFF7B8FEFEE700005F4200086B
:103C8000666C6173680000002825732920686173E1
:103C900020617373657274206661696C656420616C
:103CA000742025732E0000002E2E5C4F7468657200
:103CB0004C69625C736675645C7372635C73667591
:103CC000642E63007374617475730000064A426267
:103CD000064A8262064AC262064A00218263322292
:103CE000C263084670470000093E0008013E000814
:103CF000053E0008E9360008F8B504460020A58A0C
:103D0000EE0706D000934FF480732046FEF79AFE2C
:103D1000F8BD6D07FCD501B02046BDE8F040FEF7C8
:103D2000B3BB00002DE9FC41174600F1200460B14F
:103D30000026A1B150208DF804000096002365688C
:103D4000012201A92046A8470CE01148009011A3C8
:103D500012A24FF47E7119A0FFF746FEFEE7012183
:103D6000FFF754FD05000DD101208DF804008DF8FA
:103D70000570009600236568022201A92046A84725
:103D8000050002D014A0FFF751FE2846BDE8FC81D3
:103D900091420008666C6173680000002825732951
:103DA0002068617320617373657274206661696C49
:103DB00065642061742025732E0000002E2E5C4F58
:103DC000746865724C69625C736675645C73726377
:103DD0005C736675642E63004572726F723A205789
:103DE000726974655F737461747573207265676955
:103DF00073746572206661696C65642E0000000052
:103E000072B6704762B670472DE9F047DFF84CA0F4
:103E10001446884600274FF480791D463A464946A5
:103E20005046089EFCF780FDB8F1000006D02CB18A
:103E30000146A2B264230A48FDF7C2F935B12EB19A
:103E4000B2B2642329460648FDF712F90122494619
:103E50005046FCF769FD3846BDE8F087001802407F
:103E60009C0200207CB50600F56B09D11348009038
:103E700013A315A240F2CB311BA0FFF7B5FDFEE75F
:103E800001A93046FFF7D8FE04469DF8040000F073
:103E9000010020430FD0B06B1DB100B180476D1EF3
:103EA000EEE79DF80400042400F00100204302D056
:103EB00014A0FFF7BBFD20467CBD00007042000847
:103EC000666C61736800000028257329206861739F
:103ED00020617373657274206661696C656420612A
:103EE000742025732E0000002E2E5C4F74686572BE
:103EF0004C69625C736675645C7372635C7366754F
:103F0000642E63004572726F723A20466C6173686A
:103F1000207761697420627573792068617320610C
:103F20006E206572726F722E0000000072657365FC
:103F300074000000E444000801000000EC440008A4
:103F400004000000244400081C000000BC440008D9
:103F50001F000000D444000820000000FC430008BB
:103F600037000000DC44000862000000C444000880
:103F700089000000344400088C000000CC44000894
:103F8000A1000000B4440008AD0000003C4400085B
:103F9000BF000000A8440008C8000000104400084A
:103FA000D5000000A0440008EF000000F444000821
:103FB000C2000000044400081F260000000020008A
:103FC0000A000000000200008100000040440008D8
:103FD000EF40130000000800010000000010000086
:103FE0002000000058440008EF40150000002000A9
:103FF0000100000000100000200000004C440008F8
:10400000EF4016000000400001000000001000001A
:104010002000000070440008EF40170000008000FE
:10402000010000000010000020000000884400088B
:10403000EF401700000080000100000000100000A9
:104040002000000094440008EF601700000080008A
:10405000010000000010000020000000644400087F
:10406000EF401800000000010100000000100000F7
:10407000200000007C440008EF401900000000020E
:10408000010000000010000020000000B443000800
:10409000BF258E0000001000060000000010000088
:1040A00020000000E4430008BF254100000020007C
:1040B000060000000010000020000000A4430008DB
:1040C0002020160000004000010000000000010058
:1040D000D80000009C4300082020140000001000BD
:1040E0000100000000000100D80000008C4300081F
:1040F0002020130000000800010000000000010063
:10410000D8000000C04300081C301600000040002A
:10411000010000000010000020000000CC43000857
:10412000C8401700000080000100000000100000DF
:1041300020000000F0430008C840150000002000E7
:1041400001000000001000002000000018440008DA
:1041500001401500000020000100000000100000D8
:104160002000000028440008010215000000400063
:10417000010000000010000020000000944300082F
:104180003730140000001000010000000010000093
:1041900020000000AC4300088C2013000000080041
:1041A000060000000010000020000000D8430008B6
:1041B000BF254100000020000600000000100000A4
:1041C0002000000068617264776172655F696E69E2
:1041D0007400736F6674776172655F696E697400ED
:1041E000736675645F7265616400736675645F63AE
:1041F0006869705F657261736500736675645F6599
:104200007261736500706167653235365F6F725F2A
:10421000315F627974655F777269746500616169A5
:104220005F777269746500726561645F6A65646571
:10423000635F6964007365745F77726974655F6555
:104240006E61626C6564007365745F345F6279747B
:10425000655F616464726573735F6D6F646500733D
:104260006675645F726561645F7374617475730011
:10427000776169745F62757379006D616B655F6109
:1042800064726573735F627974655F61727261797C
:1042900000736675645F77726974655F73746174C7
:1042A000757300736675645F726561645F736664DD
:1042B0007000726561645F736664705F68656164F5
:1042C000657200726561645F62617369635F6865EE
:1042D0006164657200726561645F62617369635FE6
:1042E0007461626C6500726561645F736664705FBF
:1042F0006461746100736675645F736664705F67A0
:1043000065745F7375697461626C655F6572617312
:1043100065720000000000000000000102030406B6
:10432000070809000000000102030400546865202A
:10433000666C61736820646576696365206D616E83
:1043400075666163747572657220494420697320D3
:104350003078253032582C206D656D6F727920745D
:1043600079706520494420697320307825303258AF
:104370002C206361706163697479204944206973FA
:10438000203078253032582E000000004D32355054
:10439000343000004132354C303830004D32355029
:1043A000383000004D323550333200004632354C43
:1043B0003030340053535432355646303830420092
:1043C000454E323551333242000000004744323509
:1043D00051363442000000005043543235564630C6
:1043E000313642005353543235564630313642004E
:1043F000474432355131364200000000414D4943B7
:10440000000000004154343544423136314500004B
:104410004953534900000000533235464C3231367F
:104420004B000000454F4E00533235464C3033327E
:104430005000000045534D540000000053535400F9
:104440005732355134304256000000005732355152
:104450003332425600000000573235513136425651
:10446000000000005732355131323842560000000A
:10447000573235513634435600000000573235511B
:1044800032353646560000005732355136344A56DA
:104490000000000057323551363444570000000008
:1044A00057696E626F6E640047696761446576693B
:1044B000636500004879756E6461690041746D65DB
:1044C0006C000000496E74656C0000004675646104
:1044D0006E0000004D6963726F6E000053616E796B
:1044E0006F000000437970726573730046756A69E6
:1044F000747375004D6963726F6E69780000000017
:104500004572726F723A20436865636B205346446C
:1045100050207369676E6174757265206572726F81
:10452000722E2049742773206D7573742062652084
:10453000353034343436353368282753272027461E
:10454000272027442720275027292E005761726EE5
:10455000696E673A2052656164205346445020706A
:104560006172616D65746572206865616465722051
:10457000696E666F726D6174696F6E206661696CD9
:1045800065642E20546865202573206973206E6F42
:104590007420737570706F7274204A4544454320CF
:1045A000534644502E00000034204B422045726197
:1045B000736520697320737570706F727465642001
:1045C0007468726F7567686F7574207468652064AD
:1045D00065766963652E20436F6D6D616E64206939
:1045E00073203078253032582E0000004368656310
:1045F0006B204A4544454320626173696320666CC1
:1046000061736820706172616D65746572206865A0
:1046100061646572206973204F4B2E2054686520B9
:104620007461626C652069642069732025642C20A4
:10463000726576657273696F6E20697320562564A2
:104640002E25642C206C656E6774682069732025A4
:10465000642C20706172616D657465722074616292
:104660006C6520706F696E74657220697320307894
:104670002530366C582E00004572726F723A205405
:10468000686520666C61736820636170616369743A
:104690007920697320677261746572207468616E35
:1046A0002033322047622F203420474221204E6F92
:1046B0007420537570706F727465642E0000000072
:1046C0004572726F723A205468697320726576651C
:1046D0007273696F6E285625642E256429204A4519
:1046E00044454320626173696320666C617368208E
:1046F000706172616D657465722068656164657270
:10470000206973206E6F7420737570706F7274659A
:10471000642E0000426C6F636B2050726F7465638F
:1047200074206269747320696E20646576696365BC
:10473000277320737461747573207265676973746D
:1047400065722061726520736F6C656C7920766F7D
:104750006C6174696C652E00466C617368206465D9
:104760007669636520726571756972657320696E1B
:10477000737472756374696F6E203530682061736D
:104780002074686520777269746520656E61626C5B
:1047900065207072696F7220746F20706572666F29
:1047A000726D696E67206120766F6C6174696C65EB
:1047B00020777269746520746F2074686520737443
:1047C000617475732072656769737465722E000079
:1047D000466C6173682064657669636520726571F3
:1047E000756972657320696E737472756374696F2D
:1047F0006E20303668206173207468652077726996
:10480000746520656E61626C65207072696F7220DC
:10481000746F20706572666F726D696E67206120BB
:10482000766F6C6174696C65207772697465207449
:104830006F20746865207374617475732072656786
:1048400069737465722E00004572726F723A20545B
:104850006865204A45444543206261736963206668
:104860006C61736820706172616D6574657220742B
:1048700061626C65206C656E67746820286E6F7766
:1048800020697320256429206572726F722E0000E2
:10489000B04800080000002020000000A01B000815
:1048A000D04800082000002018070000B01B0008B6
:1048B00031323334353637383930000001000000EA
:1048C00010000000000000000024F40000000000C0
:040000050800018965
:00000001FF
