:020000040800F2
:1000000030040020DD0100089903000867030008A0
:10001000950300082502000891090008000000006F
:10002000000000000000000000000000550500086E
:100030002902000800000000290400081D0600082D
:10004000F7010008F7010008F7010008F7010008B0
:10005000F7010008F7010008F7010008F7010008A0
:10006000F7010008F7010008F7010008F701000890
:10007000F7010008F7010008F7010008F701000880
:10008000F7010008F7010008F70100080000000070
:10009000000000000000000000000000F701000860
:1000A000F7010008F7010008F7010008F701000850
:1000B000000000000000000000000000F701000840
:1000C000F7010008F7010008F7010008F701000830
:1000D000F7010008F7010008E90600080000000029
:1000E000F7010008F7010008000000000000000010
:1000F000000000000000000000000000F701000800
:100100000000000000000000F701000800000000EF
:100110000000000000000000F701000800000000DF
:10012000F7010008F7010008F7010008F7010008CF
:10013000F7010008000000000000000000000000BF
:1001400000000000000000000000000000000000AF
:10015000F7010008F7010008F7010008F70100089F
:10016000000000000000000000000000000000008F
:10017000000000000000000000000000000000007F
:10018000F7010008F701000800000000000000006F
:1001900000000000F701000800000000000000005F
:1001A000000000000000000000000000000000004F
:1001B000000000000000000000000000F70100083F
:1001C000F7010008F7010008DFF80CD000F018F87C
:1001D00000480047090A000830040020064880470C
:1001E00006480047FEE7FEE7FEE7FEE7FEE7FEE71C
:1001F000FEE7FEE7FEE7FEE721060008C90100086A
:10020000064C074D06E0E06840F0010394E8070063
:1002100098471034AC42F6D3FFF7DAFF640A0008BF
:10022000840A000800BFFEE7704710B5044603E0EB
:100230004FF47A7000F006F8201EA4F10104F7D103
:1002400010BD00000146114A12884A434FF0E023D6
:100250005A6100229A611A46126942F001021A613B
:1002600000BF4FF0E022106900F001021AB100F463
:100270008032002AF5D04FF0E022126922F001020C
:100280004FF0E0231A6100229A6170472400002099
:10029000F0B50A4600210023002400BF3DE00125FF
:1002A00005FA01F3156805EA03049C4234D1056898
:1002B0004F000326BE40B543056015794E00B5409A
:1002C0000668354305601579012D02D01579022D98
:1002D00016D185684F000326BE40B5438560557929
:1002E0004E00B540866835438560456801268E40DE
:1002F000B5434560456896798E40B6B23543456052
:10030000C5684F000326BE40B543C560D5794E0091
:10031000B540C6683543C560491C1029BFD3F0BD40
:10032000F0B5002300244D07ED0E02FA05F3CE10C0
:1003300000F1200555F826504E07F70E0F26BE4057
:10034000B543CF1000F1200646F82750CE1000F13B
:10035000200555F8265045EA0304CE1000F120058B
:1003600045F82640F0BD00BFFEE700001CB50121A6
:10037000084600F05BF82020009001208DF8040072
:1003800002208DF8050069460148FFF781FF1CBD7A
:100390000000024000BFFEE77047000070B500217A
:1003A00000230F22C4781CB3174C246804F4E064C3
:1003B000C4F5E064C4F30721C1F10404E3B20A41C7
:1003C00044789C40E1B28478144021430C07210E0C
:1003D0000E4C05786155047804F01F050124AC40EB
:1003E00005786D11AD0005F1E025C5F8004109E083
:1003F000047804F01F050124AC40054D0678761101
:1004000045F8264070BD00000CED00E000E400E07F
:1004100080E100E002490143024A11607047000098
:100420000000FA050CED00E07047000029B1064A13
:1004300012680243044B1A6004E0034A12688243C4
:10044000014B1A60704700003038024029B1064A5B
:1004500012680243044B1A6004E0034A12688243A4
:10046000014B1A607047000040380240F0B500218F
:1004700000220024022500260223324F3F6807F0A5
:100480000C0121B1042905D0082937D105E02E4FF0
:10049000076036E02D4F076033E02A4F3F1F3F686B
:1004A000C7F38056274F3F1F3F6807F03F036EB1E9
:1004B000264FB7FBF3F7DFF88CC0ACF1040CDCF887
:1004C00000C0CCF3881C07FB0CF40CE01E4FB7FBFC
:1004D000F3F7DFF870C0ACF1040CDCF800C0CCF32B
:1004E000881C07FB0CF4174F3F1F3F68C7F30147F9
:1004F0007F1C7D00B4FBF5F7076002E0124F076038
:1005000000BF00BF0F4F3F6807F0F0010909104F0F
:100510007A5C0768D74047600A4F3F6807F4E051AC
:10052000890A0B4F7A5C4768D7408760054F3F6860
:1005300007F46041490B064F7A5C4768D740C760B3
:10054000F0BD0000083802400024F40040787D012E
:1005500014000020704700002248006840F08050DE
:10056000204908602048006840F440401E49086067
:100570001C48383800681B4938390860084600684C
:1005800008600846006840F4805008601748091F5A
:100590000860081F006840F08070091F086000BFF5
:1005A00010484038006800F000700028F8D040F291
:1005B00002700F4908600B483838006820F00300CB
:1005C0000849383908600846006840F002000860B1
:1005D00000BF04483838006800F00C000828F8D143
:1005E000704700004038024000700040106401076E
:1005F000003C0240042808D14FF0E021096941F095
:1006000004014FF0E022116107E04FF0E021096999
:1006100021F004014FF0E0221161704770470000A3
:1006200010B51548006840F470001349086013487D
:10063000006840F001001149086000200F490831AE
:1006400008600E4800680E4908400C4908600D48D3
:10065000091D0860081F006820F48020091F086039
:10066000002006490C310860FFF776FF4FF000606C
:1006700001498039086010BD88ED00E00038024073
:10068000FFFFF6FE1030002410B50420FFF7B2FF84
:10069000074800680749B0FBF1F0074908800846A1
:1006A00000884FF47A7148430449086010BD000087
:1006B0000000002040420F002400002028000020FD
:1006C00008B54FF4A060FFF7A5FE26208DF80000C6
:1006D00001208DF801008DF802008DF803006846B6
:1006E000FFF75CFE08BD000010B540F2255106483A
:1006F00000F07DF838B1044800F032F9C4B2214668
:10070000014800F036F910BD0044004001F40072C9
:10071000B2F5007F00D100BFCA430280704721B10B
:10072000828942F40052828104E082894DF6FF738F
:100730001A4082817047000000B587B00121084649
:10074000FFF774FE01214804FFF780FE0722022113
:100750001E48FFF7E5FD072203211C48FFF7E0FDD7
:100760000C20059002208DF818008DF8190000204B
:100770008DF81A0001208DF81B0005A91348FFF71A
:1007800087FD4FF4E13001900020ADF80800ADF88E
:100790000A00ADF80C00ADF810000C20ADF80E000A
:1007A00001A90B4800F072F8FFF78AFF012240F21E
:1007B0002551074800F045F801210548FFF7AFFF34
:1007C00040210348FFF7A2FF07B000BD0000024030
:1007D0000044004002460020B1F5007F00D100BF78
:1007E00013880B400BB1012000E00020704770B56A
:1007F0000246002400230025002040F66A16B1427C
:1008000000D100BFC1F3421501F01F03012606FA13
:1008100003F3012D02D19689334006E0022D02D167
:10082000168A334001E0968A33400C12012606FAFC
:1008300004F41688344013B10CB1012000E000200C
:1008400070BDF0B50346002400260025002040F6C8
:100850006A17B94200D100BF1846C1F3421401F033
:100860001F06012707FA06F5012C01D10C3004E020
:10087000022C01D1103000E014301AB107682F4368
:10088000076002E00768AF430760F0BD2DE9FF474E
:1008900005460E460024A14600BFA046B08900B11F
:1008A00000BF2C8A24F44054F08804432C82AC8985
:1008B00041F20C608443B088318908437189084350
:1008C0000443AC81AC8A24F44074B0890443AC8204
:1008D0006846FFF7CBFD2048854202D01F4885427D
:1008E00002D1DDF80C9001E0DDF80890A88900F451
:1008F000004040B109EBC90000EB09103168490024
:10090000B0FBF1F707E009EBC90000EB0910316813
:100910008900B0FBF1F76420B7FBF0F00401200977
:10092000642101FB1078A88900F4004040B1322016
:1009300000EBC800B0FBF1F000F00700044308E052
:10094000322000EB08106421B0FBF1F000F00F0042
:1009500004432C81BDE8FF870010014000140140D2
:1009600001468888C0F308007047C1F308028280FE
:10097000704770B504460D4629462046FFF7F5FF3F
:1009800000BF80212046FFF725FF0028F9D070BD69
:1009900000BFFEE7014A024900F013B8E50900086C
:1009A0002C00002002E008C8121F08C1002AFAD15A
:1009B00070477047002001E001C1121F002AFBD1DF
:1009C00070472DE9F04116460F460446002503E026
:1009D0003946B047641C6D1C20780028F8D12846A1
:1009E000BDE8F08170B504460D46E1B20548FFF759
:1009F000BCFF00BF80210348FFF7ECFE0028F9D0C0
:100A0000204670BD00440040FFF73EFEFFF7AEFCFD
:100A1000FFF792FE6420FFF708FC0CA0FFF7BAFF77
:100A20004FF4FA70FFF701FC0FE000200B4908605B
:100A30004FF4FA70FFF7F9FB4FF0FF300849C1F8A7
:100A400094024FF4FA70FFF7F0FBEEE768656C6C08
:100A50006F2C776F726C640D0A00000094024042A4
:100A600000004042840A000800000020300000001E
:100A7000A4090008B40A00083000002000040000A7
:100A8000B409000800E1F5050000000000000000C6
:100A90000102030406070809000000000102030424
:100AA000010203040607080900000000000000001E
:040AB0000000000042
:04000005080001C925
:00000001FF
