:020000040800F2
:10000000C805002045010008171600083315000830
:10001000151600080D030008E9170008000000008D
:100020000000000000000000000000001B16000897
:100030004703000800000000191600081D160008FC
:100040005F0100085F0100085F0100085F01000810
:100050005F0100085F0100085F0100085F01000800
:100060005F0100085F0100085F010008110300083C
:100070005F0100085F0100085F0100085F010008E0
:100080005F0100085F0100085F0100085F010008D0
:100090005F0100085F0100085F0100085F010008C0
:1000A0005F0100085F0100085F0100085F010008B0
:1000B0005F0100085F0100085F0100085F010008A0
:1000C0005F0100085F0100085F0100085F01000890
:1000D0005F0100085F0100085F0100085F01000880
:1000E0005F0100085F0100085F0100085F01000870
:1000F0005F0100085F0100085F0100085F01000860
:100100005F0100085F0100085F0100085F0100084F
:100110005F0100085F0100085F0100085F0100083F
:100120005F0100085F0100085F0100085F0100082F
:10013000DFF80CD000F040F800480047B91900087B
:10014000C80500200648804706480047FEE7FEE74E
:10015000FEE7FEE7FEE7FEE7FEE7FEE7FEE7FEE777
:100160008516000831010008D2B201E000F8012B29
:10017000491EFBD270470022F6E710B513460A4627
:1001800004461946FFF7F0FF204610BD30B50B4678
:10019000014600202022012409E021FA02F59D42B7
:1001A00005D303FA02F5491B04FA02F52844151E8B
:1001B000A2F10102F1DC30BD064C074D06E0E0681B
:1001C00040F0010394E8070098471034AC42F6D39E
:1001D000FFF7B2FF501A0008701A000870B5044605
:1001E00000688168C943C9071CD1816821F00101F9
:1001F000816000F033FD05460FE000BF00F02EFDEA
:10020000401B022809D9A06A40F01000A062E06AF1
:1002100040F00100E062012070BD20688068C043AA
:10022000C007EBD0002070BD10B50146406A826A5D
:1002300012F0500F05D0006A026BBDE8104008466E
:100240001047816A41F40071816201688968C1F3D5
:10025000424107290CD1017B51B9816A21F4807197
:100260008162816AC90403D4816A41F0010181621B
:1002700000F0EAF810BD10B5406A816A41F0400113
:100280008162C16A41F00401C16200F0DFF810BD73
:1002900010B5406A00F0D9F810BD0000F8B500268E
:1002A0000446009600688168C943C90728D0816860
:1002B00041F001018160134813490068B0FBF1F07F
:1002C00000E0401E00900028FBD100F0C7FC05466E
:1002D00011E000BF00F0C2FC401B02280BD9A06A4D
:1002E00040F01000A062E06A40F00100E06284F893
:1002F00024600120F8BD20688068C043C007E9D1B0
:100300000020F8BD0C00002040420F00FEE7000076
:10031000014800F0FBB900004401002030B590F81E
:1003200040500124AC40C56B6C6004686360436856
:10033000102B036803D099600068C26030BD9A60DA
:100340000068C16030BD704770470000F8B50024F8
:10035000009490F824202546012A12D0012280F82A
:1003600024204A681F23072A0DD20668776B521E85
:1003700002EB820293409F430B6893401F437763D5
:1003800019E00220F8BD06680D2A0AD2376BD21F89
:1003900002EB820293409F430B6893401F433763F5
:1003A00009E0F76A0D3A02EB820293409F430B6823
:1003B00093401F43F7620A68072306680A2A0AD394
:1003C000F7680A3A02EB420293409F438B689340DE
:1003D0001F43F76008E0376902EB420293409F43F6
:1003E0008B6893401F4337610A68102A01D0112A95
:1003F00020D1124B02689A4217D193681B0219D47C
:10040000936843F4000393600968102912D10C49E2
:100410000C4A0968B1FBF2F101EB8101490000E0EF
:10042000491E00910029FBD104E0816A41F02001BE
:100430008162012480F824502046F8BD0024014048
:100440000C00002040420F007047704770470000CA
:100450002DE9F04104004FF000057FD0A06A00268E
:1004600028B9E66284F82460204600F081F820462E
:10047000FFF7B4FEA16AC90600D420B1A06A40F01B
:100480001000A0626AE0A16A21F4885141F00201E3
:10049000A162334923688B42E16904D1B1F5402F51
:1004A00001D14FF40021277B4FF4807C41EA4702C1
:1004B00061680A43A168614508D0012906D000217E
:1004C00094F814E0BEF1010F02D00AE06146F7E7AC
:1004D000C7B1A76A47F02007A762E76A47F001079C
:1004E000E7625F6827F469470F435F602368996894
:1004F0001C4F394011439960A16861450BD0012917
:1005000009D00CE0DFF860E0A7690EEB47370F4336
:1005100047F40061E5E7218A0D05A5F580152168FE
:10052000CB6A23F470032B43CB62216889680F4B9D
:100530001940914208D1E662A16A21F0020141F01E
:100540000101A162BDE8F081A06A20F0020040F044
:100550001000A062E06A40F00100E0620120F1E7D3
:10056000003C0140FDF7E1FF00E0FFFFFE0E1FFF32
:1005700070B586B000260546009601960296039651
:1005800000681A4988422FD11949886940F40070DF
:100590008861886900F400700490886940F0100058
:1005A00088618869694600F010000490022000907C
:1005B000032001900F4800F055FA104C0E48C4E992
:1005C00000068020C4E90260400020618000606174
:1005D0002020A0610002E061204600F0BBF908B1D4
:1005E000FFF7B2FE2C62656206B070BD00240140C8
:1005F00000100240001001400800024044010020A9
:100600002DE9F047894604463B4900683B4F0E1DE3
:100610009046884201D0B84207D1306810F4702F5C
:1006200003D001252846BDE8F08794F8240001286E
:100630000CD0012084F824002046FFF72FFE05008F
:100640004FF0000004D084F82400EBE70220EAE732
:10065000A16A40F60162914341F48071A162216870
:10066000B94218D1326812F4702F14D0A16A41F443
:100670008011A1623168490505D5A16A21F40051B4
:1006800041F48051A162A16AC9040AD5E16A21F04E
:100690000601E16206E0A26A22F48012A2624968C1
:1006A000E9E7E06284F82400216A15488862216A3B
:1006B0001448C862216A1448086321686FF0020078
:1006C00008602068816841F4807181602168434638
:1006D0004A464C31206A00F07BF920688168C1F3FA
:1006E00042410729816803D041F48011816099E774
:1006F00041F4A001FAE70000002401400028014075
:100700002902000891020008770200082DE9F05F35
:10071000C16B0A6801680B68046C4FF0040808FAA2
:1007200004F8844D844E854FDFF814C2DFF814922C
:10073000DFF814A2DFF814B2DFF814E218EA020FAF
:1007400065D05FEA437862D50A68920603D40A68E6
:1007500022F004020A60DFF8F0814FF48062016841
:1007600008F1140813011402414524D9A9420DD0FF
:10077000B1420FD0B9421AD0614515D0494515D0C4
:10078000514501D1120312E0594501D104220EE076
:10079000714501D140220AE06D4D1435A94206D0C1
:1007A0006B4A2832914201D11A4600E0224667493D
:1007B000091F0A6029E0A94213D0B14215D0B942FD
:1007C00020D061451BD049451BD0514502D14FF483
:1007D000800217E0414502D14FF0806212E0594596
:1007E00001D104220EE0714501D140220AE0584DAA
:1007F0001435A94206D0564A2832914201D11A46F0
:1008000000E022464B4908394A60C16A71E04FF066
:10081000020808FA04F818EA020F70D05FEA837839
:100820006DD50A68920606D40A6822F00A020A60A8
:10083000012180F82110DFF810814FF40072016867
:1008400008F1140813011402414524D9A9420DD01E
:10085000B1420FD0B9421AD0614515D0494515D0E3
:10086000514501D1120312E0594501D102220EE097
:10087000714501D120220AE0354D1435A94206D038
:10088000334A2832914201D11A4600E022462F49CC
:10089000091F0A6029E0A94213D0B14215D0B9421C
:1008A00020D061451BD049451BD0514502D14FF4A2
:1008B000001217E0414502D14FF0007212E0594595
:1008C00001D102220EE0714501D120220AE0204D23
:1008D0001435A94206D01E4A2832914201D11A4647
:1008E00000E02246134908394A60002180F82010B0
:1008F000816A00291CD0BDE8F05F0847FFE70825A2
:10090000A540154214D01A0712D50A6822F00E022B
:100910000A6090F84020C36B012101FA02F25A608C
:10092000816380F82110002180F82010016BE0E73E
:10093000BDE8F09F080002401C0002403000024069
:1009400044000240580002406C000240080402408B
:100950001C04024030B560B11A4B026814219A425F
:1009600009D2194B1344B3FBF1F189000164174913
:100970000AE0012030BD134B5B421344B3FBF1F19D
:10098000890001640F490839C163022180F82110F0
:10099000136843F6F0718B43F0E901142143D0E969
:1009A00002452C432143046921434469214384695E
:1009B00021431943116000214163012242770177ED
:1009C000084630BD08040240F8FFFDBF00000240A9
:1009D00070B5044690F82000002501280CD00120B5
:1009E00084F8200094F821600020012E06D084F8BD
:1009F00020000225284670BD022070BD022684F822
:100A00002160A0632068066826F001060660204683
:100A1000FFF784FCE06A00282068016802D041F0FA
:100A20000E0106E021F0040101602068016841F038
:100A30000A0101602068016841F001010160D9E705
:100A400070B5044600F00AF90546601C02D004485F
:100A50000078044400F002F9401BA042FAD370BDB4
:100A6000000000202DE9F84FDFF8C891002409F1BB
:100A7000040A0AF1040B23460F270BF1040ED1E000
:100A80000125A54006EA0502AA4276D1DFF8A8C1F1
:100A90004E68A6EB0C0866452BD00DDC032E34D037
:100AA00005DC36B3012E19D0022E2FD11BE0112EFA
:100AB00016D0122E2AD119E0B8F5881F19D006DCFD
:100AC000B8F5803F15D0B8F5801F1FD111E0B8F5FB
:100AD000001F0ED0B8F5041F18D10AE0CB6815E04E
:100AE000CB681B1D12E0CB6808330FE0CB680C33DA
:100AF0000CE08B682BB1012B4FF0080303D045614C
:100B000004E0042302E0056100E00023FF2A01D88D
:100B1000064601E000F104064FEA840501D9A5F17B
:100B20002005D6F8008007FA05FC28EA0C0803FA2D
:100B300005F548EA0508C6F800804D68ED0070D557
:100B40003E4DAE6946F00106AE61AD6924F0030684
:100B500005F0010500953A4D06EB050CDCF8085050
:100B6000A607360F07FA06F825EA0805DFF8D4804D
:100B7000404503D14FF0000825E052E0DFF8C8807F
:100B8000404502D14FF001081DE0DFF8C08040452C
:100B900002D14FF0020816E0DFF8B480404502D1E0
:100BA0004FF003080FE0DFF8AC80404502D14FF072
:100BB000040808E0DFF8A080404502D14FF00508A6
:100BC00001E04FF0060808FA06F848EA0508CCF8F4
:100BD00008804D68D9F80060ED034D4601D51643F5
:100BE00000E096432E604D68DAF80060AD0355468C
:100BF00001D5164300E096432E604D68DBF8006097
:100C0000ED025D4601D5164300E096432E604D6827
:100C1000DEF80060AD02754601D5164300E096434C
:100C20002E60641C0A681646E2407FF429AFBDE8D6
:100C3000F88F000000040140000011100010024075
:100C40000000014000080140000C0140001001407C
:100C50000014014000180140001C01400148806858
:100C600070470000000000200248816802781144AB
:100C70008160704700000020074810B5016841F00E
:100C800010010160032000F075F8002000F006F864
:100C900000F024F8002010BD0020024070B50D4D7A
:100CA00004464FF47A712878B1FBF0F00A490968DC
:100CB000B1FBF0F000F062FB48B9102C07D2002223
:100CC0002146501E00F036F800206C6070BD0120F7
:100CD00070BD0000000000200C0000200C4808B58A
:100CE000816941F001018161816901F00101009197
:100CF000C16941F08051C161C06900F0805000902D
:100D00000448416821F0E06141F08061416008BD24
:100D10000010024000000140002809DB00F01F0223
:100D2000012191404009800000F1E020C0F800114D
:100D300070470000F0B40E4B1B680C46C3F302234F
:100D4000C3F10705042D00D90425191D072901D277
:100D5000002300E0DB1E012606FA05F1491E2140B2
:100D600099409E40761E16403143F0BC00F04EBDC7
:100D70000CED00E0064900F0070208684FF6FF039B
:100D8000184040EA0220034A104308607047000000
:100D90000CED00E00000FA052DE9F8430546007867
:100DA000354CC00754D0E0690026C00008D4E06983
:100DB00040F08050E061E069012600F08050009032
:100DC0002E480168C90512D40168804641F480713B
:100DD0000160FFF743FF074605E000BFFFF73EFF56
:100DE000C01B642823D8D8F80000C005F6D5206AB7
:100DF00010F4407021D0A98801F4407181421CD0C8
:100E0000206A1F49012220F440700A6000220A6013
:100E10002062C00711D0FFF721FF074641F2883852
:100E200008E000BFFFF71AFFC11B414502D90320AC
:100E3000BDE8F883206A8007F4D5206A696820F449
:100E40004070084320621EB1E06920F08050E061EC
:100E50002878800705D56068A96820F440400843D9
:100E600060602878C00605D56068696920F4800054
:100E7000084360600020DBE7001002400070004083
:100E8000400442422DE9F0470F46050061D0434E31
:100E9000306800F00700B84209D2306820F007003F
:100EA00038433060306800F00700B84251D12868FC
:100EB0003B4C810712D5400703D5606840F4E060E1
:100EC00060602878000703D5606840F46050606077
:100ED0006068A96820F0F000084360602878C007C7
:100EE00028D06868012810D02168022810D089070E
:100EF00000292EDA616821F0030101436160FFF7E8
:100F0000ADFE804641F288390DE021688903EFE7A4
:100F10008901EDE7FFF7A2FEA0EB0801494502D9E0
:100F20000320BDE8F0876068696800F00C00B0EB52
:100F3000810FEFD1306800F00700B8420BD930685C
:100F400020F0070038433060306800F00700B842F6
:100F500001D00120E5E72878400705D56068E968F9
:100F600020F4E060084360602878000706D56068D8
:100F7000296920F4605040EAC100606000F038F850
:100F80006168084AC1F30311515CC8400649086012
:100F900006480068FFF782FE0020C2E700200240FA
:100FA00000100240381A00080C0000200400002045
:100FB0000448054900684968044AC1F30221515CAC
:100FC000C84070470C00002000100240481A00087A
:100FD0000448054900684968044AC1F3C221515CCC
:100FE000C84070470C00002000100240481A00085A
:100FF00012A185B00FC98DE80F0014A0144A006833
:1010000004905168134801F00C03042B10D0082BF6
:101010000ED1C1F38343C9031DF803000AD55168FB
:1010200004AAC1F34041515C0A4A5043B0FBF1F0BD
:1010300005B0704708494843FAE700000203040579
:10104000060708090A0B0C0D0E0F10100102000014
:101050000010024000127A0000093D002DE9F84F0F
:10106000040070D02078C04DC00749D06868C0F334
:101070008100012807D06868C0F38100022809D1E7
:101080006868C00306D52868800339D560680028E1
:10109000E7D035E06068B0F5803F0BD010B1B0F517
:1010A000A02F11D0286820F480302860286820F410
:1010B000802002E0286840F480302860606890B1A9
:1010C000FFF7CCFD06460AE0286840F4802028603F
:1010D000F0E700BFFFF7C2FD801B642873D82868C3
:1010E0008003F7D50CE0FFF7B9FD064605E000BF29
:1010F000FFF7B4FD801B6428F0D828688003F7D47C
:1011000020789A4E80074FF001094FF0000839D53A
:10111000686810F00C0F07D06868C0F381000228DF
:1011200009D16868C00306D42868800714D52069EF
:10113000012808D110E02069B0B1C6F80090FFF78F
:101140008DFD074605E00AE1FFF788FDC01B022878
:10115000C4D828688007F7D52868616920F0F800AE
:1011600040EAC10028600DE0C6F80080FFF776FD78
:10117000074604E0FFF772FDC01B022823D8286849
:101180008007F7D4207800072CD57948A169D9B118
:10119000C0F80090FFF762FD074604E0FFF75EFD30
:1011A000C01B02280FD8686A8007F7D571484FF432
:1011B000FA510068B0FBF1F0009000BF0098411EAA
:1011C0000091FAD20EE080E0C0F80080FFF746FD03
:1011D000074604E0FFF742FDC01B022875D8686A85
:1011E0008007F7D42078400760D5E8690027C00061
:1011F00008D4E86940F08050E861E869012700F010
:10120000805000905C480168C90513D4016883468A
:1012100041F480710160FFF721FD824606E000BFC6
:10122000FFF71CFDA0EB0A0064284ED8DBF8000095
:10123000C005F5D5E06801280AD008B1052813D00B
:10124000286A20F001002862286A20F0040002E0E9
:10125000286A40F001002862E06841F2883B98B1BA
:10126000FFF7FCFC82460BE0286A40F0040028628D
:10127000EEE700BFFFF7F2FCA0EB0A0159455AD890
:10128000286A8007F6D50CE0FFF7E8FC824605E007
:10129000FFF7E4FCA0EB0A0159454CD8286A800707
:1012A000F6D41FB1E86920F08050E861E06988B3A6
:1012B0006968C1F38101022944D00228C6F8608020
:1012C00004D0FFF7CBFC044638E034E0FFF7C6FC5F
:1012D000074604E0FFF7C2FCC01B02282BD8286891
:1012E0008001F7D4206AB0F5803F05D16868A16815
:1012F00020F4003008436860D4E9080108436968B5
:1013000021F4741108436860C6F86090FFF7A6FCEA
:10131000044606E025E000BFFFF7A0FC001B022802
:1013200009D828688001F7D51BE000BFFFF796FCBD
:10133000001B022802D90320BDE8F88F286880012D
:10134000F4D40EE00128F7D06868226A00F48031F6
:10135000914204D1616A00F47010884201D00120EA
:10136000EAE70020E8E700000010024000004242E7
:10137000800442420C0000200070004010B5401E66
:10138000B0F1807F01D3012010BD4FF0E0246061F7
:101390000F21601700F03AFA0020A06107202061B9
:1013A000002010BD70B5040004D094F83900002569
:1013B00010B106E0012070BD84F83850204600F0DE
:1013C00023F8242084F839002068C16821F40051F2
:1013D000C160204600F07AF92068016921F490414B
:1013E00001612068416921F02A0141612068C168DA
:1013F00041F40051C160E563202084F8390084F88D
:101400003A00002070BD000030B585B00024009483
:1014100001940294039400681449884223D114482B
:10142000C16941F40031C161C16901F40031049125
:10143000816941F00401816180690E4D00F0040072
:10144000049004200090022001900320039069463C
:101450002846FFF707FB0820CDE900046946284627
:101460000294FFF7FFFA05B030BD000000440040D1
:1014700000100240000801402DE9F843044690F8AE
:1014800039001F4616460D46202850D1A5B19EB101
:1014900094F8380001284AD0012084F838004FF031
:1014A0000008C4F83C80212084F83900FFF7D6FBFF
:1014B000A6848146E68426E00120BDE8F883E08C1E
:1014C000401EE084A0684B46B0F5805F4FF00002FC
:1014D0004FF080012046009703D000F053F9E8B99F
:1014E0000DE000F04FF9C8B928882168C0F3080062
:1014F0004860206908B16D1C05E0AD1C03E021685F
:1015000015F8010B4860E08C0028D8D14B4600222A
:1015100040212046009700F035F908B10320CCE7C0
:10152000202084F8390084F838800020C5E70220A4
:10153000C3E7FEE73EB500241148009401940294ED
:101540000E498460016001250573047505614FF43F
:1015500060214460C161FEF77BFF08B1FEF7F4FE35
:101560000B20CDE90005694602940548FEF7EEFE22
:10157000002801D0FEF7E8FE3EBD00000024014037
:1015800014010020094808B5416941F00101416199
:101590004069002200F00100009011460B20FFF787
:1015A000C9FBBDE808400B20FFF7B6BB00100240A6
:1015B000094808B5816941F010018161816901F034
:1015C00010010091816941F004018161806900F09E
:1015D0000400009008BD0000001002400C4810B547
:1015E0000A4901604FF4E1314160002181600C2221
:1015F000C160C0E904128161C161FFF7D3FE002818
:1016000003D0BDE81040FEF79FBE10BD004400406F
:1016100088010020FEE7704770477047FFF724BB42
:1016200030B595B028216846FEF7A5FD14210AA81B
:10163000FEF7A1FD18210FA8FEF79DFD012108046A
:10164000CDE900100024029402250491CDE9075051
:101650004FF4E01009906846FFF700FD0F20CDE938
:101660000A056802CDE90C4002210AA80E94FFF792
:1016700009FCA80311900F950FA8FFF78DFB15B07B
:1016800030BD00000D48016841F001010160416872
:101690000B4A1140416001680A4A1140016001682B
:1016A00021F480210160416821F4FE0141604FF482
:1016B0001F0181600449C0030860704700100240A8
:1016C0000000FFF8FFFFF6FE08ED00E02DE9F04115
:1016D000044600680169E26821F440511143016148
:1016E0002169A0680843616908432168CA6841F21A
:1016F0000C639A430243CA6020684169A26921F4DD
:101700004071114341611E49206864253226884298
:1017100002D1FFF75DFC01E0FFF74AFC00EBC001DE
:1017200001EB001160686FF018078000B1FBF0F268
:10173000B2FBF5F2B1FBF0F37A4303EB8202B1FBAB
:10174000F0F306EB0212B2FBF5F2B3FBF5F302F095
:10175000F00202EB0312B1FBF0F3B1FBF0F0B0FBCF
:10176000F5F0784303EB800006EB0010B0FBF5F0DA
:10177000216800F00F0010448860BDE8F08100008F
:10178000003801402DE9F041984617460E460446C0
:10179000069D1DE0681C1BD02DB1FFF75FFAA0EB82
:1017A0000800A84214D92068C16821F4D071C16032
:1017B0002068416921F001014161202084F839004D
:1017C00084F83A00002084F838000320BDE8F08156
:1017D0002068006836EA000004D00020B842D9D062
:1017E0000020F3E70120F9E7FEE700000FB4054B06
:1017F00010B503A9044A029800F028F810BC5DF85F
:1018000014FB0000A1190008100000200907090EB0
:10181000002804DB00F1E02080F80014704700F09D
:101820000F0000F1E02080F8141D704702E008C8A6
:10183000121F08C1002AFAD170477047002001E04A
:1018400001C1121F002AFBD1704700002DE9FF4F94
:1018500089B09B460446002506E025280BD05A4651
:101860000B999047641C6D1C20780028F5D10DB0B1
:101870002846BDE8F08F0027B8460122474900E01E
:10188000074314F8013F203B02FA03F00842F7D166
:1018900020782E2819D114F8010F47F004072A28C0
:1018A0000ED06FF02F022078A0F1300109290CD85A
:1018B00008EB880102EB410100EB0108641CF2E730
:1018C0000A98641C50F8048B0A9020780028CED027
:1018D000642808D0692806D075281ED05A460B996E
:1018E00090476D1C58E00A994FF00A0901C90A9106
:1018F000002802DA40422D2102E0390504D52B21CF
:101900008DF82010012103E0F90704D02021F7E72A
:101910008A4608AE0DE00021FAE70A994FF00A095D
:1019200001C90A91F7E74946FEF730FC303106F865
:10193000011D0028F7D1ADEB060000F12009780762
:1019400001D44FF00108C84502DDA8EB090000E012
:1019500000208046002706E008A85A46C05D0B9983
:1019600090476D1C7F1C5745F6DB04E030205A463B
:101970000B9990476D1CB8F10001A8F10108F5DC46
:1019800005E016F8010B5A460B9990476D1CB9F10A
:101990000001A9F10109F4DC641C65E709280100D4
:1019A00013B54FF6FF73012269460248FFF764FD45
:1019B00000981CBD88010020FFF75EF9FFF730FE9C
:1019C000FFF7F6FDFFF7DEFDFFF7B4FDFFF706FEBC
:1019D00009A0FFF70BFF80220F491048FEF710FE09
:1019E0000D4C4FF4FA752846FFF72AF821880CA011
:1019F000FFF7FCFEF7E70000546869732069732065
:101A0000612048414C204144435F444D412054658E
:101A10007374210D0A00000014000020140100203E
:101A20004144435F444D4120646174615B305D3DDE
:101A300025640D0A00000000000000000000000006
:101A40000102030406070809000000000102030464
:101A5000701A000800000020140000002C18000874
:101A6000841A000814000020B40500003C18000887
:101A70000100000010000000000000000024F4003D
:041A80000000000062
:0400000508000131BD
:00000001FF
