:020000040800F2
:1000000088100020DD010008790800084708000872
:10001000750800087D020008891000080000000033
:10002000000000000000000000000000550A000869
:100030000107000800000000090900081D0B000866
:10004000F7010008F7010008F7010008F7010008B0
:10005000F7010008F7010008F7010008F7010008A0
:10006000F7010008F7010008F7010008F701000890
:10007000F7010008F7010008F7010008F701000880
:10008000F701000881020008F701000800000000E5
:10009000000000000000000000000000F701000860
:1000A000F7010008F7010008F7010008F701000850
:1000B000000000000000000000000000F701000840
:1000C000F7010008F7010008F7010008F701000830
:1000D000F7010008E10C0008490D000800000000CD
:1000E000F7010008F7010008000000000000000010
:1000F000000000000000000000000000F701000800
:100100000000000000000000F701000800000000EF
:100110000000000000000000F701000800000000DF
:10012000F7010008F7010008F7010008F7010008CF
:10013000F7010008000000000000000000000000BF
:1001400000000000000000000000000000000000AF
:10015000F7010008F7010008F7010008F70100089F
:10016000000000000000000000000000000000008F
:10017000000000000000000000000000000000007F
:10018000F7010008F701000800000000000000006F
:1001900000000000F701000800000000000000005F
:1001A000000000000000000000000000000000004F
:1001B000000000000000000000000000F70100083F
:1001C000F7010008F7010008DFF80CD000F044F850
:1001D00000480047011100088810002006488047A9
:1001E00006480047FEE7FEE7FEE7FEE7FEE7FEE71C
:1001F000FEE7FEE7FEE7FEE7210B0008C901000865
:1002000040EA01039B0703D009E008C9121F08C098
:10021000042AFAD203E011F8013B00F8013B521E18
:10022000F9D27047D2B201E000F8012B491EFBD28F
:1002300070470022F6E710B513460A4604461946F1
:10024000FFF7F0FF204610BD421C10F8011B0029EB
:10025000FBD1801A70470000064C074D06E0E068AD
:1002600040F0010394E8070098471034AC42F6D3FD
:10027000FFF7AEFFAC110008CC11000800BFFEE78D
:1002800010B51249124800F0A5F901281CD120210F
:10029000104800F0D4FA10490D4800F021F8402130
:1002A0000E4800F067FD002280210C4800F0FCFDA4
:1002B0000021074800F048F80449054800F02AF8F2
:1002C0000121034800F040F810BD0000008020200C
:1002D000A06002400000024000003D2000440040B9
:1002E0000246094B9A4201D2084801E006481038FC
:1002F00001F000531BB1064B0B40C36002E0044BFE
:100300000B408360704700001064024000600240B0
:100310007D0F7D0F0246094B9A4201D2084801E049
:100320000648103801F000531BB1064B0B40C36068
:1003300002E0044B0B4083607047000010640240F1
:10034000006002407D0F7D0F21B1026842F0010282
:10035000026003E0026822F00102026070470000C0
:1003600010B5A0B042F2107001900121480500F0D4
:10037000CDFA394800F078F83748183800F074F8AA
:1003800000BF354800F01CF90028FAD14FF000609A
:10039000119032481290324813904020149000017E
:1003A0001590002016904FF4806017900020189050
:1003B00019901A904FF400301B9000201C900320DD
:1003C0001D9000201E901F9011A9234800F052F9A3
:1003D0004FF00060029021480390224804900020D2
:1003E00005904FF480600690002007904FF48060E5
:1003F0000890002009900A900B904FF400300C9068
:1004000000200D9003200E9000200F90109002A964
:100410001148183800F02EF901210F48FFF794FF1A
:1004200001210D481838FFF78FFF42F2107001903C
:1004300000BF094800F0C4F8012804D0019C601EE8
:100440000190002CF5D1019808B900BFFEE700F03B
:100450003DF920B010BD0000A060024004440040FF
:100460008804002088080020016821F00101016053
:100470000021016041608160C16001612121416111
:100480004A49884204D13D21484A103A91608CE0A3
:1004900046491831884205D14FF47461434A103AF5
:1004A000916082E041493031884205D14FF47411A6
:1004B0003E4A103A916078E03C494831884205D183
:1004C0004FF07461394A103A91606EE037496031FB
:1004D000884204D13649354A103AD16065E0334943
:1004E0007831884204D13349304A103AD1605CE017
:1004F0002E499031884204D12F492C4A103AD160BC
:1005000053E02A49A831884205D14FF03D51274A8E
:10051000103AD16049E02949884204D13D21274A57
:10052000083A116041E025491831884205D14FF45D
:100530007461224A083A116037E02049303188421C
:1005400005D14FF474111D4A083A11602DE01B4982
:100550004831884205D14FF07461184A083A116059
:1005600023E016496031884204D11149134A121F11
:1005700011601AE011497831884204D10D490F4ABF
:10058000121F116011E00D499031884204D10A49CF
:100590000A4A121F116008E00849A831884204D1B4
:1005A0004FF03D51054A121F116070471060024024
:1005B0003D000020400F002000003D20106402405C
:1005C000014600200A6802F001020AB1012000E0A1
:1005D0000020704770B50246002000240025124E0E
:1005E000B24201D2114B01E00F4B103B104E0E40B6
:1005F00036B11E2606EAD124166806EA040502E092
:10060000566906F0800501F000560EB15C6800E006
:100610001C68084E344004EA010616B10DB10120F1
:1006200000E0002070BD0000106402400060024045
:100630003C0F3C0F7D0F7D0F10B501F080034BB1D7
:1006400022B1436943F08003436103E0436923F02F
:100650008003436180290BD02AB1036801F01E0496
:100660002343036004E0036801F01E04A343036016
:1006700010BD000010B500220268134B1A40CC6870
:100680000B6823434C6923438C692343CC69234380
:100690000C6A23434C6A23438C6A23434C6B2343E9
:1006A0008C6B23431A430260426922F00702D1E9AE
:1006B0000B3423431A4342610B6943604B688360E8
:1006C0008B68C36010BD00003F801CF008B511208E
:1006D0008DF8000000208DF801008DF80200012047
:1006E0008DF80300684600F0C9F801221021024885
:1006F000FFF7A2FF08BD0000A06002404160704704
:10070000704710B5044603E04FF47A7000F006F825
:10071000201EA4F10104F7D110BD00000146114ACA
:1007200012884A434FF0E0235A6100229A611A4628
:10073000126942F001021A6100BF4FF0E022106915
:1007400000F001021AB100F48032002AF5D04FF017
:10075000E022126922F001024FF0E0231A61002228
:100760009A61704724000020F0B50A46002100235A
:10077000002400BF3DE0012505FA01F3156805EAF4
:1007800003049C4234D105684F000326BE40B543A4
:10079000056015794E00B54006683543056015794A
:1007A000012D02D01579022D16D185684F00032640
:1007B000BE40B543856055794E00B54086683543E7
:1007C0008560456801268E40B54345604568967949
:1007D0008E40B6B235434560C5684F000326BE4023
:1007E000B543C560D5794E00B540C6683543C56090
:1007F000491C1029BFD3F0BDF0B5002300244D07DC
:10080000ED0E02FA05F3CE1000F1200555F8265042
:100810004E07F70E0F26BE40B543CF1000F120065D
:1008200046F82750CE1000F1200555F8265045EA2D
:100830000304CE1000F1200545F82640F0BD4269C2
:100840004A404261704700BFFEE700001CB501212D
:10085000084600F05BF82020009001208DF804008D
:1008600002208DF8050069460148FFF77DFF1CBD99
:100870000000024000BFFEE77047000070B5002195
:1008800000230F22C4781CB3174C246804F4E064DE
:10089000C4F5E064C4F30721C1F10404E3B20A41E2
:1008A00044789C40E1B28478144021430C07210E27
:1008B0000E4C05786155047804F01F050124AC4006
:1008C00005786D11AD0005F1E025C5F8004109E09E
:1008D000047804F01F050124AC40054D067876111C
:1008E00045F8264070BD00000CED00E000E400E09B
:1008F00080E100E002490143024A116070470000B4
:100900000000FA050CED00E07047000029B1064A2E
:1009100012680243044B1A6004E0034A12688243DF
:10092000014B1A60704700003038024029B1064A76
:1009300012680243044B1A6004E0034A12688243BF
:10094000014B1A60704700004038024029B1064A46
:1009500012680243044B1A6004E0034A126882439F
:10096000014B1A607047000044380240F0B5002186
:1009700000220024022500260223324F3F6807F0A0
:100980000C0121B1042905D0082937D105E02E4FEB
:10099000076036E02D4F076033E02A4F3F1F3F6866
:1009A000C7F38056274F3F1F3F6807F03F036EB1E4
:1009B000264FB7FBF3F7DFF88CC0ACF1040CDCF882
:1009C00000C0CCF3881C07FB0CF40CE01E4FB7FBF7
:1009D000F3F7DFF870C0ACF1040CDCF800C0CCF326
:1009E000881C07FB0CF4174F3F1F3F68C7F30147F4
:1009F0007F1C7D00B4FBF5F7076002E0124F076033
:100A000000BF00BF0F4F3F6807F0F0010909104F0A
:100A10007A5C0768D74047600A4F3F6807F4E051A7
:100A2000890A0B4F7A5C4768D7408760054F3F685B
:100A300007F46041490B064F7A5C4768D740C760AE
:100A4000F0BD0000083802400024F40040787D0129
:100A500014000020704700002248006840F08050D9
:100A6000204908602048006840F440401E49086062
:100A70001C48383800681B49383908600846006847
:100A800008600846006840F4805008601748091F55
:100A90000860081F006840F08070091F086000BFF0
:100AA00010484038006800F000700028F8D040F28C
:100AB00002700F4908600B483838006820F00300C6
:100AC0000849383908600846006840F002000860AC
:100AD00000BF04483838006800F00C000828F8D13E
:100AE0007047000040380240007000401064010769
:100AF000003C0240042808D14FF0E021096941F090
:100B000004014FF0E022116107E04FF0E021096994
:100B100021F004014FF0E02211617047704700009E
:100B200010B51548006840F4700013490860134878
:100B3000006840F001001149086000200F490831A9
:100B400008600E4800680E4908400C4908600D48CE
:100B5000091D0860081F006820F48020091F086034
:100B6000002006490C310860FFF776FF4FF0006067
:100B700001498039086010BD88ED00E0003802406E
:100B8000FFFFF6FE1030002410B50420FFF7B2FF7F
:100B9000074800680749B0FBF1F00749088008469C
:100BA00000884FF47A7148430449086010BD000082
:100BB0000000002040420F002400002028000020F8
:100BC00000B589B03248334908604FF4E1304860DD
:100BD000314888604FF4C060C8600120086110206F
:100BE000486125208DF81C0002208DF81D00012091
:100BF0008DF81E0040F22550ADF820002748284906
:100C000008604FF416504860264888606020C8602D
:100C1000082008618003486126208DF81400012017
:100C20008DF815008DF8160040F22550ADF818002B
:100C30001D481E4908604FF4E1304860194888603B
:100C40004FF44070C86008200861C00348610598EF
:100C50000290BDF81800ADF80C001149D1E904016B
:100C6000CDE900010E480FC800F09AF807980290ED
:100C7000BDF82000ADF80C000649D1E90401CDE92A
:100C8000000104480FC800F08BF809B000BD000057
:100C900000100140400000200000024000440040DD
:100CA00058000020000C0240004800407000002066
:100CB000F8B506460C4615464FF4A060FFF71AFE3D
:100CC000F0B28DF800008DF801408DF8025001203F
:100CD0008DF803006846FFF7D1FDF8BD70470000AE
:100CE00010B540F22551054800F010F928B104482C
:100CF0000449086004480968884710BD0010014095
:100D0000DD0C00082C0000204000002070B50446D7
:100D10000D464FF480610948FFF78BFA2A462146B9
:100D20000648FFF76DFA2946054800F0C6F801228B
:100D30008021044800F0B8F870BD0000880400204D
:100D4000A06002400044004010B540F22551054823
:100D500000F0DCF828B10448044908600448096838
:100D6000884710BD00440040DD0C00083000002022
:100D70005800002001F40072B2F5007F00D100BFDE
:100D8000CA430280704721B1828942F400528281B5
:100D900004E082894DF6FF731A408281704700009B
:100DA0000FB470B586B00D9885B201210E98FFF78B
:100DB000ADFD3A490A98884204D101210F98FFF706
:100DC000C5FD0BE036490A98884203D035490A9898
:100DD000884203D101210F98FFF7A8FD2F490A98F7
:100DE000884207D02E490A98884203D02D490A9894
:100DF000884200D10726002410E045FA04F000F0F4
:100E0000010020B1324621460C98FFF7F5FC601C2A
:100E100045FA00F000B903E0601CC4B2102CECDB12
:100E200000BF049502208DF814008DF815000020F5
:100E30008DF8160001208DF8170004A90C98FFF713
:100E400093FC0B9800900020ADF80400ADF806006C
:100E5000ADF80800ADF80C000C20ADF80A006946AA
:100E60000A9800F0A3F89DF842209DF841109DF9E2
:100E70004000FFF71DFFBDF8441001220A9800F062
:100E80006FF801210A98FFF77EFF40210A98FFF7CB
:100E900071FF06B070BC5DF814FB0000001001404B
:100EA00000440040004800401AB1838A0B4383820B
:100EB00002E0838A8B438382704770B504460D46F7
:100EC000002600212046FFF73FFA00BF2046FFF72B
:100ED00077FB28B13046711C8EB2B0F5FA7FF5DB96
:100EE00029462046FFF70AFC01212046FFF72CFA8D
:100EF00070BD02460020B1F5007F00D100BF13880D
:100F00000B400BB1012000E00020704770B5024695
:100F1000002400230025002040F66A16B14200D1CB
:100F200000BFC1F3421501F01F03012606FA03F3C7
:100F3000012D02D19689334006E0022D02D1168A96
:100F4000334001E0968A33400C12012606FA04F47D
:100F50001688344013B10CB1012000E0002070BDB0
:100F6000F0B50346002400260025002040F66A174D
:100F7000B94200D100BF1846C1F3421401F01F0668
:100F8000012707FA06F5012C01D10C3004E0022CF0
:100F900001D1103000E014301AB107682F43076008
:100FA00002E00768AF430760F0BD00002DE9FF478E
:100FB00005460E460024A14600BFA046B08900B1F8
:100FC00000BF2C8A24F44054F08804432C82AC895E
:100FD00041F20C608443B088318908437189084329
:100FE0000443AC81AC8A24F44074B0890443AC82DD
:100FF0006846FFF7BBFC2048854202D01F48854267
:1010000002D1DDF80C9001E0DDF80890A88900F429
:10101000004040B109EBC90000EB091031684900FC
:10102000B0FBF1F707E009EBC90000EB09103168EC
:101030008900B0FBF1F76420B7FBF0F00401200950
:10104000642101FB1078A88900F4004040B13220EF
:1010500000EBC800B0FBF1F000F00700044308E02B
:10106000322000EB08106421B0FBF1F000F00F001B
:1010700004432C81BDE8FF870010014000140140AB
:10108000C1F308028280704700BFFEE7014A0249AF
:1010900000F013B8DD1000083C00002002E008C892
:1010A000121F08C1002AFAD170477047002001E0E2
:1010B00001C1121F002AFBD170472DE9F0411646ED
:1010C0000F460446002503E03946B047641C6D1CFA
:1010D00020780028F8D12846BDE8F08170B5044694
:1010E0000D46E1B20548FFF7CBFF00BF8021034862
:1010F000FFF7FFFE0028F9D0204670BD0010014028
:10110000FFF742FDFFF7A2FBFFF75AFD6420FFF750
:10111000F8FA18A0FFF7BAFFFFF722F96420FFF7EB
:10112000F0FA012280211848FFF7BEFE012240217B
:101130001548FFF7B9FE1BE00F2114A0FFF7E6FDED
:101140004FF47A70FFF7DDFA0A2114A0FFF7DEFDF5
:101150004FF47A70FFF7D5FA1348FFF775F884B2A9
:1011600021461148FFF7D2FD4FF47A70FFF7C9FA14
:10117000E2E700000A0D444D4120554152542054ED
:101180006573740D0A000000004400400D0A686594
:101190006C6C6F2C776F726C640D0A000D0A6E69AF
:1011A0002C68616F0D0A000088000020CC11000837
:1011B00000000020400000009C1000080C120008F5
:1011C0004000002048100000AC10000800E1F505C8
:1011D00000000000000000000102030406070809E7
:1011E00000000000010203040102030406070809CD
:1011F00000000000000000000000000000000000EF
:0C120000000000000000000000000000E2
:04000005080001C925
:00000001FF
